:100000000C94FF2D0C94302E0C94302E0C94302E2A
:100010000C94302E0C9465C30C94302E0C94302E1E
:100020000C94F6C60C94302E0C9445830C94302E10
:100030000C94302E0D94E9300C94302E0C94302E0C
:100040000C94302E0C9437A20C94302E0C94302E3D
:100050000C94302E0C94302E0D94530C0D942A7E5B
:100060000C94302E0C94E4930C94302E0C94302E7F
:100070000C94302E0C94302E0C94302E0C94302E88
:100080000C94302E0C94302E0C94302E0C94302E78
:100090000C94A0930C94302E0C94302E0C94302E93
:1000A0000C94302E0C94302E0C94302E0C94302E58
:1000B0000C94302E0C94302E0C94302E0C94302E48
:1000C0000C94302E0C94302E0C94302E0C94F69D03
:1000D0000C94302E0C94302E0C94302E0C94302E28
:1000E0000C94302EEB81EF81F581FE8117823482F2
:1000F0007182A8820BDC21DC34DC41DC4BDC79DC56
:100100008BDC91DC9FDCA3DCA5DCAFDCC0DCD0DCCD
:100110007E017C01DA015401D201DC014601AA0111
:100120002E0160017001B401C001A0012401280169
:10013000A201D801D6013A01A6014C015201BA012F
:100140009401A2015E0130011E01680120018401B9
:10015000E00178014401C2015C01D001BE01BC0193
:1001600074014001980144019A016A014A01084A58
:10017000D73B3BCE016E84BCBFFDC12F3D6C7431BB
:100180009ABD56833DDA3D00C77F11BED9E4BB4C12
:100190003E916BAAAABE000000803F05A84CCDB2DC
:1001A000D44EB93836A9020C50B9918688083CA6BD
:1001B000AAAA2ABE000000803F07634236B79BD838
:1001C000A71A39685618AEBAAB558C1D3CB7CC5738
:1001D00063BD6DEDFD753EF6177231BF0000008006
:1001E0003F08000000BE922449123EABAAAA2ABED4
:1001F000CDCCCC4C3E00000080BEABAAAAAA3E00EB
:10020000000000BF000000803F0000000000084127
:1002100078D3BB4387D1133D190E3CC3BD4282AD99
:100220002B3E68EC8276BED98FE1A93E4C80EFFF71
:10023000BE01C4FF7F3F0000000000000D949079D4
:100240000D94B87B0D94F62C0D9451790D944006C5
:100250000D9457790D94642D0D9465170D94C53840
:100260000D948C790D94602D0D94662D0D941525AB
:100270000D94A62F0D946C790D94AB2F0D941E82C6
:100280000D94187C0D945E2D0D944A7C0D94A93824
:100290000D94F02C0D94407C0D9474790D94E880AD
:1002A0000D949C2F0D947A790D9481380D948C8146
:1002B0000D9424300D9450350D94E37B0D94887982
:1002C0000D94D3380D94F67E0D9450170D9424257B
:1002D0000D94B37B0D94367C0D94747E0D94323066
:1002E0000D94EA380D94ED2C0D94097C0D94EA2CB4
:1002F0000D94D17B0D94A5800D9469380D945B38D5
:100300000D94F32C0D9401820D94BD7B0D94DB13A1
:100310000D94081A0D94622D0D94E7050D942C8010
:100320000D94A87F0D946C810D9482790D94B91869
:100330000D94227C0D942C7C0D943B820D94AA810B
:100340000D944D790D9495790D9408140D94707950
:100350000D94F7240D94B7380D9407800D94E48123
:100360000D941A250D948B9D0D945B790D94C78186
:100370000D94A02F0D947E790D94FF7B0D94F57B49
:100380000D945E790D94DB7B0D94A7170D947D8100
:100390000D9458820D94C81A0D941F250D945A80FF
:1003A0000D94EB7B0D949D380D94D9130D946679C3
:1003B0000D9462790D946F380D94A3380D94D492F6
:1003C0000D94C77B6E616E00696E66004E414E49AA
:1003D0004E495459494E46CDCCCC3D0AD7233C1703
:1003E000B7D13877CC2B329595E6241FB14F0A0050
:1003F0000020410000C84200401C4620BCBE4CCA40
:100400001B0E5AAEC59D7400407A10F35A00A072BC
:100410004E18090010A5D4E80000E876481700003F
:10042000E40B54020000CA9A3B000000E1F505000D
:100430000080969800000040420F000000A0860156
:10044000000000102700000000E803000000006426
:1004500000000000000A0000000000010000000091
:10046000002C76D888DC674F0823DFC1DFAE59E166
:10047000B1B796E5E3E453C63AE651997696E8E6D5
:10048000C28426EB898C9B62ED407C6FFCEFBC9CA8
:100490009F40F2BAA56FA5F490055A2AF75C936BBA
:1004A0006CF9676DC11BFCE0E40D47FEF520E6B575
:1004B00000D0ED902E0300943577050080841E084F
:1004C0000000204E0A000000C80C333333330F986D
:1004D0006E12831141EF8D2114893BE65516CFFE34
:1004E000E6DB18D1844B381BF77C1D901DA4BBE4C0
:1004F00024203284725E228100C9F124ECA1E53D02
:100500002725642062797465732077726974746535
:100510006E20746F20454550524F4D20617420610C
:100520006464726573732030782530347800443306
:10053000202D20526561642F5772697465204545EE
:1005400050524F4D0A0020436F756E7420583A2068
:10055000005344207072696E74696E67206279740A
:100560006520004E6F7420696E206661726D206D8B
:100570006F64652E004163746976652045787472F6
:10058000756465723A2000496E76616C6964206515
:1005900078747275646572005A204F66667365746C
:1005A00000556E6B6E6F776E20636F6D6D616E645C
:1005B0003A2022007A5F6D61783A20007A5F6D6997
:1005C0006E3A2000795F6D61783A2000795F6D693D
:1005D0006E3A2000785F6D61783A20006F70656E2A
:1005E0000054524947474552454400785F6D696E53
:1005F0003A20005265706F7274696E6720656E6490
:1006000073746F7020737461747573000053494C78
:10061000454E54004E4F524D414C002553204D4FF6
:1006200044453A2050657263656E7420646F6E6550
:100630003A2025643B207072696E742074696D6580
:100640002072656D61696E696E6720696E206D69E3
:100650006E733A2025640A00456E642066696C65F5
:10066000206C69737400426567696E2066696C6509
:10067000206C6973740025643A2025640A000A50CE
:10068000494E44412074656D706572617475726580
:100690003A20252E3166205A207368696674202816
:1006A0006D6D293A20252E3366000A537465703A21
:1006B0002025642F360A000A537465703A20256499
:1006C0002F362028736B6970706564290A50494E73
:1006D00044412074656D70657261747572653A206D
:1006E0002564205A20736869667420286D6D293A44
:1006F000300A000A5A45524F3A20252E33660A0026
:1007000073746172742074656D7065726174757252
:10071000653A20252E31660A0025642020252E32D8
:100720006600255320583A20252E356620593A2058
:10073000252E3566205A3A20252E35660A004E6F42
:100740007420696E206661726D206D6F64652E0085
:1007500025640045303A25642052504D0A50524ECF
:10076000303A25642052504D0A00256400417574CA
:100770006F0020452F443D00416476616E63652023
:100780004B3D004D323230205325690025534669D8
:100790006C616D656E742073657474696E67733A0D
:1007A0002044697361626C65640A00255346696C74
:1007B000616D656E742073657474696E67733A0A4F
:1007C00025532020204D3230302044252E32660A19
:1007D000002553526574726163743A20533D4C6531
:1007E0006E67746820286D6D2920463A53706565E0
:1007F0006420286D6D2F6D29205A3A205A4C696665
:100800007420286D6D290A25532020204D32303761
:100810002053252E32662046252E3266205A252E5C
:1008200032660A25535265636F7665723A20533DEE
:100830004578747261206C656E67746820286D6DF0
:100840002920463A537065656420286D6D2F6D2907
:100850000A25532020204D3230382053252E326671
:100860002046252E32660A25534175746F2D526538
:1008700074726163743A20533D3020746F20646950
:100880007361626C652C203120746F20696E746511
:10089000727072657420657874727564652D6F6E00
:1008A0006C79206D6F766573206173207265747248
:1008B00061637473206F72207265636F766572690D
:1008C00065730A25532020204D323039205325648A
:1008D0000A002553504944206865617462656420AC
:1008E00073657474696E67733A0A25532020204D2E
:1008F0003330342050252E32662049252E32662092
:1009000044252E32660A00255350494420736574ED
:1009100074696E67733A0A25532020204D333031B5
:100920002050252E32662049252E32662044252E61
:1009300032660A0025535374657073207065722007
:10094000756E69743A0A255320204D393220582596
:100950002E32662059252E3266205A252E326620E8
:1009600045252E32660A25534D6178696D756D20D7
:10097000666565647261746573202D206E6F726D9B
:10098000616C20286D6D2F73293A0A255320204D64
:100990003230332058252E32662059252E326620DB
:1009A0005A252E32662045252E32660A25534D6182
:1009B00078696D756D206665656472617465732014
:1009C0002D20737465616C746820286D6D2F7329F8
:1009D0003A0A255320204D3230332058252E3266D6
:1009E0002059252E3266205A252E32662045252E86
:1009F00032660A25534D6178696D756D20616363B8
:100A0000656C65726174696F6E202D206E6F726DFA
:100A1000616C20286D6D2F7332293A0A25532020EE
:100A20004D3230312058256C752059256C75205A6F
:100A3000256C752045256C750A25534D6178696DC7
:100A4000756D20616363656C65726174696F6E209A
:100A50002D20737465616C746820286D6D2F73325E
:100A6000293A0A255320204D3230312058256C7503
:100A70002059256C75205A256C752045256C750A02
:100A80002553416363656C65726174696F6E3A20CA
:100A9000533D616363656C65726174696F6E2C2090
:100AA000543D7265747261637420616363656C6543
:100AB000726174696F6E0A255320204D32303420E4
:100AC00053252E32662054252E32660A2553416462
:100AD00076616E636564207661726961626C6573CC
:100AE0003A20533D4D696E20666565647261746598
:100AF00020286D6D2F73292C20543D4D696E207474
:100B0000726176656C206665656472617465202823
:100B10006D6D2F73292C20423D6D696E696D756D69
:100B2000207365676D656E742074696D6520286D2E
:100B300073292C20583D6D6178696D756D20585969
:100B4000206A65726B20286D6D2F73292C20205A26
:100B50003D6D6178696D756D205A206A65726B20F4
:100B6000286D6D2F73292C2020453D6D6178696DAE
:100B7000756D2045206A65726B20286D6D2F732975
:100B80000A255320204D3230352053252E32662041
:100B900054252E32662042252E32662058252E32CC
:100BA000662059252E3266205A252E32662045258C
:100BB0002E32660A2553486F6D65206F6666736531
:100BC0007420286D6D293A0A255320204D32303685
:100BD0002058252E32662059252E3266205A252E81
:100BE00032660A00504944204175746F74756E6511
:100BF0002066696E6973686564212050757420747D
:100C00006865206C617374204B702C204B692061E7
:100C10006E64204B6420636F6E7374616E74732016
:100C200066726F6D2061626F766520696E746F20E9
:100C3000436F6E66696775726174696F6E2E6800C6
:100C4000504944204175746F74756E652066616902
:100C50006C6564212074696D656F75740020403A7D
:100C600000543A00423A00504944204175746F7470
:100C7000756E65206661696C6564212054656D70D0
:100C80006572617475726520746F6F20686967683A
:100C900000204B643A2000204B693A2000204B7022
:100CA0003A200020436C61737369632050494420EB
:100CB000002054753A2000204B753A2000206D61C9
:100CC000783A2000206D696E3A200020643A2000B6
:100CD00020626961733A200020453A00205A3A00A8
:100CE00020593A0020453A00205A3A0020593A004B
:100CF000583A00005A30005A31005930005931003A
:100D0000583000583100456E642073746F70732042
:100D100064696167002E0044656C6574696F6E20BC
:100D20006661696C65642C2046696C653A200046F2
:100D3000696C652064656C657465643A004E6F7417
:100D4000205344207072696E74696E670050726936
:100D50006E74207361766564005344207072696E0E
:100D60007420706175736564000A002F000A002FFB
:100D70002F20616374696F6E3A63616E63656C0006
:100D800043524153485F43414E43454C0043524117
:100D900053485F5245434F564552004352415348D2
:100DA0005F5245434F5645520022283229005400D5
:100DB000496E76616C6964205420636F64652E000F
:100DC000556E6B6E6F776E204D20636F64653A20B1
:100DD0002573200A006E6F2076616C696420636F52
:100DE0006D6D616E64002C20002C20002C20006EA4
:100DF0002F61002C20002C20002C20006E2F610081
:100E00002F00503A005761697420666F7220504974
:100E10004E4441207461726765742074656D70651D
:100E20007261747572653A004C414E472053454CCF
:100E300020464F52434544002228312900303030AB
:100E400030303030302D303030302D303030302DAB
:100E5000303030302D303030303030303030303095
:100E6000300020555549443A00310020455854522D
:100E7000554445525F434F554E543A005072757376
:100E800061206933204D4B3300204D414348494E8A
:100E9000455F545950453A00312E3000206261734D
:100EA0006564206F6E204D61726C696E20464952F8
:100EB0004D574152455F55524C3A68747470733ABD
:100EC0002F2F6769746875622E636F6D2F7072754E
:100ED000736133642F50727573612D4669726D773B
:100EE0006172652050524F544F434F4C5F564552EC
:100EF00053494F4E3A004649524D574152455F4E75
:100F0000414D453A50727573612D4669726D776136
:100F1000726520004D31313320530020423A0020C9
:100F2000453A00543A0020413A0020503A0020420D
:100F3000403A0020403A00202F003A002054002080
:100F40002F0020423A00202F006F6B20543A0025DA
:100F500069206D696E2C2025692073656300496ED8
:100F600076616C6964204D20636F64653A20257357
:100F7000200A00556E6B6E6F776E204720636F649A
:100F8000653A202573200A004D6573682062656408
:100F9000206C6576656C696E67206E6F7420616386
:100FA000746976652E000A002020000A4D65617381
:100FB0007572656420706F696E74733A000A5A2006
:100FC000736561726368206865696768743A2000B8
:100FD0002C004E756D20582C593A2000206D696305
:100FE000726F6E730045786365737369766520620E
:100FF0006564206C6576656C696E6720636F7272DC
:10100000656374696F6E3A200047323820573000AC
:1010100050494E44412070726F62652063616C6973
:1010200062726174696F6E2073746172740047320A
:1010300038205730004D3234005345545F43484FF9
:10104000505F005345545F535445505F005345541F
:101050005F574156455F00544D435F004352415333
:10106000485F005072657373206B6E6F6220746FFF
:101070002070726568656174206E6F7A7A6C652085
:10108000616E6420636F6E74696E75652E00506CBE
:101090006561736520707265737320746865206B79
:1010A0006E6F6220746F20756E6C6F61642066696C
:1010B0006C616D656E7400616E642070726573732F
:1010C00020746865206B6E6F6200496E7365727480
:1010D0002066696C616D656E7400436F6C6F722081
:1010E0006E6F7420636F72726563740046696C6121
:1010F0006D656E74206E6F74206C6F616465640042
:101100004368616E67656420636F72726563746CB7
:10111000793F004C6F6164696E6720636F6C6F721A
:10112000004368616E67652073756363657373213F
:1011300000506C65617365206F70656E2069646C2A
:10114000657220616E642072656D6F7665206669D8
:101150006C616D656E74206D616E75616C6C792E5D
:10116000005761732066696C616D656E7420756EE1
:101170006C6F6164207375636365737366756C3F30
:1011800000506C6561736520757067726164652ECF
:10119000004E6577206669726D77617265207665AD
:1011A0007273696F6E20617661696C61626C653A19
:1011B0000057616974696E6720666F722050494EEE
:1011C00044412070726F626520636F6F6C696E6757
:1011D0000043726173682064657465637465642E8E
:1011E00020526573756D65207072696E743F00439F
:1011F000726173682064657465637465642E00456C
:10120000787472756465720043686F6F73652065EA
:10121000787472756465723A004D32303020496ED0
:1012200076616C69642065787472756465722000FB
:101230004E6F206D6F76652E005761697420666F62
:101240007220757365722E2E2E00536F6D6520709F
:10125000726F626C656D20656E636F756E7465721A
:1012600065642C205A2D6C6576656C6C696E672000
:10127000656E666F72636564202E2E2E0053746156
:10128000626C6520616D6269656E742074656D7055
:10129000657261747572652032312D323643206972
:1012A00073206E6565646564206120726967696496
:1012B000207374616E642069732072657175697240
:1012C00065642E00506C656173652072756E2058E0
:1012D000595A2063616C6962726174696F6E20662D
:1012E000697273742E00536C6565702E2E2E007318
:1012F000746172740A006164635F696E69740A00E4
:101300001B5B324A1B5B313B31484F726967696E28
:10131000616C2050727573612069331B5B323B3303
:10132000485072757361205265736561726368001D
:10133000466163746F727920524553455400446589
:1013400063202032203230313800436F6D70696C79
:1013500065643A2000286E6F6E652C2064656661B6
:10136000756C7420636F6E6669672900446563203D
:10137000203220323031382031353A34363A333168
:101380000020352E302E342D545A422D393939391A
:101390000A002055706C6F616420696E2070726F56
:1013A000677265737300205A3A0020593A0020583A
:1013B0003A0043524153485F4445544543544544E1
:1013C00058590043524153485F444554454354459E
:1013D00044590043524153485F44455445435445A2
:1013E0004458004D323900507275736120693320C2
:1013F0004D4B332072656164792E00426C61636BE2
:101400006F7574206F636375727265642E20526508
:10141000636F766572207072696E743F0053656CFD
:1014200066746573742077696C6C206265207275D0
:101430006E20746F2063616C6962726174652061F3
:10144000636375726174652073656E736F726C652A
:101450007373207265686F6D696E672E00546865DE
:101460007265206973207374696C6C2061206E65ED
:10147000656420746F206D616B65205A2063616C18
:101480006962726174696F6E2E20506C656173655C
:1014900020666F6C6C6F7720746865206D616E7567
:1014A000616C2C2063686170746572204669727388
:1014B000742073746570732C2073656374696F6E28
:1014C0002043616C6962726174696F6E20666C6F33
:1014D000772E005072696E74657220686173206E99
:1014E0006F74206265656E2063616C6962726174FD
:1014F0006564207965742E20506C65617365206683
:101500006F6C6C6F7720746865206D616E75616CAF
:101510002C20636861707465722046697273742050
:1015200073746570732C2073656374696F6E2043E8
:10153000616C6962726174696F6E20666C6F772E80
:10154000004F6C642073657474696E677320666FF6
:10155000756E642E2044656661756C742050494434
:101560002C20457374657073206574632E20776931
:101570006C6C206265207365742E005761726E6911
:101580006E673A20626F7468207072696E7465725B
:10159000207479706520616E64206D6F7468657267
:1015A000626F6172642074797065206368616E6730
:1015B00065642E005761726E696E673A20707269B9
:1015C0006E7465722074797065206368616E6765FA
:1015D000642E005761726E696E673A206D6F746891
:1015E0006572626F617264207479706520636861EE
:1015F0006E6765642E002020506C616E6E657242CD
:10160000756666657242797465733A200020467289
:101610006565204D656D6F72793A2000204C6173CD
:101620007420557064617465643A2000457874656F
:10163000726E616C2053504920666C61736820574C
:101640003235583230434C206E6F7420726573709F
:101650006F6E64696E672E004372617368446574CF
:101660006563742044495341424C454400437261D0
:10167000736844657465637420454E41424C45442B
:101680002100207C20417574686F723A200020533D
:101690006F667477617265205265736574002057B8
:1016A00061746368646F67205265736574002042DB
:1016B000726F776E206F75742052657365740020A9
:1016C00045787465726E616C205265736574005064
:1016D0006F7765725570006572726F7220777269EC
:1016E00074696E6720746F2066696C6500656E644E
:1016F00073746F7073206869743A2000446F6E656C
:1017000020736176696E672066696C652E006F6B69
:101710000058595A2063616C6962726174696F6E16
:1017200020616C6C2072696768742E20536B65773A
:101730002077696C6C20626520636F7272656374D8
:101740006564206175746F6D61746963616C6C7937
:101750002E0058595A2063616C6962726174696F16
:101760006E20616C6C2072696768742E20582F5946
:1017700020617865732061726520736C6967687495
:101780006C7920736B657765642E20476F6F6420DA
:101790006A6F62210058595A2063616C69627261F4
:1017A00074696F6E206F6B2E20582F5920617865F9
:1017B00073206172652070657270656E646963750F
:1017C0006C61722E20436F6E67726174756C617408
:1017D000696F6E73210058595A2063616C69627297
:1017E0006174696F6E206661696C65642E20526950
:1017F0006768742066726F6E742063616C696272D0
:101800006174696F6E20706F696E74206E6F7420E2
:10181000726561636861626C652E0058595A206375
:10182000616C6962726174696F6E206661696C6572
:10183000642E2046726F6E742063616C69627261FF
:1018400074696F6E20706F696E7473206E6F742090
:10185000726561636861626C652E0058595A206335
:10186000616C6962726174696F6E206661696C6532
:10187000642E20506C6561736520636F6E73756CA8
:101880007420746865206D616E75616C2E00585906
:101890005A2063616C6962726174696F6E20636F54
:1018A0006D70726F6D697365642E2052696768741C
:1018B0002066726F6E742063616C69627261746914
:1018C0006F6E20706F696E74206E6F742072656128
:1018D000636861626C652E0058595A2063616C69B7
:1018E00062726174696F6E20636F6D70726F6D6983
:1018F0007365642E2046726F6E742063616C69623A
:10190000726174696F6E20706F696E7473206E6F90
:101910007420726561636861626C652E0058595A63
:101920002063616C6962726174696F6E20666169BF
:101930006C65642E204265642063616C696272612B
:1019400074696F6E20706F696E7420776173206E9A
:101950006F7420666F756E642E00506C65617365E0
:1019600020706C61636520737465656C20736865B5
:101970006574206F6E20686561746265642E004432
:10198000697374616E6365206265747765656E2046
:10199000746970206F6620746865206E6F7A7A6C47
:1019A0006520616E642074686520626564207375CB
:1019B000726661636520686173206E6F7420626572
:1019C000656E20736574207965742E20506C656196
:1019D000736520666F6C6C6F7720746865206D612D
:1019E0006E75616C2C206368617074657220466945
:1019F0007273742073746570732C207365637469DB
:101A00006F6E204669727374206C61796572206311
:101A1000616C6962726174696F6E2E00506C6163F3
:101A2000652061207368656574206F662070617041
:101A3000657220756E64657220746865206E6F7AB9
:101A40007A6C6520647572696E67207468652063BE
:101A5000616C6962726174696F6E206F662066697D
:101A6000727374203420706F696E74732E2049660F
:101A700020746865206E6F7A7A6C65206361746388
:101A8000686573207468652070617065722C2070C1
:101A90006F776572206F6666207468652070726962
:101AA0006E74657220696D6D6564696174656C79C9
:101AB0002E00506C656173652072656D6F766520D0
:101AC000737465656C2073686565742066726F6DEC
:101AD00020686561746265642E00497320737465C3
:101AE000656C207368656574206F6E20686561742D
:101AF0006265643F00206F66203400536561726345
:101B000068696E67206265642063616C69627261F6
:101B100074696F6E20706F696E7400206F66203973
:101B2000004D6561737572696E67207265666572D6
:101B3000656E636520686569676874206F662063F9
:101B4000616C6962726174696F6E20706F696E7426
:101B500000506C6561736520636C65616E2074680C
:101B600065206E6F7A7A6C6520666F722063616C97
:101B70006962726174696F6E2E20436C69636B20B9
:101B80007768656E20646F6E652E004175746F20F6
:101B9000686F6D650078797A63616C5F6D656173FC
:101BA000737572655F656E7465720A0078797A6321
:101BB000616C5F73706972616C382063783D256475
:101BC0002063793D2564207A303D256420647A3D88
:101BD0002564207261646975733D25642061643DEC
:101BE00025640A0078797A63616C5F73656172635A
:101BF000685A206E6F207369676E616C0A20783DA9
:101C0000256C6420793D256C64207A3D256C640A3E
:101C100000204F4E2D5349474E414C20617420788F
:101C20003D256420793D2564207A3D25642061644A
:101C30003D25640A0078797A63616C5F736561722F
:101C400063685A20783D256C6420793D256C6420BA
:101C50007A3D256C640A000A0025303278007879D4
:101C60007A63616C5F7363616E5F706978656C73D2
:101C70005F33327833322063783D25642063793DC9
:101C80002564206D696E5F7A3D2564206D61785F03
:101C90007A3D25640A00202532642025640A000A62
:101CA000002530327800206D696E3D2564206D611D
:101CB000783D2564206469663D25640A006D61787D
:101CC0005F633D253264206D61785F6C3D25640A59
:101CD000006D61785F633D2564206D61785F723DC2
:101CE0002564206D61785F6D617463683D25640AC9
:101CF0000020783D256420793D2564207A3D2564C7
:101D00000A00207061747465726E20666F756E646F
:101D10002061742025642025640A000000F000F88A
:101D200001FC03FE07FE07FE07FE07FC03F801F0B7
:101D300000000073697A656F6628746F74616C299E
:101D40003D25640A0073697A656F6628626C6F636B
:101D50006B5F627566666572293D25640A00787955
:101D60007A63616C5F6D656173737572655F6C65D5
:101D70006176650A00706F696E743D256420783D58
:101D8000256420793D2564207A3D25640A005802A7
:101D90005802584D584DB004F055F055B0047879BC
:101DA0007A63616C5F66696E645F6265645F696EC9
:101DB00064756374696F6E5F73656E736F725F7065
:101DC0006F696E745F787920783D256C6420793D69
:101DD000256C64207A3D256C640A00203C20005765
:101DE00041524E494E473A2046726F6E7420706FD2
:101DF000696E74206E6F7420726561636861626CD5
:101E0000652E205920636F6F7264696E6174653A44
:101E10000000000040410000C04000005C430000A2
:101E2000C04000005C430000464300004041000009
:101E30004643497465726174696F6E3A200043616C
:101E40006C6962726174696F6E206661696C656449
:101E50002120436865636B20746865206178657331
:101E600020616E642072756E20616761696E2E005C
:101E7000256920686F757273202569206D696E75FC
:101E80007465730054494D454F55543A004D3131F6
:101E9000300046756C6C205258204275666665723B
:101EA000006673656E736F725F726573746F7265CF
:101EB0005F7072696E745F616E645F636F6E746988
:101EC0006E75650A0044495341424C45440A004539
:101ED0004E41424C4544004653656E736F72202557
:101EE000530A00504154393132355F696E69743A92
:101EF000256868750A00504154393132355F696E82
:101F000069743A256868750A005041543931323590
:101F1000206E6F7420726573706F6E64696E6720D7
:101F200028256429210A00446F6E65207072696E4D
:101F300074696E672066696C65005072696E7465BD
:101F4000722073746F707065642064756520746F9F
:101F5000206572726F72732E2046697820746865EE
:101F6000206572726F7220616E6420757365204DFA
:101F700039393920746F20726573746172742E2040
:101F80002854656D7065726174757265206973207F
:101F900072657365742E20536574206974206166C0
:101FA0007465722072657374617274696E6729005A
:101FB0004E6F204C696E65204E756D62657220779C
:101FC00069746820636865636B73756D2C204C6160
:101FD0007374204C696E653A20004E6F204368652B
:101FE000636B73756D2077697468206C696E65200A
:101FF0006E756D6265722C204C617374204C696E35
:10200000653A2000636865636B73756D206D697355
:102010006D617463682C204C617374204C696E652B
:102020003A20004C696E65204E756D6265722069BC
:1020300073206E6F74204C617374204C696E652040
:102040004E756D6265722B312C204C617374204C7F
:10205000696E653A20006673656E736F725F6175B5
:10206000746F6C6F61645F636865636B5F737461E9
:102070007274202D206175746F6C6F616420454E01
:1020800041424C45440A006673656E736F725F612E
:1020900075746F6C6F61645F636865636B5F7374A5
:1020A0006F70202D206175746F6C6F6164204449DE
:1020B0005341424C45440A0053544F505045442E1E
:1020C000200053657474696E67732053746F726572
:1020D000640053746F7265642073657474696E670D
:1020E0007320726574726965766564004861726414
:1020F000636F6465642044656661756C7420536524
:102100007474696E6773204C6F6164656400563245
:1021100000000000C8420000C8420000C8430000A0
:102120008C43000048430000484300004041000049
:10213000F042E8030000E8030000C8000000881334
:10214000000000409C4400409C440000000000004F
:102150000000204E00000000204100002041CDCCB6
:10216000CC3E000020400000000000000000000005
:102170000000CDCCCC3E3D0A8141FF08433EB099E2
:10218000AB438F42FC42E65A343F4C62B0450000FC
:102190000000004040000034420000000000000049
:1021A0000000000041000000E03F0000C8420000C5
:1021B000C842000040410000F042C0030000C003DC
:1021C0000000C800000088130000454550524F4DE4
:1021D000204572726F7200436F6E74696E75652070
:1021E0007769746820616E6F7468657220626F77BA
:1021F00064656E3F00250020202020202000202044
:10220000202020200045524153494E4720616C6CEC
:10221000206461746100466163746F727920524575
:102220005345540000007F43008054430000524354
:1022300000000000000080C09A99193E00000000D4
:10224000000080C09A99193E544D4320445249568B
:102250004552204F56455254454D50002563253375
:10226000642F25642563005A25362E326620005AD5
:102270002020202D2D2D20002563253364252500C9
:102280002D2D2D00253368686400253353253373C5
:1022900025250020534400202020005553420020D3
:1022A000463020200025632D2D3A2D2D202000259D
:1022B0006325337568202563256300256325303247
:1022C000753A253032752563256300726573756C28
:1022D000742076616C75653A2025640A0020693D9A
:1022E00025326420636E743D2532642076616C3D36
:1022F0002532640A00636C7573746572733A0A0060
:1023000020693D25326420737465703D2532640A6E
:1023100000736F727465642073616D706C65733ADD
:102320000A000A5541525432205258203078253242
:10233000582025325820253258202532580A000AC4
:10234000554152543220525820504C20307825327A
:10235000582025325820253258202532580A000AA4
:102360005541525432205458203078374620256346
:102370002C25632C25632025325837460A003A2045
:10238000002020202020202020202020202020206D
:102390002020202000203A20002020202020202063
:1023A000202020202020202020202020200020204D
:1023B00020202020202020202020200025730050D5
:1023C000494E44412048656174696E670054656DEB
:1023D000702E2063616C2E202020202020202020C1
:1023E000200043616C6962726174696F6E20646F72
:1023F0006E650043616C6962726174696E67205A30
:102400000042656420646F6E650042656420486523
:102410006174696E670048656174696E6720646FF6
:102420006E652E0048656174696E670024F4D430CF
:1024300050C38E20C2A24017828B7011127A910D68
:10244000816CD90AA861E108C75866076151430643
:102450001E4B5D05C145A7041A411104093D9803AF
:10246000713931034036DB0265339102D4305402B6
:10247000802E1D02632CEE01752AC501B028A00133
:10248000102781018F2564012B244B01E0223401A8
:10249000AC211F018D200D01801FFC00841EED006A
:1024A000971DDF00B81CD200E61BC600201BBC0035
:1024B000641AB200B219A8000A19A0006A1899009B
:1024C000D117910040178B00B516840031167E009D
:1024D000B31579003A157300C7146F0058146A00D9
:1024E000EE1366008813630025135E00C7125B00BD
:1024F0006C12570015125400C111510070114F0099
:1025000021114B00D61049008D10470046104400A1
:1025100002104200C00F4000800F3E00420F3C00FE
:10252000060F3B00CB0E3800930E37005C0E3500D3
:10253000270E3400F30D3200C10D3100900D300034
:10254000600D2E00320D2D00050D2C00D90C2B0036
:10255000AE0C2900850C29005C0C2700350C2700E7
:102560000E0C2600E80B2400C40B2400A00B230053
:102570007D0B23005A0B2100390B2100180B200082
:10258000F80A1F00D90A1E00BB0A1E009D0A1D0082
:10259000800A1D00630A1C00470A1B002C0A1B004E
:1025A000110A1A00F7091A00DD091900C4091900F7
:1025B000AB091900920917007B091800630917007D
:1025C0004C09160036091600200916000A091500E4
:1025D000F5081500E0081400CC081400B808140031
:1025E000A4081400900813007D0812006B08130063
:1025F0005808120046081200340811002308110080
:102600001208110001081100F0071000E007100087
:10261000D0071000C0071000B0070F00A10710007E
:1026200091070E0083070F0074070F0065070E0067
:1026300057070E0049070E003B070D002E070E003E
:1026400020070D0013070D0006070D00F9060C000A
:10265000ED060D00E0060C00D4060C00C8060C00C8
:10266000BC060C00B0060C00A4060B0099060C007A
:102670008D060B0082060B0077060B006C060B0024
:1026800061060A0057060B004C060A0042060A00C3
:1026900038060A002E060A0024060A001A060A0056
:1026A0001006090007060A00FD050900F4050900E7
:1026B000EB050900E2050900D9050900D00509006C
:1026C000C7050900BE050900B5050800AD050800ED
:1026D000A50509009C050800940508008C05080064
:1026E000840508007C050800740508006C050700D7
:1026F000650508005D050700560508004E05070042
:1027000047050700400508003805070031050700A8
:102710002A050700230507001C050600160507000B
:102720000F0507000805060002050700FB04060068
:10273000F5040700EE040600E8040600E2040700C2
:10274000DB040600D5040600CF040600C904060019
:10275000C3040600BD040600B7040600B10405006A
:10276000AC040600A6040600A00405009B040600B5
:1027700095040500900406008A0405008504050000
:10278000800406007A040500750405007004050045
:102790006B04050066040500610405005C04050087
:1027A00057040500520405004D04050048040500C7
:1027B000430405003E0404003A0405003504050006
:1027C000300404002C040500270404002304050041
:1027D0001E0404001A040400160405001104040079
:1027E0000D040400090405000404040000040400AE
:1027F000FC030400F8030400F4030400F0030400E5
:10280000EC030400E8030400E4030400E003040014
:10281000DC030400D8030400D4030400D003040044
:10282000CC030400C8030300C503030024F404D947
:10283000201BC40C5C0E9804C4095F02650771017B
:10284000F405F900FB04B30048048700C1036900E4
:102850005803550003034500BE023A0084023100CC
:1028600053022A002902250004022000E4011C0072
:10287000C8011900AF01170098011400840113006A
:10288000710110006101100051010E0043010D00A3
:1028900036010B002B010B0020010B001501090074
:1028A0000C01090003010800FB000800F300080008
:1028B000EB000700E4000600DE000600D80006007A
:1028C000D2000600CC000500C7000500C2000500CC
:1028D000BD000400B9000400B5000400B10004000C
:1028E000AD000400A9000400A5000300A20003003D
:1028F0009F0004009B000300980003009500020065
:1029000093000300900003008D0002008B00030081
:10291000880002008600020084000300810002009B
:102920007F0002007D0002007B00020079000200AF
:1029300077000100760002007400020072000100BE
:10294000710002006F0002006D0001006C000200C7
:102950006A000100690002006700010066000100D2
:1029600065000100640002006200010061000100D6
:10297000600001005F0002005D0001005C000100DA
:102980005B0001005A0001005900010058000100DD
:1029900057000100560001005500010054000100DD
:1029A00053000000530001005200010051000100DB
:1029B000500001004F0001004E0000004E000100D9
:1029C0004D0001004C0001004B0000004B000100D5
:1029D0004A000100490001004800000048000100D1
:1029E00047000100460000004600010045000000CD
:1029F00045000100440001004300000043000100C5
:102A000042000000420001004100000041000100BE
:102A1000400001003F0000003F0001003E000000B8
:102A20003E0001003D0000003D0001003C000000B0
:102A30003C0000003C0001003B0000003B000100A6
:102A40003A0000003A00010039000000390001009E
:102A50003800000038000000380001003700000096
:102A6000370001003600000036000000360001008B
:102A70003500000035000000350001003400000082
:102A80003400000034000100330000003300000077
:102A9000330001003200000032000000320001006B
:102AA0003100000031000000310001003000000062
:102AB00030000000300001002F0000002F00000057
:102AC0002F0000002F0001002E0000002E0000004B
:102AD0002E0001002D0000002D0000002D00000040
:102AE0002D0001002C0000002C0000002C00000034
:102AF0002C0001002B0000002B0000002B00000028
:102B00002B0001002A0000002A0000002A0000001B
:102B10002A0001002900000029000000290000000F
:102B20002900000029000100280000002800000002
:102B300028000000280000002800010027000000F5
:102B400027000000270000002700000027000100E8
:102B500026000000260000002600000026000000DD
:102B600026000100250000002500000025000000CF
:102B700025000000250000002500010024000000C1
:102B800024000000240000002400000024000100B4
:102B900023000000230000002300000023000000A9
:102BA0002300000023000000230001002200000099
:102BB000220000002200000022000000220000008D
:102BC000220001002100000021000000210000007F
:102BD0002100000021000000210000002100010070
:102BE0002000000020000000200000002000000065
:102BF0002000000020000000200000002000010054
:102C00001F0000001F0000001F0000001F00000048
:102C10001F0000001F0000001F0001001E00000038
:102C20001E0000001E0000001E0000000000211019
:102C3000422063308440A550C660E7700881299126
:102C40004AA16BB18CC1ADD1CEE1EFF131121002CE
:102C500073325222B5529442F772D6623993188376
:102C60007BB35AA3BDD39CC3FFF3DEE3622443349A
:102C700020040114E664C774A44485546AA54BB5C6
:102C800028850995EEE5CFF5ACC58DD5533672266E
:102C900011163006D776F6669556B4465BB77AA716
:102CA00019973887DFF7FEE79DD7BCC7C448E558BA
:102CB0008668A7784008611802282338CCC9EDD966
:102CC0008EE9AFF9488969990AA92BB9F55AD44A0E
:102CD000B77A966A711A500A333A122AFDDBDCCBB6
:102CE000BFFB9EEB799B588B3BBB1AABA66C877CDA
:102CF000E44CC55C222C033C600C411CAEED8FFD06
:102D0000ECCDCDDD2AAD0BBD688D499D977EB66EAD
:102D1000D55EF44E133E322E511E700E9FFFBEEF55
:102D2000DDDFFCCF1BBF3AAF599F788F8891A98117
:102D3000CAB1EBA10CD12DC14EF16FE18010A10001
:102D4000C230E3200450254046706760B9839893F1
:102D5000FBA3DAB33DC31CD37FE35EF3B102901251
:102D6000F322D2323542145277625672EAB5CBA5BD
:102D7000A89589856EF54FE52CD50DC5E234C324A1
:102D8000A01481046674476424540544DBA7FAB791
:102D90009987B8975FE77EF71DC73CD7D326F236F1
:102DA0009106B01657667676154634564CD96DC9DD
:102DB0000EF92FE9C899E9898AB9ABA94458654841
:102DC00006782768C018E1088238A3287DCB5CDB31
:102DD0003FEB1EFBF98BD89BBBAB9ABB754A545A91
:102DE000376A167AF10AD01AB32A923A2EFD0FEDFD
:102DF0006CDD4DCDAABD8BADE89DC98D267C076CE1
:102E0000645C454CA23C832CE01CC10C1FEF3EFFD0
:102E10005DCF7CDF9BAFBABFD98FF89F176E367E30
:102E2000554E745E932EB23ED10EF01E7C3C3E5E3B
:102E30002B3D3F2F5B5D3B2C2A225C0022206661EC
:102E4000696C65643A204275666665722066756CC9
:102E50006C21002200656E717565696E6720220025
:102E600020423A0020453A00543A00494E5434007A
:102E70007265636F7665725F6D616368696E655FC9
:102E800073746174655F61667465725F706F776596
:102E9000725F70616E69632C20696E697469616C20
:102EA00020007265636F7665725F6D616368696E3D
:102EB000655F73746174655F61667465725F706F7E
:102EC0007765725F70616E69632C20696E697469E1
:102ED000616C200047393220450050525553412043
:102EE00075766C6F004734205330004D32362053D6
:102EF000256C75004D3130362053004D3832004777
:102F000031204625640047312045322A64656661D8
:102F1000756C745F72657472616374696F6E20465C
:102F2000343830004731205A0020463230303000EB
:102F300020590047312058004D383300506F7369D5
:102F400074696F6E20726561642066726F6D2065B2
:102F50006570726F6D3A004D3233202573002E6715
:102F6000636F0046656564726174653A004731209D
:102F7000452D64656661756C745F7265747261631A
:102F800074696F6E20463438300047312045352053
:102F900046313230004D3833004D31393020532521
:102FA00064004D31303920532564004732382058B1
:102FB0002059004731205A323520463830300062DF
:102FC0007573793A2070617573656420666F72203D
:102FD000696E70757400627573793A2070617573EB
:102FE000656420666F72207573657200627573790F
:102FF0003A2070726F63657373696E6700204600D4
:103000004731205A0020460047312045004D3833D3
:10301000006F6B0A0055564C4F202D20656E6420C2
:1030200025640A007374707325640A00776F726CEC
:103030006420636F6F7264696E617465733A2028EF
:10304000252E33662C20252E33662C20252E336624
:10305000290A00706879736963616C20636F6F720D
:1030600064696E617465733A2028252E33662C20BE
:10307000252E33662C20252E3366290A00437572CF
:1030800072656E7420706F73205A5F415849533ACD
:10309000252E33660A43757272656E7420706F73E5
:1030A00020455F415849533A252E33660A00416650
:1030B0007465722077616974696E6720666F72202B
:1030C00074656D703A0A43757272656E7420706F24
:1030D0007320585F415849533A252E33660A437589
:1030E0007272656E7420706F7320595F4158495336
:1030F0003A252E33660A005265636F766572696EF3
:1031000067207072696E742020202000566F6C74E6
:10311000616765730054656D706572617475726581
:10312000730042656C742073746174757300457824
:1031300074727564657220696E666F0058595A2002
:1031400063616C2E2064657461696C730046696C00
:10315000616D656E7420657874727564696E672040
:1031600026207769746820636F72726563742063C8
:103170006F6C6F723F00507265686561742074688F
:1031800065206E6F7A7A6C6521004552524F523A33
:10319000004175746F6C6F6164696E672066696C5D
:1031A000616D656E74206973206163746976652C46
:1031B000206A75737420707265737320746865205B
:1031C0006B6E6F6220616E6420696E73657274202D
:1031D00066696C616D656E742E2E2E00546F74617D
:1031E0006C207072696E742074696D6500546F7420
:1031F000616C2066696C616D656E74005072696EF9
:10320000742074696D650046696C616D656E74202B
:1032100075736564005269676874004C6566740074
:10322000592064697374616E63652066726F6D20E6
:103230006D696E0053657665726520736B65770006
:10324000536C6967687420736B6577004D656173B3
:103250007572656420736B6577005B303B305D2071
:10326000706F696E74206F66667365740041646A7E
:10327000757374696E67205A0052657365740052E5
:103280006561722073696465205B756D5D004672CF
:103290006F6E7420736964655B756D5D005269675C
:1032A000687420736964655B756D5D004C65667458
:1032B0002073696465205B756D5D005365742074CF
:1032C000656D70657261747572653A00466C617304
:1032D0006841697220495020416464723A004D4D42
:1032E0005532202020202020204E2F41004D4D55CA
:1032F00032202020202020204E2F41002D2D2D2D4A
:103300002D2D2D2D2D2D2D2D00207265706F20550A
:103310006E6B6E6F776E0020352E302E342D545A22
:10332000422D39393939004669726D776172653AD3
:103330000025642E25642E25642E2564004D37302B
:1033400032004D3730310045787472756465720013
:103350006D6D000059005800580059005A0025634F
:10336000252E3132533A2573252B30362E33660005
:103370001B5B324A2553203A1B5B313B39482538C9
:103380002E3266206D0A2553203A0A25376C646474
:10339000203A253268686468203A253032686864CB
:1033A000206D001B5B324A25533A1B5B313B36488C
:1033B00025382E32666D200A2553203A1B5B333B9D
:1033C00038482532646820253032646D202530323B
:1033D00064730025362E32666D6D004E2F41001B42
:1033E0005B303B304825533A0A25530A25533A0AA5
:1033F00025533A001B5B303B3135484E2F41001BB3
:103400005B303B31354825342E326601001B5B3082
:103410003B304825533A0A25530A25533A202025A4
:10342000352E3266010A25533A202025352E326684
:10343000010052756E6E696E672057697A61726419
:103440002077696C6C2064656C65746520637572A7
:1034500072656E742063616C6962726174696F6E0B
:1034600020726573756C747320616E64207374616F
:1034700072742066726F6D2074686520626567697A
:103480006E6E696E672E20436F6E74696E75653F50
:103490000050726568656174696E67206E6F7A7A34
:1034A0006C652E20506C6561736520776169742EA0
:1034B000004C6F6164696E672066696C616D656E52
:1034C0007400506C6561736520696E736572742059
:1034D000504C412066696C616D656E7420746F207C
:1034E0007468652065787472756465722C207468E0
:1034F000656E207072657373206B6E6F6220746FDF
:10350000206C6F61642069742E00596F75206361AF
:103510006E20616C7761797320726573756D6520BB
:103520007468652057697A6172642066726F6D20D5
:1035300043616C6962726174696F6E202D3E205721
:10354000697A6172642E00506C65617365206368EE
:1035500065636B206F75722068616E64626F6F6B5C
:1035600020616E6420666978207468652070726FCF
:10357000626C656D2E205468656E20726573756D82
:1035800065207468652057697A61726420627920C9
:103590007265626F6F74696E6720746865207072FF
:1035A000696E7465722E00416C6C20697320646FC3
:1035B0006E652E204861707079207072696E746932
:1035C0006E672100506C6561736520636C65616E88
:1035D000206865617462656420616E64207468654A
:1035E0006E20707265737320746865206B6E6F62F5
:1035F0002E00446F20796F752077616E7420746F90
:1036000020726570656174206C61737420737465D9
:103610007020746F20726561646A757374206469C8
:103620007374616E6365206265747765656E206E84
:103630006F7A7A6C6520616E64206865617462657A
:10364000643F00492077696C6C2073746172742048
:10365000746F207072696E74206C696E6520616E83
:103660006420796F752077696C6C2067726164756E
:10367000616C6C79206C6F77657220746865206E60
:103680006F7A7A6C6520627920726F746174696EEA
:103690006720746865206B6E6F622C20756E74698C
:1036A0006C20796F75207265616368206F70746932
:1036B0006D616C206865696768742E204368656376
:1036C0006B20746865207069637475726573206916
:1036D0006E206F75722068616E64626F6F6B206917
:1036E0006E20636861707465722043616C696272F8
:1036F0006174696F6E2E004E6F7720492077696C78
:103700006C2063616C6962726174652064697374B2
:10371000616E6365206265747765656E207469709B
:10372000206F6620746865206E6F7A7A6C65206100
:103730006E64206865617462656420737572666189
:1037400063652E00497320697420504C41206669DE
:103750006C616D656E743F0053656C656374206EBB
:103760006F7A7A6C65207072656865617420746523
:103770006D70657261747572652077686963682021
:103780006D61746368657320796F7572206D617403
:10379000657269616C2E004E6F7720492077696CE5
:1037A0006C2070726568656174206E6F7A7A6C65E2
:1037B00020666F7220504C412E0049732066696C60
:1037C000616D656E74206C6F616465643F004E6F5F
:1037D0007720492077696C6C207072656865617428
:1037E000206E6F7A7A6C6520666F7220504C412E85
:1037F00000492077696C6C2072756E207A206361B5
:103800006C6962726174696F6E206E6F772E004E04
:103810006F772072656D6F766520746865207465BA
:103820007374207072696E742066726F6D20737489
:1038300065656C2073686565742E00506C656173F6
:10384000652072656D6F7665207368697070696E4A
:10385000672068656C706572732066697273742E78
:1038600000492077696C6C2072756E2078797A2017
:1038700063616C6962726174696F6E206E6F772E1E
:103880002049742077696C6C2074616B65206170CD
:1038900070726F782E203132206D696E732E004663
:1038A000697273742C20492077696C6C2072756E74
:1038B000207468652073656C667465737420746F1A
:1038C00020636865636B206D6F737420636F6D6D2B
:1038D0006F6E20617373656D626C792070726F62B8
:1038E0006C656D732E0048692C204920616D20792C
:1038F0006F7572204F726967696E616C20507275C6
:103900007361206933207072696E7465722E20575E
:103910006F756C6420796F75206C696B65206D65BF
:1039200020746F20677569646520796F75207468ED
:10393000726F756768207468652073657475702090
:1039400070726F636573733F00452D636F727265AC
:103950006374005A2D636F727265637400592D632E
:103960006F727265637400582D636F727265637451
:1039700000536F756E642020202020205B6C6F75D3
:10398000645D00536F756E642020202020205B6DE5
:103990007574655D00536F756E64202020205B7325
:1039A000696C656E745D00536F756E642020202015
:1039B00020205B6F6E63655D00536F756E64202021
:1039C000202020205B6C6F75645D00536F72743A29
:1039D0002020202020205B6E6F6E655D00536F728B
:1039E000743A20205B616C7068616265745D00539D
:1039F0006F72743A2020202020205B74696D655D11
:103A0000005344206361726420205B6E6F726D61AD
:103A10006C5D0053442063617264205B666C736864
:103A20004169725D0052506920706F7274202020CD
:103A300020205B6F6E5D0052506920706F727420A1
:103A40002020205B6F66665D0054656D702E2063DC
:103A5000616C2E2020205B6F6E5D0054656D702EB2
:103A60002063616C2E20205B6F66665D004C696E82
:103A70002E20636F7272656374696F6E0046616EAB
:103A80007320636865636B20205B6F66665D00462C
:103A9000616E7320636865636B2020205B6F6E5DD1
:103AA00000462E206175746F6C6F6164205B6F66D9
:103AB000665D00462E206175746F6C6F6164202016
:103AC0005B6F6E5D00462E206175746F6C6F616474
:103AD000205B4E2F415D0046696C2E2073656E732E
:103AE0006F72205B4E2F415D0044697361626C65AB
:103AF000207374657070657273004D6F7665206118
:103B00007869730054656D706572617475726500D3
:103B100054656D702E2063616C6962726174696FA7
:103B20006E0052657365742058595A2063616C6940
:103B300062722E0053686F772070696E6461207323
:103B400074617465005049442063616C69627261FC
:103B500074696F6E00426564206C6576656C2063E5
:103B60006F7272656374004D6573682042656420EE
:103B70004C6576656C696E670043616C6962726161
:103B80007465205A0043616C6962726174652058E3
:103B9000595A0053656C6674657374202020202088
:103BA00020202020004669727374206C6179657250
:103BB0002063616C2E0057697A617264004C6F61FA
:103BC000642066696C616D656E742034004C6F61B1
:103BD000642066696C616D656E742033004C6F61A2
:103BE000642066696C616D656E742032004C6F6193
:103BF000642066696C616D656E742031004C6F6184
:103C00006420616C6C004C6F61642066696C616D4E
:103C1000656E742035004C6F61642066696C616D5F
:103C2000656E742034004C6F61642066696C616D50
:103C3000656E742033004C6F61642066696C616D41
:103C4000656E742032004C6F61642066696C616D32
:103C5000656E74203100456A6563742066696C6125
:103C60006D656E74203500456A6563742066696C05
:103C7000616D656E74203400456A65637420666901
:103C80006C616D656E74203300456A6563742066EF
:103C9000696C616D656E74203200456A65637420DD
:103CA00066696C616D656E74203100506C6561737E
:103CB000652070756C6C206F75742066696C616D21
:103CC000656E7420696D6D6564696174656C7900F9
:103CD000556E6C6F6164696E672066696C616D65B5
:103CE0006E740057697A61726420656E6420737423
:103CF0006174653A2025640A0057697A617264200C
:103D000073746174653A2025640044697361626C60
:103D100065206661726D206D6F6465004661726D2D
:103D2000206E756D626572004D3834004D3434007C
:103D30004732382057004739390044697361626C53
:103D400065206661726D206D6F64653F0043686F2A
:103D50006F736520636F6C6F723A00526573656EA6
:103D6000640048656174696E672064697361626CA0
:103D70006564206279207361666574792074696D69
:103D800065722E004B494C4C45442E200050726900
:103D90006E7465722068616C7465642E206B696C4A
:103DA0006C28292063616C6C656421004D313034CE
:103DB00020496E76616C69642065787472756465FB
:103DC0007220004D31303520496E76616C69642077
:103DD000657874727564657220004D313039204900
:103DE0006E76616C696420657874727564657220A2
:103DF000004D32313820496E76616C6964206578F7
:103E000074727564657220004D32323120496E76CD
:103E1000616C696420657874727564657220002530
:103E2000533A20256C640A25530A002079645F6D9B
:103E3000696E3D25752079645F6D61783D2575203B
:103E400079645F6176673D25752073685F61766789
:103E50003D25750A002073745F73756D3D257520CF
:103E600079645F73756D3D25752065725F73756D3F
:103E70003D25752065725F6D61783D256868750A1E
:103E800000004B494C4C3A2025640A006673656E6D
:103E9000736F725F6F715F6D656173737572655F6C
:103EA00073746F702C20256868752073616D706C59
:103EB00065730A006673656E736F725F6F715F6D15
:103EC000656173737572655F73746172740A0066FD
:103ED00073656E736F725F73746F705F616E645F32
:103EE000736176655F7072696E740A004D363030AA
:103EF000004653454E534F525F5245434F5645522D
:103F0000006673656E736F725F75706461746520AF
:103F10002D204D3630300A006673656E736F725F08
:103F20006572725F636E74203D20300A0047312055
:103F30004533204632303000473120452D3320466E
:103F4000323030004D3730310020573A0020453AAA
:103F500000543A005A206C6976652061646A757372
:103F600074206F7574206F662072616E67652E20F5
:103F700053657474696E6720746F20302E20436C13
:103F800069636B20746F20636F6E74696E75652E44
:103F9000005A206C6976652061646A757374206FBD
:103FA0007574206F662072616E67652E205365748C
:103FB00074696E6720746F20300043757272656E8D
:103FC00074005573656420647572696E6720707241
:103FD000696E74005049442063616C2E2066696EDE
:103FE0006973686564005049442063616C2E202029
:103FF00020202020202020202000506C6561736547
:104000002077616974004D313137204669727374CD
:10401000206C617965722063616C2E005072696E4C
:10402000742070617573656400496E76616C6964B3
:10403000205049442063616C2E20726573756C7446
:10404000732E204E6F742073746F72656420746FCA
:1040500020454550524F4D2E004D353030004731F0
:10406000205A31352046313530300047393100474C
:1040700031205835302059313930204530204637ED
:1040800030303000473930004D373032004D373056
:10409000322043004D3730322055004D373032004A
:1040A0004731205A313520463135303000473931DB
:1040B00000473120583530205931393020453020E3
:1040C0004637303030004D383300473930004D38F6
:1040D00034004D313034205330004D3834004731F6
:1040E00020583130205931383020463430303000BB
:1040F0004731205A31302046313330302E30303085
:10410000004D313430205330004D313034205330A5
:1041100000473120452D302E3037353030204632A3
:104120003130302E3030303030004D3130370047B4
:104130003120583530205935352045332E36323729
:10414000373300473120583230302059353520453B
:10415000302E343933383600473120583230302051
:104160005937352045332E36323737330047312023
:10417000583530205937352045302E3439333836CC
:1041800000473120583530205939352045332E36F7
:1041900032373733004731205832303020593935E3
:1041A0002045302E343933383600473120583230EC
:1041B0003020593131352045332E363237373300F0
:1041C00047312058353020593131352045302E3493
:1041D000393338360047312058353020593133359E
:1041E0002045332E363237373300473120583230AE
:1041F0003020593133352045302E363631373400B2
:104200004731205832303020593135352045322E53
:10421000363237373300473120583130302059316A
:104220003535204532004731205837352059313552
:10423000352045322E3500473120463130383000A8
:104240004731205A302E3135302046373230302E2B
:104250003030300047312058353020593135350065
:104260004731204634303030004D32303420533125
:10427000303030004731205A352046373230302E2A
:1042800030303000473120452D312E353030303040
:104290002046323130302E3030303030004D38331F
:1042A0000047393000473231004739322045302E3F
:1042B0003000473120583130302E30204531322EF9
:1042C000352046313030302E3000473120583630DE
:1042D0002E302045392E302046313030302E3000FF
:1042E0004739322045302E3000473238004D3130CA
:1042F000392053323135004D3139302053363000BA
:104300004D31343020533630004D3130342053326B
:104310003135004D3130370020003E003E00200096
:104320003E003E0054656D70657261747572652063
:1043300063616C6962726174696F6E206661696C39
:1043400065642E20436F6E74696E7565207769749D
:1043500068207072657373696E6720746865206B7E
:104360006E6F622E0054656D706572617475726552
:104370002063616C6962726174696F6E20646F6E34
:10438000652E20436F6E74696E7565207769746859
:10439000207072657373696E6720746865206B6E38
:1043A0006F622E005A3020284C4544206F6E292021
:1043B000005A3120284C4544206F66662900502E53
:1043C000492E4E2E442E412E207374617465004791
:1043D0003830004D3435004D3435205A00473736DB
:1043E0000054656D70657261747572652063616CEF
:1043F0006962726174696F6E206661696C656400E0
:1044000054656D70657261747572652063616C6965
:1044100062726174696F6E2069732066696E697378
:1044200068656420616E64206163746976652E201E
:1044300054656D702E2063616C6962726174696F7E
:104440006E2063616E2062652064697361626C65D1
:104450006420696E206D656E752053657474696E95
:1044600067732D3E54656D702E2063616C2E004580
:1044700078747275646572004D6F7665205A004DD0
:104480006F76652059004D6F76652058001B5B32B2
:104490004A437261736820646574656374696F6E02
:1044A0002063616E1B5B313B30486265207475721E
:1044B0006E6564206F6E206F6E6C7920696E1B5B79
:1044C000323B30484E6F726D616C206D6F646500D9
:1044D0001B5B324A5741524E494E473A1B5B313BB8
:1044E0003048437261736820646574656374696FF2
:1044F0006E1B5B323B304864697361626C6564209B
:10450000696E1B5B333B3048537465616C74682083
:104510006D6F6465004175746F6C6F6164696E677F
:104520002066696C616D656E7420617661696C618D
:10453000626C65206F6E6C79207768656E206669A5
:104540006C616D656E742073656E736F7220697334
:10455000207475726E6564206F6E2E2E2E0045528B
:10456000524F523A2046696C616D656E74207365D6
:104570006E736F72206973206E6F74207265737032
:104580006F6E64696E672C20706C65617365206363
:104590006865636B20636F6E6E656374696F6E2E02
:1045A0000043616C69627261746500506C6561738F
:1045B00065206C6F616420504C412066696C616DB0
:1045C000656E742066697273742E00497320504CB6
:1045D000412066696C616D656E74206C6F61646505
:1045E000643F0046696C616D656E7400000E1315C2
:1045F000110E00000004120912040000001C1F111B
:10460000111F00000006191803130C00040E1F04EC
:104610001C000000040A0A0A0A11110E001F1511DD
:10462000151F0000000103161C0800000000110AFD
:1046300004110A040C12120C000000002563252D41
:104640003138532563002563252E3135533A2573C0
:10465000253364002563252E3132533A2573250016
:10466000457872656D65207370616E206F66207489
:104670006865205A2076616C7565732100000040E2
:1046800041000000400000E44200000040000057EC
:104690004300000040000057430000C4420000E413
:1046A000420000C442000040410000C442000040FB
:1046B00041000042430000E4420000424300005732
:1046C0004300004243205B6F66665D0042656420E4
:1046D0006C6576656C696E67206661696C65642ED1
:1046E0002053656E736F72206469646E74207472F7
:1046F00069676765722E20446562726973206F6E08
:10470000206E6F7A7A6C653F2057616974696E67B5
:1047100020666F722072657365742E001000C902E6
:1047200010012C014001220170011801B0010E019D
:10473000F00104015002FA00B002F0003003E6007C
:10474000D003DC009004D2007005C800A006BE00B3
:104750000008B400B009AA00D00BA000600E9600BB
:1047600060118C000015820020197800C01D6E00B9
:10477000A0226400B0275A00902C5000003146005F
:10478000E0343C0010383200903A2800603C1E00B3
:10479000A03D1400803E0A00203F000070012C0163
:1047A00090012701B0012201C0011D01F001180193
:1047B0001002130130020E0160020901900204018F
:1047C000C002FF000003FA004003F5008003F00080
:1047D000D003EB002004E6007004E100E004DC00FC
:1047E0004005D700C005D2004006CD00D006C80065
:1047F0008007C3003008BE00F008B900C009B4004B
:10480000B00AAF00B00BAA00D00CA500000EA000AB
:10481000500F9B00C01096005012910000148C00A5
:10482000C0158700B0178200B0197D00D01B78003A
:10483000001E730040206E0090226900F024640086
:1048400040275F0090295A00E02B5500102E5000A1
:1048500020304B0010324600E033410090353C00E0
:104860001037370070383200A0392D00B03A2800D8
:10487000A03B2300603C1E00103D1900903D140039
:10488000103E0F00703E0A00C03E0500003F0000D1
:1048900090137D00B0157800F0177300601A6E0059
:1048A000F01C6900A01F640050225F0020255A0000
:1048B000E0275500902A5000202D4B00A02F4600E5
:1048C000F031410010343C00F0353700A0373200A1
:1048D00020392D00603A2800703B2300603C1E0008
:1048E000203D1900C03D1400403E0F00A03E0A00CC
:1048F000F03E0500403F0000703FFBFF903FF6FF99
:10490000B03FF1FFC03FECFFD03FE7FFE03FE2FFE9
:10491000F03FDDFFF03FD8FF20484F54454E442084
:10492000544845524D414C2052554E415741590033
:10493000204845415442454420544845524D414C3D
:104940002052554E4157415900544845524D414C13
:104950002052554E41574159004245442054484544
:10496000524D414C2052554E415741590020544818
:1049700045524D414C2052554E4157415920282017
:104980005052454845415420484F54454E44290013
:1049900020544845524D414C2052554E41574159A3
:1049A0002028205052454845415420484541544212
:1049B0004544290050524548454154204552524FE4
:1049C00052004245442050524548454154204552EA
:1049D000524F52004572723A204D415854454D5045
:1049E000003A204578747275646572207377697433
:1049F00063686564206F66662E204D415854454DAE
:104A00005020747269676765726564202100457281
:104A1000723A204D415854454D502042454400546F
:104A2000656D706572617475726520686561746525
:104A30006420626564207377697463686564206FBD
:104A400066662E204D415854454D5020747269675A
:104A500067657265642021004572723A204D494EA7
:104A600054454D50204245440054656D7065726157
:104A70007475726520686561746564206265642080
:104A80007377697463686564206F66662E204D498C
:104A90004E54454D50207472696767657265642095
:104AA00021004572723A204D494E54454D50003A0E
:104AB00020457874727564657220737769746368D1
:104AC0006564206F66662E204D494E54454D50203A
:104AD000747269676765726564202100746D633262
:104AE0003133305F686F6D655F656E746572286124
:104AF0007865735F6D61736B3D307825303278294E
:104B00000A00746D63323133305F686F6D655F65C5
:104B100078697420746D63323133305F73675F6816
:104B20006F6D696E675F617865735F6D61736B3D13
:104B30003078253032780A00526573756D696E677A
:104B4000207072696E7400537570706F72740046D5
:104B500061696C2073746174730053746174697358
:104B60007469637320200043616C696272617469C7
:104B70006F6E004175746F4C6F61642066696C6183
:104B80006D656E7400556E6C6F61642066696C6152
:104B90006D656E74004C6F61642066696C616D6553
:104BA0006E74004E6F205344206361726400507233
:104BB000696E742066726F6D205344005265737580
:104BC0006D65207072696E74005061757365207038
:104BD00072696E7400507265686561740054756E18
:104BE00065004C6976652061646A757374205A00AB
:104BF000496E666F2073637265656E0046696E6903
:104C00007368696E67206D6F76656D656E7473008D
:104C1000536F756E642020202020205B6C6F7564BC
:104C20005D00536F756E642020202020205B6D7521
:104C300074655D00536F756E64202020205B73697E
:104C40006C656E745D00536F756E642020202020AB
:104C5000205B6F6E63655D00536F756E642020206E
:104C60002020205B6C6F75645D0043726173682067
:104C70006465742E20205B4E2F415D00437261738A
:104C800068206465742E2020205B6F6E5D00437287
:104C9000617368206465742E20205B6F66665D001A
:104CA0004D6F6465202020205B537465616C7468CF
:104CB0005D004D6F646520202020205B4E6F726D7B
:104CC000616C5D0046696C2E2073656E736F722097
:104CD000205B6F6E5D0046696C2E2073656E736F8E
:104CE00072205B6F66665D004368616E6765206673
:104CF000696C616D656E7400466C6F77005370650A
:104D000065640046616E2073706565640042656489
:104D1000004E6F7A7A6C650053657474696E6773C0
:104D2000005072696E742061626F7274656400591C
:104D30006573004E6F0053746F70207072696E74EB
:104D40000046696C6520696E636F6D706C65746593
:104D50002E20436F6E74696E756520616E79776180
:104D6000793F004D61696E004661726D206E756D10
:104D7000626572004D363030004D3234004D3233B2
:104D800020257300052E2E0043616E6E6F74206522
:104D90006E746572207375626469723A20005344C0
:104DA0002063617264206F6B006F70656E526F6F6D
:104DB00074206661696C656400766F6C756D652E34
:104DC000696E6974206661696C656400534420698A
:104DD0006E6974206661696C0057726974696E67E8
:104DE00020746F2066696C653A200046696C652006
:104DF00073656C6563746564002053697A653A2055
:104E00000046696C65206F70656E65643A20001F0E
:104E10001F1F1F1F1F1F1F2E002E004E6F772066A3
:104E2000726573682066696C653A20004E6F772062
:104E3000646F696E672066696C653A200022207095
:104E40006F73002220706172656E743A22005355B0
:104E500042524F5554494E452043414C4C207461B9
:104E6000726765743A2200747279696E6720746F94
:104E70002063616C6C207375622D67636F646520BD
:104E800066696C6573207769746820746F6F206D34
:104E9000616E79206C6576656C732E204D415820CB
:104EA0006C6576656C2069733A00536F7274696E35
:104EB000672066696C657300536F6D652066696C69
:104EC00065732077696C6C206E6F74206265207347
:104ED0006F727465642E204D61782E204E6F2E20E7
:104EE0006F662066696C657320696E203120666F7D
:104EF0006C64657220666F7220736F7274696E677E
:104F0000206973203130302E004D4B33203D3E2040
:104F10004D4D552027533227004D4D55203D3E2005
:104F20004D4B33202725646F6B270A004D4D5520CC
:104F30006E6F7420726573706F6E64696E67202D7A
:104F40002044495341424C4544004D4B33203D3EA3
:104F5000204D4D552027533127004D4D55203D3EC6
:104F6000204D4B332027737461727427004D4D55CB
:104F7000203D3E204D4B3320273078374620256397
:104F80002C25632C2563202532583746270A004DEF
:104F90004D55206C6F6F702C2073746174653D25C6
:104FA000642043504C3D25640A004D4D55207374D8
:104FB0006172747320726573706F6E64696E670AD4
:104FC000004D4D55206E6F7420726573706F6E6466
:104FD000696E670A002F2F20616374696F6E3A6DE6
:104FE0006D75417474656E74696F6E0A000000809F
:104FF0003F555585410000803F0000C8410000003A
:1050000040555505420000C03F00004842000020C6
:105010004055558542000070C1ABAAA64200006011
:10502000C10000A0410000C0C000002041000020DD
:1050300041ABAA3A41000020C15555D54000004877
:10504000C2555505424D373031204530004D37307F
:1050500031204531004D373031204532004D373059
:1050600031204533004D373031204534004D373045
:1050700031204534004D373031204533004D373035
:1050800031204532004D373031204531004D373029
:10509000312045300046696C616D656E74206E721A
:1050A000206F7574206F662072616E6765210077CE
:1050B0003235783230636C5F63666D0A0077323563
:1050C000783230636C5F656E7465720A00504154CB
:1050D000393132355F5245535F593D256868750A4D
:1050E00000504154393132355F5245535F583D25A8
:1050F0006868750A00062833D036C23E013F154164
:1051000032423B43F2443B45F24622473B48F24998
:105110003B4AF05898590C5A085B0C5C08611067C0
:105120009B6E2271077208FF095A0D000EF01904D8
:105130005E0820642B6D322FFF4D4D55204F4B2EB6
:1051400020526573756D696E672E2E2E004D4D557C
:10515000204F4B2E20526573756D696E6720706FFE
:10516000736974696F6E2E2E2E004D4D55204F4B76
:105170002E20526573756D696E672074656D70655C
:105180007261747572652E2E2E00466978207468DF
:105190006520697373756520616E64207468656E3F
:1051A00020707265737320627574746F6E206F6EF9
:1051B000204D4D5520756E69742E005072657373C5
:1051C00020746865206B6E6F6220746F2072657347
:1051D000756D65206E6F7A7A6C652074656D70658B
:1051E0007261747572652E004D4D55206E65656453
:1051F00073207573657220617474656E74696F6E67
:105200002E00506C656173652072656D6F76652048
:1052100066696C616D656E7420616E64207468658A
:105220006E20707265737320746865206B6E6F6298
:105230002E00456A656374696E672066696C616DEE
:10524000656E740025632533642F2564256300464D
:10525000696C616D656E742073656E736F72005357
:105260007761707065640046726F6E742F6C65664E
:10527000742066616E7300417869730041786973C8
:10528000206C656E677468004C6F6F736520707575
:105290006C6C657900456E6473746F70206E6F740A
:1052A0002068697400456E6473746F70004D6F748C
:1052B0006F7200456E6473746F7073005769726922
:1052C0006E67206572726F7200426564202F2048FD
:1052D0006561746572004E6F7420636F6E6E6563F6
:1052E000746564004865617465722F546865726DF9
:1052F0006973746F7200506C6561736520636865D3
:10530000636B203A0053656C667465737420657234
:10531000726F7220210046696C616D656E74207336
:10532000656E736F723A005072696E742066616EBA
:105330003A0045787472756465722066616E3A0051
:1053400053656C6674657374206661696C6564206E
:105350002000416C6C20636F7272656374202020A2
:1053600020202000436865636B696E672073656E5B
:10537000736F72732000436865636B696E672062A8
:105380006564202020202000436865636B696E6798
:10539000205A2061786973202000436865636B6937
:1053A0006E67205920617869732020004368656327
:1053B0006B696E672058206178697320200043680C
:1053C00065636B696E6720686F74656E642020008A
:1053D000436865636B696E6720656E6473746F7094
:1053E00073004572726F72202D207374617469634B
:1053F000206D656D6F727920686173206265656EDE
:10540000206F7665727772697474656E004361729D
:10541000642072656D6F7665640043617264206913
:105420006E736572746564002D2D2D2D2D2D2D2D1F
:105430002D2D2D2D2D2D2D2D2D2D2D2D0043616C40
:105440006962726174696E6720686F6D6500000043
:10545000000000110A04505255534133444657008E
:105460002079303D25640A002078303D25640A000B
:105470004F4B0A004552524F522061643D25640A49
:10548000002020207A303D25640A00207A303D2516
:10549000640A002079303D25640A002078303D25DB
:1054A000640A0078797A63616C5F66696E645F7024
:1054B0006F696E745F63656E746572320A00207482
:1054C0006F6F206C6F6E6720657874727573696F8B
:1054D0006E2070726576656E7465640020636F6C13
:1054E0006420657874727573696F6E20707265766A
:1054F000656E7465640022206661696C65643A209B
:105500004275666665722066756C6C2100456E7129
:105510007565696E6720746F207468652066726FA8
:105520006E743A2022004572726F723A0022004572
:105530006E717565696E6720746F2074686520668A
:10554000726F6E743A2022006563686F3A002E0015
:105550004D3234004D3233202573006175746F2550
:10556000692E67006F70656E206661696C65642CDA
:105570002046696C653A20000000A0400000A04071
:105580000000004025336420737465703D2532644B
:10559000206D73636E743D2534640A0000007F4300
:1055A000008058439AD95143FFFFFF67636F6465DA
:1055B0005F4D37303120626567696E0A00352E30E5
:1055C0002E342D545A42007263006265746100618A
:1055D0006C706861006465760078797A63616C5FED
:1055E00073706972616C322063783D256420637941
:1055F0003D2564207A303D256420647A3D25642071
:105600007261646975733D25642061643D25640A97
:1056100000010210202008081020401020408002C5
:1056200001020108040201010204081020408080E8
:10563000402010080402018004020180402010086C
:105640000402010804020101020408102040800144
:105650000204081020408010080408801020400434
:105660004080102040048000002200250028002BEC
:10567000002E003100340002010000050108010B7A
:105680000105050505070508080808020202020AC7
:105690000A080804040404010101010101010103D5
:1056A00003030303030303040707070C0C0C0C0C90
:1056B0000C0C0C0202020206060606060606060B83
:1056C0000B0B0B0B0B0B0B07070A0A0A0A0A0A053E
:1056D0000505040404080802746D63323133305F39
:1056E000676F746F5F737465702025642025642074
:1056F0002564202564200A0057616974696E67205B
:10570000666F72206E6F7A7A6C6520616E642062BB
:10571000656420636F6F6C696E670053656C66200B
:1057200074657374204F4B0053656C662074657309
:10573000742073746172742020006C63645F7365FD
:105740006C66636865636B5F617869732025642CA0
:105750002025640A004D3834004731205A31352065
:105760004631303030004732382057002563204121
:10577000584953205347313D25640A0041786973E5
:10578000206C656E67746820646966666572656E14
:1057900063653A252E33660A004D6561737572653F
:1057A000642061786973206C656E6774683A252E91
:1057B00033660A004572723A205052494E542046D0
:1057C000414E204552524F52005072696E7420660D
:1057D000616E207370656564206973206C6F7765F6
:1057E00072207468656E2065787065637465640006
:1057F0004572723A20455854522E2046414E20455B
:1058000052524F5200457874727564657220666119
:105810006E207370656564206973206C6F776572A4
:10582000207468656E206578706563746564002F08
:105830002F20616374696F6E3A7061757365000043
:10584000002100240027002A002D00300033000131
:10585000010000040107010A0100002000230026C6
:105860000029002C002F0032000001000003010677
:1058700001090100000A0B02090C0D0E08070304C0
:105880000100000000000000000000000000000017
:1058900000000000000000000000000000000012F6
:1058A00011100000000000000000000000000000D7
:1058B00000000000000000000000000000000000E8
:1058C0000000000000000000002563252E31325347
:1058D0003A2573252B30362E3166002020202020DB
:1058E00020202020202020202020202020202000D8
:1058F0003E003E0020003E003E0020004E6F74201F
:105900007370696E6E696E67005370696E6E696E52
:1059100067004C65667420686F74656E642066610C
:105920006E3F0046726F6E74207072696E742066EE
:10593000616E3F0046616E20746573740046696C49
:105940002E2058643A2533642059643A2533640A7A
:10595000496E743A202533642020536875743A20C8
:105960002533640046696C616D656E742073656EE5
:10597000736F720A69732064697361626C65642E67
:10598000001B5B303B304825533A202534642052BD
:10599000504D0A25533A20202534642052504D0A98
:1059A000005072696E742046414E004E6F7A7A6CD8
:1059B000652046414E0043726173680046696C6120
:1059C0006D2E2072756E6F75747300506F776572EF
:1059D000206661696C7572657300546F74616C2028
:1059E0006661696C75726573004372617368004625
:1059F000696C616D2E2072756E6F75747300506FD7
:105A0000776572206661696C75726573004C6173AD
:105A100074207072696E74206661696C757265734A
:105A200000546F74616C004C617374207072696E05
:105A30007400416D6269656E7400426564004E6F6A
:105A40007A7A6C650042656C742073746174757346
:105A500000436F6F6C646F776E001B5B303B3048A8
:105A600025531B5B313B314825532020252D3364C2
:105A70001B5B323B314825532020252D33641B5BB3
:105A8000333B3148255320205820252D33642020D6
:105A90005920252D3364001B5B303B304825531BB8
:105AA0005B313B314825532020252D33641B5B326D
:105AB0003B314825532020252D33641B5B333B317C
:105AC00048255320205820252D3364202059202597
:105AD0002D3364001B5B323B314825533A2020258F
