:100000000C9450300C9481300C9481300C948130DD
:100010000C9481300C94CB940C9481300C948130EE
:100020000C945C980C9481300D9459640C9481303C
:100030000C9481300D9408250C9481300C948130FF
:100040000C9481300C949DAB0C9481300C948130D5
:100050000C9481300C9481300D94FA020D946686D4
:100060000C9481300C94C4A70C9481300C94813092
:100070000C9481300C9481300C9481300C9481303C
:100080000C9481300C9481300C9481300C9481302C
:100090000C9480A70C9481300C9481300C948130A6
:1000A0000C9481300C9481300C9481300C9481300C
:1000B0000C9481300C9481300C9481300C948130FC
:1000C0000C9481300C9481300C9481300C9410BFCE
:1000D0000C9481300C9481300C9481300C948130DC
:1000E0000C9481301ECC34CC47CC54CC5ECC8CCC20
:1000F000ADCCB3CCC1CCC4CCC6CCD0CCE1CCF2CC52
:100100002601C00160016801A60162017E013C0177
:100110009E01320136016C017601F0015201B201FB
:100120007401BC01F601CC012001D60128012E0189
:100130004A0148017A0182018E019601E2012A01F9
:10014000D2014A0198013801B401DC01C801C6019D
:10015000F201EE01DA018C01E801E601AA01900149
:100160005C0158018801DA018A0122017201084A02
:10017000D73B3BCE016E84BCBFFDC12F3D6C7431BB
:100180009ABD56833DDA3D00C77F11BED9E4BB4C12
:100190003E916BAAAABE000000803F05A84CCDB2DC
:1001A000D44EB93836A9020C50B9918688083CA6BD
:1001B000AAAA2ABE000000803F07634236B79BD838
:1001C000A71A39685618AEBAAB558C1D3CB7CC5738
:1001D00063BD6DEDFD753EF6177231BF0000008006
:1001E0003F08000000BE922449123EABAAAA2ABED4
:1001F000CDCCCC4C3E00000080BEABAAAAAA3E00EB
:10020000000000BF000000803F0000000000084127
:1002100078D3BB4387D1133D190E3CC3BD4282AD99
:100220002B3E68EC8276BED98FE1A93E4C80EFFF71
:10023000BE01C4FF7F3F0000000000000D94512468
:100240000D949A810D9472840D94070B0D947A2C61
:100250000D948D810D94BA810D94AC890D94938188
:100260000D94760B0D94F22C0D94AE0A0D94092D7D
:100270000D94C8810D946F290D94D62C0D945E8A2F
:100280000D94D50A0D94B50A0D94EF150D9432878F
:100290000D949E810D94D1810D94EA890D94E4878B
:1002A0000D94A8120D940E630D94B20B0D94791257
:1002B0000D9454840D9458170D9445840D94CA0CD4
:1002C0000D948E2C0D94C22C0D94248A0D94660CE2
:1002D0000D94A02C0D94988A0D94FB620D94CA2362
:1002E0000D94418A0D947C840D9444630D94FF62B7
:1002F0000D94078A0D94A2810D942C9F0D94C82C07
:100300000D94CC890D94A8810D947B120D94C30A91
:100310000D945E840D9468840D9417840D94AC81C3
:100320000D943B840D94B0860D947B8A0D94B0811E
:100330000D94C4810D94510B0D9424890D94E42CDB
:100340000D94CC180D94EE0B0D9443880D94BC2C99
:100350000D94C5230D9431840D9404160D94E188F9
:100360000D94BF230D9427630D94CC810D94980CAC
:100370000D948C190D94A70A0D9481630D94E86374
:100380000D94882C0D942A0C0D94860A0D94F983F3
:100390000D94F4830D94099C0D9497810D94BB23C7
:1003A0000D947C0A0D94BE810D9446160D9489819E
:1003B0000D94BD890D9486840D94EF830D949688D9
:1003C0000D9468880D94B6810D94E10A0D942784EC
:1003D0000D941F840D9443240D94BC0A0D940D8438
:1003E0000D9405630D9403840D94850D0D94B863ED
:1003F0006E616E00696E66004E414E494E49545919
:10040000494E46CDCCCC3D0AD7233C17B7D13877DF
:10041000CC2B329595E6241FB14F0A0000204100F5
:1004200000C84200401C4620BCBE4CCA1B0E5AAE3F
:10043000C59D7400407A10F35A00A0724E1809004E
:1004400010A5D4E80000E87648170000E40B540239
:100450000000CA9A3B000000E1F505000080969874
:1004600000000040420F000000A0860100000010C4
:100470002700000000E80300000000640000000006
:10048000000A00000000000100000000002C76D8E7
:1004900088DC674F0823DFC1DFAE59E1B1B796E5CD
:1004A000E3E453C63AE651997696E8E6C28426EB31
:1004B000898C9B62ED407C6FFCEFBC9C9F40F2BA44
:1004C000A56FA5F490055A2AF75C936B6CF9676DDC
:1004D000C11BFCE0E40D47FEF520E6B500D0ED9031
:1004E0002E0300943577050080841E080000204EFE
:1004F0000A000000C80C333333330F986E12831197
:1005000041EF8D2114893BE65516CFFEE6DB18D16D
:10051000844B381BF77C1D901DA4BBE4242032843F
:10052000725E228100C9F124ECA1E53D27256420FB
:100530006279746573207772697474656E20746F64
:1005400020454550524F4D206174206164647265AE
:10055000737320307825303478004433202D2052B6
:100560006561642F577269746520454550524F4D3F
:100570000A0020436F756E7420583A2000534420BF
:100580007072696E74696E67206279746520004EBE
:100590006F7420696E206661726D206D6F64652EC8
:1005A000004163746976652045787472756465727C
:1005B0003A2000496E76616C6964206578747275C2
:1005C000646572005A204F666673657400556E6BE1
:1005D0006E6F776E20636F6D6D616E643A202200DE
:1005E0007A5F6D61783A20007A5F6D696E3A20001B
:1005F000795F6D61783A2000795F6D696E3A20000D
:10060000785F6D61783A20006F70656E00785F6D7D
:10061000696E3A20005265706F7274696E6720656A
:100620006E6473746F70207374617475730000531B
:10063000494C454E54004E4F524D414C00255320DD
:100640004D4F44453A2050657263656E7420646F67
:100650006E653A2025643B207072696E742074695F
:100660006D652072656D61696E696E6720696E20C7
:100670006D696E733A2025640A00456E64206669D0
:100680006C65206C69737400426567696E206669E9
:100690006C65206C6973740025643A2025640A0037
:1006A0000A50494E44412074656D706572617475DD
:1006B00072653A20252E3166205A20736869667467
:1006C00020286D6D293A20252E3366000A53746563
:1006D000703A2025642F360A000A537465703A2058
:1006E00025642F362028736B6970706564290A5061
:1006F000494E44412074656D706572617475726510
:100700003A202564205A20736869667420286D6D2C
:10071000293A300A000A5A45524F3A20252E3366AC
:100720000A0073746172742074656D70657261740F
:100730007572653A20252E31660A00256420202531
:100740002E326600255320583A20252E3566205932
:100750003A20252E3566205A3A20252E35660A0085
:100760004E6F7420696E206661726D206D6F6465D6
:100770002E0025640045303A25642052504D0A5021
:10078000524E303A25642052504D0A0025640041F3
:1007900075746F0020452F443D00416476616E639F
:1007A00065204B3D002F2F20616374696F6E3A6D99
:1007B0003630300A004D323230205325690025533F
:1007C00046696C616D656E742073657474696E67DB
:1007D000733A2044697361626C65640A002553466C
:1007E000696C616D656E742073657474696E67738E
:1007F0003A0A25532020204D3230302044252E3215
:10080000660A002553526574726163743A20533D41
:100810004C656E67746820286D6D2920463A5370C8
:1008200065656420286D6D2F6D29205A3A205A4C39
:1008300069667420286D6D290A25532020204D32C9
:1008400030372053252E32662046252E3266205A18
:10085000252E32660A25535265636F7665723A20FB
:10086000533D4578747261206C656E67746820280A
:100870006D6D2920463A537065656420286D6D2F93
:100880006D290A25532020204D3230382053252E43
:1008900032662046252E32660A25534175746F2D27
:1008A000526574726163743A20533D3020746F2036
:1008B00064697361626C652C203120746F20696EED
:1008C0007465727072657420657874727564652DD4
:1008D0006F6E6C79206D6F76657320617320726521
:1008E000747261637473206F72207265636F7665D2
:1008F000726965730A25532020204D323039205308
:1009000025640A0025535049442068656174626576
:10091000642073657474696E67733A0A25532020E6
:10092000204D3330342050252E32662049252E327A
:10093000662044252E32660A002553504944207310
:10094000657474696E67733A0A25532020204D330D
:1009500030312050252E32662049252E3266204423
:10096000252E32660A002553537465707320706516
:100970007220756E69743A0A255320204D39322051
:1009800058252E32662059252E3266205A252E32C1
:10099000662045252E32660A25534D6178696D75AE
:1009A0006D20666565647261746573202D206E6FBD
:1009B000726D616C20286D6D2F73293A0A255320C2
:1009C000204D3230332058252E32662059252E32C4
:1009D00066205A252E32662045252E32660A25537A
:1009E0004D6178696D756D206665656472617465C9
:1009F00073202D20737465616C746820286D6D2FD1
:100A000073293A0A255320204D3230332058252EA1
:100A100032662059252E3266205A252E3266204510
:100A2000252E32660A25534D6178696D756D2061FA
:100A30006363656C65726174696F6E202D206E6FE3
:100A4000726D616C20286D6D2F7332293A0A25531F
:100A500020204D3230312058256C752059256C7579
:100A6000205A256C752045256C750A25534D6178F3
:100A7000696D756D20616363656C65726174696F22
:100A80006E202D20737465616C746820286D6D2F45
:100A90007332293A0A255320204D3230312058250F
:100AA0006C752059256C75205A256C752045256C70
:100AB000750A2553416363656C65726174696F6E75
:100AC0003A20533D616363656C65726174696F6E52
:100AD0002C20543D72657472616374206163636598
:100AE0006C65726174696F6E0A255320204D323037
:100AF000342053252E32662054252E32660A255383
:100B0000416476616E636564207661726961626CCE
:100B100065733A20533D4D696E2066656564726168
:100B2000746520286D6D2F73292C20543D4D696EFE
:100B30002074726176656C206665656472617465A7
:100B400020286D6D2F73292C20423D6D696E696DD3
:100B5000756D207365676D656E742074696D6520B1
:100B6000286D73292C20583D6D6178696D756D2055
:100B70005859206A65726B20286D6D2F73292C20BF
:100B8000205A3D6D6178696D756D205A206A6572D5
:100B90006B20286D6D2F73292C2020453D6D6178C9
:100BA000696D756D2045206A65726B20286D6D2F0B
:100BB00073290A255320204D3230352053252E32FB
:100BC000662054252E32662042252E326620582576
:100BD0002E32662059252E3266205A252E32662066
:100BE00045252E32660A2553486F6D65206F66666F
:100BF00073657420286D6D293A0A255320204D32E3
:100C000030362058252E32662059252E3266205A3D
:100C1000252E32660A004D4D55203C3D20274625A5
:100C200064202564270A00504944204175746F747C
:100C3000756E652066696E697368656421205075FC
:100C40007420746865206C617374204B702C204B89
:100C50006920616E64204B6420636F6E7374616EF3
:100C600074732066726F6D2061626F766520696EA5
:100C7000746F20436F6E66696775726174696F6E19
:100C80002E6800504944204175746F74756E65205C
:100C90006661696C6564212074696D656F757400A7
:100CA00020403A00543A00423A00504944204175ED
:100CB000746F74756E65206661696C65642120547B
:100CC000656D706572617475726520746F6F2068F0
:100CD00069676800204B643A2000204B693A200085
:100CE000204B703A200020436C617373696320507D
:100CF000494420002054753A2000204B753A2000CA
:100D0000206D61783A2000206D696E3A20002064E1
:100D10003A200020626961733A200020453A0020A1
:100D20005A3A0020593A0020453A00205A3A002009
:100D3000593A00583A00005A30005A3100593000F0
:100D4000593100583000583100456E642073746F7B
:100D500070732064696167002E0044656C65746976
:100D60006F6E206661696C65642C2046696C653A1B
:100D7000200046696C652064656C657465643A00A2
:100D80004E6F74205344207072696E74696E6700F0
:100D90005072696E742073617665640053442070EC
:100DA00072696E7420706175736564000A002F00AB
:100DB0000A002F2F20616374696F6E3A63616E635E
:100DC000656C0043524153485F43414E43454C00DC
:100DD00043524153485F5245434F56455200435298
:100DE0004153485F5245434F56455200222832290D
:100DF000005400496E76616C6964205420636F640E
:100E0000652E00556E6B6E6F776E204D20636F649C
:100E1000653A202573200A006E6F2076616C696444
:100E200020636F6D6D616E64002C20002C20002CFF
:100E300020006E2F61002C20002C20002C20006E42
:100E40002F61002F00503A005761697420666F725D
:100E50002050494E44412074617267657420746566
:100E60006D70657261747572653A004C414E472031
:100E700053454C20464F5243454400222831290017
:100E800030303030303030302D303030302D303068
:100E900030302D303030302D303030303030303058
:100EA000303030300020555549443A00310020455B
:100EB000585452554445525F434F554E543A005092
:100EC00072757361206933204D4B3300204D4143CF
:100ED00048494E455F545950453A00312E30002064
:100EE0006261736564206F6E204D61726C696E2063
:100EF0004649524D574152455F55524C3A687474B9
:100F000070733A2F2F6769746875622E636F6D2F47
:100F1000707275736133642F50727573612D4669F9
:100F2000726D776172652050524F544F434F4C5F42
:100F300056455253494F4E3A004649524D57415239
:100F4000455F4E414D453A50727573612D46697249
:100F50006D7761726520004D31313320530020429E
:100F60003A0020453A00543A0020413A0020503AD5
:100F7000002042403A0020403A00202F003A002052
:100F80005400202F0020423A00202F006F6B205485
:100F90003A002569206D696E2C20256920736563F0
:100FA00000496E76616C6964204D20636F64653A18
:100FB000202573200A00556E6B6E6F776E204720D8
:100FC000636F64653A202573200A004D65736820BD
:100FD000626564206C6576656C696E67206E6F74FF
:100FE000206163746976652E000A002020000A4D96
:100FF0006561737572656420706F696E74733A0011
:101000000A5A20736561726368206865696768744D
:101010003A20002C004E756D20582C593A200020A3
:101020006D6963726F6E730045786365737369767B
:101030006520626564206C6576656C696E67206307
:101040006F7272656374696F6E3A200047323820A0
:1010500057300050494E44412070726F62652063E2
:10106000616C6962726174696F6E2073746172740D
:1010700000473238205730004D3234005345545F1A
:1010800043484F505F005345545F535445505F00F1
:101090005345545F574156455F00544D435F0043ED
:1010A000524153485F005072657373206B6E6F62DC
:1010B00020746F2070726568656174206E6F7A7A33
:1010C0006C6520616E6420636F6E74696E75652E49
:1010D00000506C656173652070726573732074686D
:1010E00065206B6E6F6220746F20756E6C6F61642B
:1010F0002066696C616D656E740052656D6F766512
:10110000206F6C642066696C616D656E7420616E21
:101110006420707265737320746865206B6E6F62F3
:1011200020746F207374617274206C6F6164696ED7
:1011300067206E65772066696C616D656E742E0040
:10114000616E6420707265737320746865206B6EC5
:101150006F6200496E736572742066696C616D65BB
:101160006E7400436F6C6F72206E6F7420636F72C9
:10117000726563740046696C616D656E74206E6F94
:1011800074206C6F61646564004368616E676564B8
:1011900020636F72726563746C793F004C6F616499
:1011A000696E6720636F6C6F72004368616E67657C
:1011B00020737563636573732100506C656173659B
:1011C000206F70656E2069646C657220616E6420AA
:1011D00072656D6F76652066696C616D656E7420F1
:1011E0006D616E75616C6C792E0057617320666954
:1011F0006C616D656E7420756E6C6F6164207375C3
:10120000636365737366756C3F00506C65617365ED
:1012100020757067726164652E004E65772066697F
:10122000726D776172652076657273696F6E206189
:101230007661696C61626C653A0057616974696EC8
:101240006720666F722050494E44412070726F6271
:101250006520636F6F6C696E67004372617368200D
:1012600064657465637465642E20526573756D657D
:10127000207072696E743F00437261736820646508
:101280007465637465642E00457874727564657264
:101290000043686F6F73652065787472756465725A
:1012A0003A0043686F6F73652066696C616D656EA7
:1012B000743A004D32303020496E76616C6964209A
:1012C000657874727564657220004E6F206D6F765C
:1012D000652E005761697420666F722075736572A0
:1012E0002E2E2E00536F6D652070726F626C656DCF
:1012F00020656E636F756E74657265642C205A2D5F
:101300006C6576656C6C696E6720656E666F72637E
:101310006564202E2E2E00537461626C6520616D11
:101320006269656E742074656D7065726174757242
:10133000652032312D323643206973206E65656435
:1013400065642061207269676964207374616E64EA
:101350002069732072657175697265642E00506C26
:10136000656173652072756E2058595A2063616CEF
:101370006962726174696F6E2066697273742E009F
:10138000536C6565702E2E2E0073746172740A00A2
:101390006164635F696E69740A001B5B324A1B5BA0
:1013A000313B31484F726967696E616C20507275CC
:1013B00073612069331B5B323B3348507275736134
:1013C00020526573656172636800466163746F7271
:1013D000792052455345540044656320203620321D
:1013E00030313800436F6D70696C65643A200028B5
:1013F0006E6F6E652C2064656661756C7420636F1A
:101400006E666967290044656320203620323031DA
:10141000382031383A30333A35310020352E302EED
:10142000342D545A422D393939390A002055706CFF
:101430006F616420696E2070726F677265737300EC
:10144000205A3A0020593A0020583A00435241535A
:10145000485F44455445435445445859004352411C
:1014600053485F4445544543544544590043524111
:1014700053485F444554454354454458004D323920
:10148000005072757361206933204D4B33207265B3
:101490006164792E00426C61636B6F7574206F63B9
:1014A0006375727265642E205265636F7665722073
:1014B0007072696E743F0053656C66746573742056
:1014C00077696C6C2062652072756E20746F206382
:1014D000616C6962726174652061636375726174C5
:1014E000652073656E736F726C65737320726568C7
:1014F0006F6D696E672E0054686572652069732090
:101500007374696C6C2061206E65656420746F2053
:101510006D616B65205A2063616C696272617469E8
:101520006F6E2E20506C6561736520666F6C6C6FFA
:101530007720746865206D616E75616C2C2063681E
:10154000617074657220466972737420737465707B
:10155000732C2073656374696F6E2043616C6962DC
:10156000726174696F6E20666C6F772E00507269BD
:101570006E74657220686173206E6F742062656599
:101580006E2063616C696272617465642079657450
:101590002E20506C6561736520666F6C6C6F7720D0
:1015A000746865206D616E75616C2C206368617074
:1015B0007465722046697273742073746570732C3D
:1015C0002073656374696F6E2043616C6962726138
:1015D00074696F6E20666C6F772E004F6C64207399
:1015E000657474696E677320666F756E642E20442F
:1015F000656661756C74205049442C204573746590
:101600007073206574632E2077696C6C206265208E
:101610007365742E005761726E696E673A20626F4F
:101620007468207072696E746572207479706520B8
:10163000616E64206D6F74686572626F61726420A0
:1016400074797065206368616E6765642E00576108
:10165000726E696E673A207072696E74657220747A
:10166000797065206368616E6765642E00576172EA
:101670006E696E673A206D6F74686572626F617231
:10168000642074797065206368616E6765642E00FC
:101690002020506C616E6E6572427566666572429E
:1016A000797465733A20002046726565204D656D3A
:1016B0006F72793A2000204C617374205570646118
:1016C0007465643A200045787465726E616C2053CD
:1016D000504920666C617368205732355832304368
:1016E0004C206E6F7420726573706F6E64696E67E4
:1016F0002E004372617368446574656374204449C5
:101700005341424C454400437261736844657465BB
:10171000637420454E41424C45442100207C2041C9
:101720007574686F723A200020536F667477617227
:101730006520526573657400205761746368646F37
:1017400067205265736574002042726F776E206F58
:101750007574205265736574002045787465726EE7
:10176000616C20526573657400506F7765725570B7
:10177000006572726F722077726974696E67207487
:101780006F2066696C6500656E6473746F7073209A
:101790006869743A2000446F6E6520736176696EE3
:1017A000672066696C652E006F6B0058595A20637C
:1017B000616C6962726174696F6E20616C6C207219
:1017C000696768742E20536B65772077696C6C208D
:1017D000626520636F7272656374656420617574FD
:1017E0006F6D61746963616C6C792E0058595A2071
:1017F00063616C6962726174696F6E20616C6C20E8
:1018000072696768742E20582F592061786573209B
:1018100061726520736C696768746C7920736B659D
:101820007765642E20476F6F64206A6F62210058CD
:10183000595A2063616C6962726174696F6E206FBE
:101840006B2E20582F5920617865732061726520B6
:1018500070657270656E646963756C61722E204389
:101860006F6E67726174756C6174696F6E7321005D
:1018700058595A2063616C6962726174696F6E2095
:101880006661696C65642E205269676874206672AF
:101890006F6E742063616C6962726174696F6E202F
:1018A000706F696E74206E6F742072656163686119
:1018B000626C652E0058595A2063616C69627261CE
:1018C00074696F6E206661696C65642E2046726F64
:1018D0006E742063616C6962726174696F6E2070EE
:1018E0006F696E7473206E6F7420726561636861D6
:1018F000626C652E0058595A2063616C696272618E
:1019000074696F6E206661696C65642E20506C6529
:1019100061736520636F6E73756C742074686520E5
:101920006D616E75616C2E0058595A2063616C6947
:1019300062726174696F6E20636F6D70726F6D6932
:101940007365642E2052696768742066726F6E74C6
:101950002063616C6962726174696F6E20706F6977
:101960006E74206E6F7420726561636861626C656D
:101970002E0058595A2063616C6962726174696FF4
:101980006E20636F6D70726F6D697365642E204693
:10199000726F6E742063616C6962726174696F6EDC
:1019A00020706F696E7473206E6F7420726561634E
:1019B0006861626C652E0058595A2063616C6962D7
:1019C000726174696F6E206661696C65642E204275
:1019D00065642063616C6962726174696F6E207006
:1019E0006F696E7420776173206E6F7420666F75F7
:1019F0006E642E00506C6561736520706C61636568
:101A000020737465656C207368656574206F6E2043
:101A1000686561746265642E0044697374616E6305
:101A200065206265747765656E20746970206F66E5
:101A300020746865206E6F7A7A6C6520616E642010
:101A400074686520626564207375726661636520E1
:101A5000686173206E6F74206265656E20736574B3
:101A6000207965742E20506C6561736520666F6CFB
:101A70006C6F7720746865206D616E75616C2C20C9
:101A80006368617074657220466972737420737440
:101A90006570732C2073656374696F6E204669727C
:101AA0007374206C617965722063616C6962726124
:101AB00074696F6E2E00506C6163652061207368DD
:101AC000656574206F6620706170657220756E6444
:101AD000657220746865206E6F7A7A6C6520647513
:101AE00072696E67207468652063616C69627261F7
:101AF00074696F6E206F662066697273742034207B
:101B0000706F696E74732E20496620746865206E4C
:101B10006F7A7A6C6520636174636865732074689A
:101B2000652070617065722C20706F776572206F10
:101B3000666620746865207072696E7465722069CB
:101B40006D6D6564696174656C792E00506C6561BA
:101B500073652072656D6F766520737465656C20A2
:101B600073686565742066726F6D20686561746264
:101B700065642E00497320737465656C2073686515
:101B80006574206F6E20686561746265643F002033
:101B90006F66203400536561726368696E67206206
:101BA00065642063616C6962726174696F6E207034
:101BB0006F696E7400206F662039004D6561737522
:101BC00072696E67207265666572656E636520680E
:101BD0006569676874206F662063616C6962726111
:101BE00074696F6E20706F696E7400506C656173FC
:101BF0006520636C65616E20746865206E6F7A7A0B
:101C00006C6520666F722063616C696272617469D1
:101C10006F6E2E20436C69636B207768656E20645D
:101C20006F6E652E004175746F20686F6D6500786A
:101C3000797A63616C5F6D656173737572655F65F9
:101C40006E7465720A0078797A63616C5F7370698B
:101C500072616C382063783D25642063793D25648A
:101C6000207A303D256420647A3D256420726164C9
:101C70006975733D25642061643D25640A007879A7
:101C80007A63616C5F7365617263685A206E6F205E
:101C90007369676E616C0A20783D256C6420793D1C
:101CA000256C64207A3D256C640A00204F4E2D532C
:101CB00049474E414C20617420783D256420793D90
:101CC0002564207A3D25642061643D25640A0078FE
:101CD000797A63616C5F7365617263685A20783DDD
:101CE000256C6420793D256C64207A3D256C640A5E
:101CF000000A00253032780078797A63616C5F736E
:101D000063616E5F706978656C735F33327833320C
:101D10002063783D25642063793D2564206D696EDC
:101D20005F7A3D2564206D61785F7A3D25640A0005
:101D3000202532642025640A000A0025303278000C
:101D4000206D696E3D2564206D61783D25642064B9
:101D500069663D25640A006D61785F633D253264E4
:101D6000206D61785F6C3D25640A006D61785F636A
:101D70003D2564206D61785F723D2564206D61783A
:101D80005F6D617463683D25640A0020783D2564B9
:101D900020793D2564207A3D25640A002070617415
:101DA0007465726E20666F756E64206174202564A0
:101DB0002025640A000000F000F801FC03FE07FE85
:101DC00007FE07FE07FC03F801F000000073697AC4
:101DD000656F6628746F74616C293D25640A007311
:101DE000697A656F6628626C6F636B5F62756666A1
:101DF0006572293D25640A0078797A63616C5F6DAC
:101E0000656173737572655F6C656176650A0070F4
:101E10006F696E743D256420783D256420793D25E9
:101E200064207A3D25640A0058025802584D584DE6
:101E3000B004F055F055B00478797A63616C5F6650
:101E4000696E645F6265645F696E64756374696F0F
:101E50006E5F73656E736F725F706F696E745F78BB
:101E60007920783D256C6420793D256C64207A3D8D
:101E7000256C640A00203C20005741524E494E47D1
:101E80003A2046726F6E7420706F696E74206E6FA8
:101E90007420726561636861626C652E20592063ED
:101EA0006F6F7264696E6174653A000000004041B2
:101EB0000000C04000005C430000C04000005C43E4
:101EC00000004643000040410000464349746572EB
:101ED0006174696F6E3A200043616C69627261746B
:101EE000696F6E206661696C656421204368656373
:101EF0006B20746865206178657320616E64207260
:101F0000756E20616761696E2E00506C6561736546
:101F100020757064617465206669726D77617265A1
:101F200020696E20796F7572204D4D55322E2057E5
:101F3000616974696E6720666F722072657365747B
:101F40002E004D4D55204F4B2E20526573756D69F7
:101F50006E672E2E2E004D4D55204F4B2E20526574
:101F600073756D696E6720706F736974696F6E2E1B
:101F70002E2E004D4D55204F4B2E20526573756D02
:101F8000696E672074656D70657261747572652E17
:101F90002E2E004669782074686520697373756514
:101FA00020616E64207468656E20707265737320A2
:101FB000627574746F6E206F6E204D4D5520756E76
:101FC00069742E00507265737320746865206B6E9F
:101FD0006F6220746F20726573756D65206E6F7A05
:101FE0007A6C652074656D70657261747572652EAA
:101FF000004D4D55206E65656473207573657220C4
:10200000617474656E74696F6E2E00506C656173D7
:10201000652072656D6F76652066696C616D656EB1
:102020007420616E64207468656E207072657373CD
:1020300020746865206B6E6F622E00456A6563745C
:10204000696E672066696C616D656E74004D4D55F3
:1020500032206669726D7761726520766572736988
:102060006F6E20696E76616C69642E2052657175A1
:10207000697265642076657273696F6E3A20627565
:10208000696C64206E756D626572202564206F72C4
:10209000206869676865722E004D4B33203D3E20F5
:1020A0004D4D55202746696C616D656E74207365D2
:1020B000656E206174206578747275646572270A94
:1020C000004D4B33203D3E204D4D552027523027AB
:1020D0000A004D4B33203D3E204D4D5520274525D0
:1020E00064270A004D4B33203D3E204D4D5520279F
:1020F0005530270A004D4B33203D3E204D4D552095
:10210000274330270A004D4B33203D3E204D4D558F
:1021100020274C2564270A004D4B33203D3E204D9F
:102120004D5520275425642040746F6F6C436861BF
:102130006E67653A2564270A004D4D55203D3E20C7
:102140004D4B3320276F6B270A004D4D55203D3EE8
:10215000204D4B3320276F6B203A29270A004D4D25
:1021600055203D3E204D4B33202777616974696EC1
:102170006720666F722066696C616D656E742040C1
:10218000204D4B332053656E736F72270A004D3616
:102190003030004D363030204155544F00465345C5
:1021A0004E534F525F5245434F564552004D4D5589
:1021B000202D20454E41424C4544004D4D55207642
:1021C000657273696F6E2076616C6964004D4D5560
:1021D000203D3E204D4B33202725646F6B270A009E
:1021E0004D4B33203D3E204D4D5520275332270087
:1021F0004D4D55203D3E204D4B33202725646F6BC0
:10220000270A004D4D55206E6F7420726573706FF4
:102210006E64696E67202D2044495341424C454409
:10222000004D4D5520737461727473207265737024
:102230006F6E64696E670A004D4D55206E6F742095
:10224000726573706F6E64696E670A002F2F20616C
:102250006374696F6E3A6D6D75417474656E7469FF
:102260006F6E0A000000803F555585410000803F99
:102270000000C84100000040555505420000C03F25
:10228000000048420000204055558542000070C1C2
:10229000ABAAA642000060C10000A0410000C0C07F
:1022A0000000204100002041ABAA3A41000020C1BB
:1022B0005555D540000048C2555505424D3730317F
:1022C000204530004D373031204531004D37303119
:1022D000204532004D373031204533004D37303105
:1022E000204534004D373031204534004D373031F2
:1022F000204533004D373031204532004D373031E5
:10230000204531004D3730312045300046696C6141
:102310006D656E74206E72206F7574206F6620720A
:10232000616E67652100773235783230636C5F63A8
:10233000666D0A00773235783230636C5F656E7493
:1023400065720A00504154393132355F5245535F4E
:10235000593D256868750A00504154393132355F5E
:102360005245535F583D256868750A00062833D0EA
:1023700036C23E013F154132423B43F2443B45F2F7
:102380004622473B48F2493B4AF05898590C5A08B4
:102390005B0C5C086110679B6E2271077208FF0975
:1023A0005A0D000EF019045E0820642B6D322FFFC9
:1023B00025632533642F25642563004B494C4C4528
:1023C000442E20005072696E7465722068616C74CE
:1023D00065642E206B696C6C28292063616C6C65C8
:1023E0006421004D31303420496E76616C6964207F
:1023F000657874727564657220004D3130352049FE
:102400006E76616C6964206578747275646572209B
:10241000004D31303920496E76616C6964206578F1
:1024200074727564657220004D32313820496E76C1
:10243000616C696420657874727564657220004D02
:1024400032323120496E76616C696420657874722D
:102450007564657220005265636F766572696E6798
:10246000207072696E7420202020004B494C4C3A39
:102470002025640A0055564C4F202D20656E64209F
:1024800025640A007374707325640A00776F726C98
:102490006420636F6F7264696E617465733A20289B
:1024A000252E33662C20252E33662C20252E3366D0
:1024B000290A00706879736963616C20636F6F72B9
:1024C00064696E617465733A2028252E33662C206A
:1024D000252E33662C20252E3366290A004375727B
:1024E00072656E7420706F73205A5F415849533A79
:1024F000252E33660A43757272656E7420706F7391
:1025000020455F415849533A252E33660A004166FB
:102510007465722077616974696E6720666F7220D6
:1025200074656D703A0A43757272656E7420706FCF
:102530007320585F415849533A252E33660A437534
:102540007272656E7420706F7320595F41584953E1
:102550003A252E33660A0020573A0020453A0054A7
:102560003A005A206C6976652061646A757374203C
:102570006F7574206F662072616E67652E205365DB
:102580007474696E6720746F20302E20436C696309
:102590006B20746F20636F6E74696E75652E005AC0
:1025A000206C6976652061646A757374206F757438
:1025B000206F662072616E67652E205365747469A2
:1025C0006E6720746F20300020423A0020453A00A8
:1025D000543A00494E5434007265636F7665725FF9
:1025E0006D616368696E655F73746174655F616670
:1025F0007465725F706F7765725F70616E69632C6E
:1026000020696E697469616C20007265636F76651C
:10261000725F6D616368696E655F73746174655F35
:1026200061667465725F706F7765725F70616E6905
:10263000632C20696E697469616C2000473932200F
:10264000450050525553412075766C6F0047342039
:102650005330004D32362053256C75004D313036E5
:102660002053004D38320047312046256400473161
:102670002045322A64656661756C745F7265747298
:10268000616374696F6E2046343830004731205AD8
:1026900000204632303030002059004731205800A9
:1026A0004D383300506F736974696F6E20726561C5
:1026B000642066726F6D20656570726F6D3A004DB3
:1026C0003233202573002E67636F004665656472A0
:1026D0006174653A00473120452D64656661756C0B
:1026E000745F72657472616374696F6E204634380A
:1026F000300047312045352046313230004D3833E7
:10270000004D31393020532564004D31303920538C
:1027100025640047323820582059004731205A326A
:102720003520463830300053657474696E67732005
:1027300053746F7265640053746F726564207365BF
:102740007474696E67732072657472696576656406
:102750000048617264636F646564204465666175F6
:102760006C742053657474696E6773204C6F616478
:10277000656400563200000000C8420000C84200F4
:1027800000C84300008C4300004843000048430059
:102790000040410000F042E8030000E8030000C8E8
:1027A0000000008813000000409C4400409C44004E
:1027B00000000000000000204E000000002041004A
:1027C000002041CDCCCC3E000020400000000000A5
:1027D00000000000000000CDCCCC3E3D0A8141FF4E
:1027E00008433EB099AB438F42FC42E65A343F4C1B
:1027F00062B045000000000040400000344200008C
:1028000000000000000000000041000000E03F0068
:1028100000C8420000C842000040410000F042C031
:10282000030000C0030000C800000088130000453A
:102830004550524F4D204572726F7200436F6E7457
:10284000696E7565207769746820616E6F7468655C
:102850007220626F7764656E3F0025002020202083
:102860002020002020202020200045524153494EA6
:102870004720616C6C206461746100466163746F11
:1028800072792052455345540000007F4300805424
:10289000430000524300000000000080C09A9919D4
:1028A0003E00000000000080C09A99193E24F4D434
:1028B0003050C38E20C2A24017828B7011127A91C1
:1028C0000D816CD90AA861E108C7586607615143B8
:1028D000061E4B5D05C145A7041A411104093D9828
:1028E00003713931034036DB0265339102D4305431
:1028F00002802E1D02632CEE01752AC501B028A0AE
:1029000001102781018F2564012B244B01E0223423
:1029100001AC211F018D200D01801FFC00841EEDE4
:1029200000971DDF00B81CD200E61BC600201BBCB0
:1029300000641AB200B219A8000A19A0006A189916
:1029400000D117910040178B00B516840031167E18
:1029500000B31579003A157300C7146F0058146A54
:1029600000EE1366008813630025135E00C7125B38
:10297000006C12570015125400C111510070114F14
:102980000021114B00D61049008D1047004610441D
:102990000002104200C00F4000800F3E00420F3C7A
:1029A00000060F3B00CB0E3800930E37005C0E354F
:1029B00000270E3400F30D3200C10D3100900D30B0
:1029C00000600D2E00320D2D00050D2C00D90C2BB2
:1029D00000AE0C2900850C29005C0C2700350C2763
:1029E000000E0C2600E80B2400C40B2400A00B23CF
:1029F000007D0B23005A0B2100390B2100180B20FE
:102A000000F80A1F00D90A1E00BB0A1E009D0A1DFD
:102A100000800A1D00630A1C00470A1B002C0A1BC9
:102A200000110A1A00F7091A00DD091900C4091972
:102A300000AB091900920917007B091800630917F8
:102A4000004C09160036091600200916000A09155F
:102A500000F5081500E0081400CC081400B80814AC
:102A600000A4081400900813007D0812006B0813DE
:102A700000580812004608120034081100230811FB
:102A8000001208110001081100F0071000E0071003
:102A900000D0071000C0071000B0070F00A10710FA
:102AA0000091070E0083070F0074070F0065070EE3
:102AB0000057070E0049070E003B070D002E070EBA
:102AC0000020070D0013070D0006070D00F9060C86
:102AD00000ED060D00E0060C00D4060C00C8060C44
:102AE00000BC060C00B0060C00A4060B0099060CF6
:102AF000008D060B0082060B0077060B006C060BA0
:102B00000061060A0057060B004C060A0042060A3E
:102B10000038060A002E060A0024060A001A060AD1
:102B2000001006090007060A00FD050900F4050962
:102B300000EB050900E2050900D9050900D00509E7
:102B400000C7050900BE050900B5050800AD050868
:102B500000A50509009C050800940508008C0508DF
:102B600000840508007C050800740508006C050752
:102B700000650508005D050700560508004E0507BD
:102B80000047050700400508003805070031050724
:102B9000002A050700230507001C05060016050787
:102BA000000F0507000805060002050700FB0406E4
:102BB00000F5040700EE040600E8040600E204073E
:102BC00000DB040600D5040600CF040600C9040695
:102BD00000C3040600BD040600B7040600B10405E6
:102BE00000AC040600A6040600A00405009B040631
:102BF0000095040500900406008A0405008504057C
:102C000000800406007A04050075040500700405C0
:102C1000006B04050066040500610405005C040502
:102C20000057040500520405004D04050048040542
:102C300000430405003E0404003A04050035040581
:102C400000300404002C04050027040400230405BC
:102C5000001E0404001A04040016040500110404F4
:102C6000000D040400090405000404040000040429
:102C700000FC030400F8030400F4030400F0030460
:102C800000EC030400E8030400E4030400E0030490
:102C900000DC030400D8030400D4030400D00304C0
:102CA00000CC030400C8030300C503030024F4049C
:102CB000D9201BC40C5C0E9804C4095F026507711F
:102CC00001F405F900FB04B30048048700C103695F
:102CD000005803550003034500BE023A0084023148
:102CE0000053022A002902250004022000E4011CEE
:102CF00000C8011900AF01170098011400840113E6
:102D000000710110006101100051010E0043010D1E
:102D10000036010B002B010B0020010B00150109EF
:102D2000000C01090003010800FB000800F3000883
:102D300000EB000700E4000600DE000600D80006F5
:102D400000D2000600CC000500C7000500C2000547
:102D500000BD000400B9000400B5000400B1000487
:102D600000AD000400A9000400A5000300A20003B8
:102D7000009F0004009B00030098000300950002E0
:102D80000093000300900003008D0002008B0003FD
:102D90000088000200860002008400030081000217
:102DA000007F0002007D0002007B0002007900022B
:102DB000007700010076000200740002007200013A
:102DC00000710002006F0002006D0001006C000243
:102DD000006A00010069000200670001006600014E
:102DE0000065000100640002006200010061000152
:102DF00000600001005F0002005D0001005C000156
:102E0000005B0001005A0001005900010058000158
:102E10000057000100560001005500010054000158
:102E20000053000000530001005200010051000156
:102E300000500001004F0001004E0000004E000154
:102E4000004D0001004C0001004B0000004B000150
:102E5000004A00010049000100480000004800014C
:102E60000047000100460000004600010045000048
:102E70000045000100440001004300000043000140
:102E8000004200000042000100410000004100013A
:102E900000400001003F0000003F0001003E000034
:102EA000003E0001003D0000003D0001003C00002C
:102EB000003C0000003C0001003B0000003B000122
:102EC000003A0000003A000100390000003900011A
:102ED0000038000000380000003800010037000012
:102EE0000037000100360000003600000036000107
:102EF00000350000003500000035000100340000FE
:102F000000340000003400010033000000330000F2
:102F100000330001003200000032000000320001E6
:102F200000310000003100000031000100300000DD
:102F30000030000000300001002F0000002F0000D2
:102F4000002F0000002F0001002E0000002E0000C6
:102F5000002E0001002D0000002D0000002D0000BB
:102F6000002D0001002C0000002C0000002C0000AF
:102F7000002C0001002B0000002B0000002B0000A3
:102F8000002B0001002A0000002A0000002A000097
:102F9000002A00010029000000290000002900008B
:102FA000002900000029000100280000002800007E
:102FB0000028000000280000002800010027000071
:102FC0000027000000270000002700000027000164
:102FD0000026000000260000002600000026000059
:102FE000002600010025000000250000002500004B
:102FF000002500000025000000250001002400003D
:10300000002400000024000000240000002400012F
:103010000023000000230000002300000023000024
:103020000023000000230000002300010022000014
:103030000022000000220000002200000022000008
:1030400000220001002100000021000000210000FA
:1030500000210000002100000021000000210001EB
:1030600000200000002000000020000000200000E0
:1030700000200000002000000020000000200001CF
:10308000001F0000001F0000001F0000001F0000C4
:10309000001F0000001F0000001F0001001E0000B4
:1030A000001E0000001E0000001E000000544D43E2
:1030B00020445249564552204F56455254454D5092
:1030C0000025632533642F25642563005A25362E99
:1030D000326620005A2020202D2D2D20002563252A
:1030E00033642525002D2D2D0025336868640025C7
:1030F000335325337325250020534400202020001E
:10310000555342002025753E257500204625750043
:1031100020463020200025632D2D3A2D2D20200023
:1031200025632533756820256325630025632530D5
:1031300032753A25303275256325630072657375E3
:103140006C742076616C75653A2025640A002069EC
:103150003D25326420636E743D2532642076616CB7
:103160003D2532640A00636C7573746572733A0AA4
:103170000020693D25326420737465703D253264FA
:103180000A00736F727465642073616D706C65738F
:103190003A0A003A20002020202020202020202051
:1031A00020202020202020202000203A2000202045
:1031B000202020202020202020202020202020200F
:1031C000202000202020202020202020202020201F
:1031D0000025730050494E44412048656174696E72
:1031E000670054656D702E2063616C2E20202020B6
:1031F0002020202020200043616C69627261746984
:103200006F6E20646F6E650043616C6962726174F9
:10321000696E67205A0042656420646F6E650042E3
:1032200065642048656174696E670048656174690A
:103230006E6720646F6E652E0048656174696E6705
:1032400000506C65617365206C6F616420504C4167
:103250002066696C616D656E742066697273742E88
:1032600000497320504C412066696C616D656E7435
:10327000206C6F616465643F0043616E63656C0040
:1032800046696C616D656E740053656C656374208E
:10329000504C412066696C616D656E743A005275E0
:1032A0006E6E696E672057697A6172642077696C07
:1032B0006C2064656C6574652063757272656E74EC
:1032C0002063616C6962726174696F6E20726573EC
:1032D000756C747320616E642073746172742066FF
:1032E000726F6D2074686520626567696E6E696EC5
:1032F000672E20436F6E74696E75653F005072656E
:1033000068656174696E67206E6F7A7A6C652E20CD
:10331000506C6561736520776169742E00456A653C
:10332000637400556E6C6F61640055736520756E33
:103330006C6F616420746F2072656D6F76652066B6
:10334000696C616D656E7420312069662069742036
:1033500070726F747275646573206F7574736964CD
:1033600065206F66207468652072656172204D4D1E
:103370005520747562652E2055736520656A6563F6
:1033800074206966206974206973206869646465C3
:103390006E20696E20747562652E004C6F616469E1
:1033A0006E672066696C616D656E7400506C656156
:1033B000736520696E7365727420504C4120666994
:1033C0006C616D656E7420746F207468652065781B
:1033D0007472756465722C207468656E20707265F5
:1033E0007373206B6E6F6220746F206C6F6164204A
:1033F00069742E00506C6561736520696E73657227
:103400007420504C412066696C616D656E74207447
:103410006F207468652066697273742074756265C4
:10342000206F66204D4D552C207468656E2070729B
:1034300065737320746865206B6E6F6220746F20F3
:103440006C6F61642069742E00596F752063616E22
:1034500020616C7761797320726573756D65207476
:1034600068652057697A6172642066726F6D2043C7
:10347000616C6962726174696F6E202D3E205769BC
:103480007A6172642E00506C6561736520636865B3
:10349000636B206F75722068616E64626F6F6B2062
:1034A000616E6420666978207468652070726F624E
:1034B0006C656D2E205468656E20726573756D6540
:1034C000207468652057697A61726420627920727D
:1034D00065626F6F74696E672074686520707269C9
:1034E0006E7465722E00416C6C20697320646F6E7F
:1034F000652E204861707079207072696E74696EF3
:10350000672100506C6561736520636C65616E2096
:103510006865617462656420616E64207468656EBC
:1035200020707265737320746865206B6E6F622EF5
:1035300000446F20796F752077616E7420746F205E
:10354000726570656174206C61737420737465704A
:1035500020746F20726561646A7573742064697386
:1035600074616E6365206265747765656E206E6F49
:103570007A7A6C6520616E64206865617462656446
:103580003F00492077696C6C2073746172742074F9
:103590006F207072696E74206C696E6520616E6454
:1035A00020796F752077696C6C2067726164756132
:1035B0006C6C79206C6F77657220746865206E6F13
:1035C0007A7A6C6520627920726F746174696E67B3
:1035D00020746865206B6E6F622C20756E74696C48
:1035E00020796F75207265616368206F7074696DF2
:1035F000616C206865696768742E20436865636B39
:103600002074686520706963747572657320696ED3
:10361000206F75722068616E64626F6F6B20696ED7
:1036200020636861707465722043616C69627261C5
:1036300074696F6E2E004E6F7720492077696C6C2D
:103640002063616C6962726174652064697374617E
:103650006E6365206265747765656E20746970209D
:103660006F6620746865206E6F7A7A6C6520616E73
:103670006420686561746265642073757266616355
:10368000652E00497320697420504C412066696C96
:10369000616D656E743F0053656C656374206E6F79
:1036A0007A7A6C6520707265686561742074656DE6
:1036B0007065726174757265207768696368206DE2
:1036C00061746368657320796F7572206D617465CC
:1036D0007269616C2E004E6F7720492077696C6C9F
:1036E0002070726568656174206E6F7A7A6C6520EF
:1036F000666F7220504C412E0049732066696C61E0
:103700006D656E74206C6F616465643F0049732061
:1037100066696C616D656E742031206C6F616465E3
:10372000643F004E6F7720492077696C6C2070727F
:103730006568656174206E6F7A7A6C6520666F7259
:1037400020504C412E00492077696C6C2072756EB8
:10375000207A2063616C6962726174696F6E206E99
:103760006F772E004E6F772072656D6F76652074CF
:1037700068652074657374207072696E7420667257
:103780006F6D20737465656C2073686565742E00B9
:10379000506C656173652072656D6F766520736826
:1037A000697070696E672068656C706572732066F9
:1037B000697273742E00492077696C6C2072756E83
:1037C0002078797A2063616C6962726174696F6EC6
:1037D000206E6F772E2049742077696C6C2074619D
:1037E0006B6520617070726F782E203132206D69A8
:1037F0006E732E0046697273742C20492077696CB1
:103800006C2072756E207468652073656C667465D3
:10381000737420746F20636865636B206D6F7374BD
:1038200020636F6D6D6F6E20617373656D626C796F
:103830002070726F626C656D732E0048692C204990
:1038400020616D20796F7572204F726967696E61B2
:103850006C205072757361206933207072696E74C8
:1038600065722E20576F756C6420796F75206C69B6
:103870006B65206D6520746F2067756964652079BC
:103880006F75207468726F7567682074686520733F
:10389000657475702070726F636573733F00452D9A
:1038A000636F7272656374005A2D636F7272656321
:1038B0007400592D636F727265637400582D636FC5
:1038C00072726563740053706F6F6C4A6F696E201B
:1038D00020205B4E2F415D0053706F6F6C4A6F6903
:1038E0006E2020205B6F66665D0053706F6F6C4AC0
:1038F0006F696E202020205B6F6E5D00536F756EC8
:10390000642020202020205B6C6F75645D00536F65
:10391000756E642020202020205B6D7574655D002D
:10392000536F756E64202020205B73696C656E7424
:103930005D00536F756E642020202020205B6F6E29
:1039400063655D00536F756E642020202020205B2E
:103950006C6F75645D00536F72743A2020202020D4
:10396000205B6E6F6E655D00536F72743A20205B52
:10397000616C7068616265745D00536F72743A20A7
:1039800020202020205B74696D655D005344206316
:1039900061726420205B6E6F726D616C5D005344D8
:1039A0002063617264205B666C73684169725D00BC
:1039B00052506920706F727420202020205B6F6E3F
:1039C0005D0052506920706F7274202020205B6F60
:1039D00066665D0054656D702E2063616C2E20203C
:1039E000205B6F6E5D0054656D702E2063616C2EE0
:1039F00020205B6F66665D004C696E2E20636F72DF
:103A000072656374696F6E0046616E7320636865EA
:103A1000636B20205B6F66665D0046616E7320639A
:103A20006865636B2020205B6F6E5D00462E206111
:103A300075746F6C6F6164205B6F66665D00462E07
:103A4000206175746F6C6F616420205B6F6E5D0028
:103A5000462E206175746F6C6F6164205B4E2F4140
:103A60005D0046696C2E2073656E736F72205B4E2D
:103A70002F415D0044697361626C652073746570E9
:103A800070657273004D6F766520617869730054BC
:103A9000656D70657261747572650054656D702E28
:103AA0002063616C6962726174696F6E0052657344
:103AB00065742058595A2063616C6962722E0053F4
:103AC000686F772070696E6461207374617465003B
:103AD0005049442063616C6962726174696F6E0061
:103AE000426564206C6576656C20636F72726563F5
:103AF00074004D65736820426564204C6576656C82
:103B0000696E670043616C696272617465205A0076
:103B100043616C6962726174652058595A0053653B
:103B20006C667465737420202020202020202000E3
:103B30004669727374206C617965722063616C2EC2
:103B40000057697A617264004C6F61642066696C29
:103B5000616D656E742035004C6F61642066696C20
:103B6000616D656E742034004C6F61642066696C11
:103B7000616D656E742033004C6F61642066696C02
:103B8000616D656E742032004C6F61642066696CF3
:103B9000616D656E742031004C6F616420616C6CE6
:103BA000004C6F61642066696C616D656E742035D0
:103BB000004C6F61642066696C616D656E742034C1
:103BC000004C6F61642066696C616D656E742033B2
:103BD000004C6F61642066696C616D656E742032A3
:103BE000004C6F61642066696C616D656E74203194
:103BF00000456A6563742066696C616D656E74204A
:103C00003500456A6563742066696C616D656E7424
:103C1000203400456A6563742066696C616D656E69
:103C200074203300456A6563742066696C616D6554
:103C30006E74203200456A6563742066696C616D3C
:103C4000656E74203100506C656173652070756C11
:103C50006C206F75742066696C616D656E74206987
:103C60006D6D6564696174656C7900556E6C6F612A
:103C700064696E672066696C616D656E7400576972
:103C80007A61726420656E642073746174653A2091
:103C900025640A0057697A617264207374617465DF
:103CA0003A2025640044697361626C652066617224
:103CB0006D206D6F6465004661726D206E756D627A
:103CC0006572004D3834004D343400473238205787
:103CD000004739390044697361626C65206661721E
:103CE0006D206D6F64653F0043686F6F736520637F
:103CF0006F6C6F723A00566F6C7461676573005435
:103D0000656D7065726174757265730042656C747F
:103D1000207374617475730045787472756465728C
:103D200020696E666F0058595A2063616C2E2064BA
:103D3000657461696C7300756E6B6E6F776E004DA4
:103D40004D553220636F6E6E65637465640046691D
:103D50006C616D656E7420657874727564696E67E8
:103D60002026207769746820636F727265637420FF
:103D7000636F6C6F723F0050726568656174207488
:103D80006865206E6F7A7A6C6521004552524F52F9
:103D90003A004175746F6C6F6164696E6720666983
:103DA0006C616D656E7420697320616374697665FA
:103DB0002C206A7573742070726573732074686543
:103DC000206B6E6F6220616E6420696E7365727421
:103DD0002066696C616D656E742E2E2E00546F74B2
:103DE000616C207072696E742074696D6500546F27
:103DF00074616C2066696C616D656E7400507269E7
:103E00006E742074696D650046696C616D656E74D1
:103E10002075736564005269676874004C65667448
:103E200000592064697374616E63652066726F6DFA
:103E3000206D696E0053657665726520736B6577DA
:103E400000536C6967687420736B6577004D65611A
:103E5000737572656420736B6577005B303B305D12
:103E600020706F696E74206F6666736574004164BC
:103E70006A757374696E67205A00526573657400C1
:103E8000526561722073696465205B756D5D0046E3
:103E9000726F6E7420736964655B756D5D00526945
:103EA00067687420736964655B756D5D004C656659
:103EB000742073696465205B756D5D0053657420C3
:103EC00074656D70657261747572653A00466C61F7
:103ED000736841697220495020416464723A004D10
:103EE0004D5532202020202020204E2F4100756E7D
:103EF0006B6E6F776E0025642E25642E25642D254C
:103F000064002046573A004D4D553220636F6E6E67
:103F10006563746564004D4D5532202020202020BB
:103F2000204E2F410025642E25642E25642D256406
:103F3000002046573A002D2D2D2D2D2D2D2D2D2DC8
:103F40002D2D00207265706F20556E6B6E6F776E31
:103F50000020352E302E342D545A422D393939391E
:103F6000004669726D776172653A0025642E25649A
:103F70002E25642E2564004D373032004D37303108
:103F8000004578747275646572006D6D00005900AB
:103F90005800580059005A002563252E3132533AF3
:103FA0002573252B30362E3366001B5B324A255392
:103FB000203A1B5B313B394825382E3266206D0A8A
:103FC0002553203A0A25376C6464203A2532686804
:103FD0006468203A253032686864206D001B5B32CB
:103FE0004A25533A1B5B313B364825382E32666DE5
:103FF000200A2553203A1B5B333B3848253264683E
:1040000020253032646D2025303264730025362E31
:1040100032666D6D004E2F41001B5B303B304825F2
:10402000533A0A25530A25533A0A25533A001B5B93
:10403000303B3135484E2F41001B5B303B3135481A
:1040400025342E326601001B5B303B304825533A45
:104050000A25530A25533A202025352E3266010AB7
:1040600025533A202025352E32660100000E131507
:10407000110E00000004120912040000001C1F11A0
:10408000111F00000006191803130C00040E1F0472
:104090001C000000040A0A0A0A11110E001F151163
:1040A000151F0000000103161C0800000000110A83
:1040B00004110A040C12120C000000002563252DC7
:1040C0003138532563002563252E3135533A257346
:1040D000253364002563252E3132533A257325009C
:1040E000457872656D65207370616E206F6620740F
:1040F0006865205A2076616C756573210000004068
:1041000041000000400000E4420000004000005771
:104110004300000040000057430000C4420000E498
:10412000420000C442000040410000C44200004080
:1041300041000042430000E44200004243000057B7
:104140004300004243205B6F66665D004265642069
:104150006C6576656C696E67206661696C65642E56
:104160002053656E736F72206469646E742074727C
:1041700069676765722E20446562726973206F6E8D
:10418000206E6F7A7A6C653F2057616974696E673B
:1041900020666F722072657365742E0043757272AB
:1041A000656E74005573656420647572696E67206E
:1041B0007072696E74005049442063616C2E2066F1
:1041C000696E6973686564005049442063616C2EB0
:1041D000202020202020202020202000506C6561FD
:1041E00073652077616974004D31313720466972FB
:1041F0007374206C617965722063616C2E0050725B
:10420000696E742070617573656400496E76616CC7
:104210006964205049442063616C2E207265737577
:104220006C74732E204E6F742073746F72656420EB
:10423000746F20454550524F4D2E004D35303000A3
:104240004731205A31352046313530300047393139
:104250000047312058353020593139302045302041
:10426000463730303000473930004D373032004D5E
:104270003730322043004D3730322055004D373033
:1042800032004D3730322043004731205A3135203B
:10429000463135303000473931004731205835300C
:1042A0002059313930204530204637303030004DEC
:1042B000383300473930004D3834004D3130342028
:1042C0005330004D3834004D3730322043004731F1
:1042D00020583130205931383020463430303000C9
:1042E0004731205A31302046313330302E30303093
:1042F000004D313430205330004D313034205330B4
:1043000000473120452D302E3037353030204632B1
:104310003130302E3030303030004D3130370047C2
:104320003120583530205935352045332E36323737
:104330003733004731205832303020593535204549
:10434000302E34393338360047312058323030205F
:104350005937352045332E36323737330047312031
:10436000583530205937352045302E3439333836DA
:1043700000473120583530205939352045332E3605
:1043800032373733004731205832303020593935F1
:104390002045302E343933383600473120583230FA
:1043A0003020593131352045332E363237373300FE
:1043B00047312058353020593131352045302E34A1
:1043C00039333836004731205835302059313335AC
:1043D0002045332E363237373300473120583230BC
:1043E0003020593133352045302E363631373400C0
:1043F0004731205832303020593135352045322E62
:104400003632373733004731205831303020593178
:104410003535204532004731205837352059313560
:10442000352045322E3500473120463130383000B6
:104430004731205A302E3135302046373230302E39
:104440003030300047312058353020593135350073
:104450004731204634303030004D32303420533133
:10446000303030004731205A352046373230302E38
:1044700030303000473120452D312E35303030304E
:104480002046323130302E3030303030004D38332D
:104490000047393000473231004739322045302E4D
:1044A0003000473120583130302E30204531322E07
:1044B000352046313030302E3000473120583630EC
:1044C0002E302045392E302046313030302E30000D
:1044D00047312058352E302045342E30204631309B
:1044E00030302E30004731205A302E3230204631C5
:1044F0003030302E30004731205835352E302045B1
:1045000032352046313430302E3000473120592D9D
:10451000322E302046313030302E30004731205896
:104520003234302E30204532352E30202046323283
:1045300030302E30004739322045302E30004731A0
:10454000205A302E332046313030302E3000473163
:10455000205835352E302045382E30204632303028
:10456000302E300047312058352E30204533322E42
:10457000302046313830302E300047312058353524
:104580002E30204533322E302046313037332E3016
:10459000004731205A302E342046313030302E3012
:1045A00000473120592D332E302046313030302E07
:1045B00030004D3833004739322045302E30004727
:1045C0003238004D3130392053323135004D3139D8
:1045D0003020533630004D31343020533630004DCA
:1045E0003130342053323135004D3130370062756F
:1045F00073793A2070617573656420666F72206903
:104600006E70757400627573793A207061757365A8
:104610006420666F72207573657200627573793AF3
:104620002070726F63657373696E67002046004780
:1046300031205A0020460047312045004D383300D4
:104640006F6B0A0000002110422063308440A550A7
:10465000C660E770088129914AA16BB18CC1ADD1C8
:10466000CEE1EFF13112100273325222B552944270
:10467000F772D662399318837BB35AA3BDD39CC318
:10468000FFF3DEE36224433420040114E664C774BC
:10469000A44485546AA54BB528850995EEE5CFF568
:1046A000ACC58DD55336722611163006D776F66610
:1046B0009556B4465BB77AA719973887DFF7FEE7B8
:1046C0009DD7BCC7C448E5588668A77840086118DC
:1046D00002282338CCC9EDD98EE9AFF94889699908
:1046E0000AA92BB9F55AD44AB77A966A711A500AB0
:1046F000333A122AFDDBDCCBBFFB9EEB799B588B58
:104700003BBB1AABA66C877CE44CC55C222C033CFB
:10471000600C411CAEED8FFDECCDCDDD2AAD0BBDA7
:10472000688D499D977EB66ED55EF44E133E322E4F
:10473000511E700E9FFFBEEFDDDFFCCF1BBF3AAFF7
:10474000599F788F8891A981CAB1EBA10CD12DC155
:104750004EF16FE18010A100C230E32004502540EB
:1047600046706760B9839893FBA3DAB33DC31CD34B
:104770007FE35EF3B1029012F322D232354214523B
:1047800077625672EAB5CBA5A89589856EF54FE597
:104790002CD50DC5E234C324A0148104667447648B
:1047A00024540544DBA7FAB79987B8975FE77EF7EB
:1047B0001DC73CD7D326F2369106B01657667676DB
:1047C000154634564CD96DC90EF92FE9C899E989B7
:1047D0008AB9ABA94458654806782768C018E1082B
:1047E0008238A3287DCB5CDB3FEB1EFBF98BD89B8B
:1047F000BBAB9ABB754A545A376A167AF10AD01A7B
:10480000B32A923A2EFD0FED6CDD4DCDAABD8BADD6
:10481000E89DC98D267C076C645C454CA23C832CCA
:10482000E01CC10C1FEF3EFF5DCF7CDF9BAFBABF2A
:10483000D98FF89F176E367E554E745E932EB23E1A
:10484000D10EF01E7C3C3E5E2B3D3F2F5B5D3B2C32
:104850002A225C001000C90210012C014001220133
:1048600070011801B0010E01F00104015002FA00BC
:10487000B002F0003003E600D003DC009004D20068
:104880007005C800A006BE000008B400B009AA0068
:10489000D00BA000600E960060118C000015820005
:1048A00020197800C01D6E00A0226400B0275A00B5
:1048B000902C500000314600E0343C0010383200AB
:1048C000903A2800603C1E00A03D1400803E0A0083
:1048D000203F000070012C0190012701B00122014E
:1048E000C0011D01F00118011002130130020E0178
:1048F0006002090190020401C002FF000003FA00F7
:104900004003F5008003F000D003EB002004E60034
:104910007004E100E004DC004005D700C005D200CF
:104920004006CD00D006C8008007C3003008BE0096
:10493000F008B900C009B400B00AAF00B00BAA007B
:10494000D00CA500000EA000500F9B00C0109600D8
:104950005012910000148C00C0158700B01782001F
:10496000B0197D00D01B7800001E730040206E003F
:1049700090226900F024640040275F0090295A00CB
:10498000E02B5500102E500020304B001032460016
:10499000E033410090353C0010373700703832006A
:1049A000A0392D00B03A2800A03B2300603C1E0037
:1049B000103D1900903D1400103E0F00703E0A009B
:1049C000C03E0500003F000090137D00B015780048
:1049D000F0177300601A6E00F01C6900A01F6400DD
:1049E00050225F0020255A00E0275500902A5000F1
:1049F000202D4B00A02F4600F031410010343C0028
:104A0000F0353700A037320020392D00603A2800F9
:104A1000703B2300603C1E00203D1900C03D140087
:104A2000403E0F00A03E0A00F03E0500403F00005F
:104A3000703FFBFF903FF6FFB03FF1FFC03FECFF40
:104A4000D03FE7FFE03FE2FFF03FDDFFF03FD8FF60
:104A500020484F54454E4420544845524D414C2027
:104A600052554E4157415900204845415442454412
:104A700020544845524D414C2052554E41574159C2
:104A800000544845524D414C2052554E41574159D2
:104A90000042454420544845524D414C2052554E09
:104AA000415741590020544845524D414C205255E0
:104AB0004E415741592028205052454845415420E5
:104AC000484F54454E44290020544845524D414CCE
:104AD0002052554E415741592028205052454845B3
:104AE00041542048454154424544290050524548CC
:104AF000454154204552524F5200424544205052A5
:104B00004548454154204552524F52004572723A31
:104B1000204D415854454D50003A204578747275E7
:104B2000646572207377697463686564206F666674
:104B30002E204D415854454D502074726967676569
:104B40007265642021004572723A204D41585445E7
:104B50004D50204245440054656D70657261747516
:104B6000726520686561746564206265642073778E
:104B7000697463686564206F66662E204D415854E1
:104B8000454D502074726967676572656420210025
:104B90004572723A204D494E54454D50204245448D
:104BA0000054656D70657261747572652068656129
:104BB00074656420626564207377697463686564F2
:104BC000206F66662E204D494E54454D502074721C
:104BD000696767657265642021004572723A204DED
:104BE000494E54454D50003A2045787472756465BD
:104BF00072207377697463686564206F66662E201F
:104C00004D494E54454D5020747269676765726511
:104C100064202100746D63323133305F686F6D65DD
:104C20005F656E74657228617865735F6D61736B23
:104C30003D307825303278290A00746D6332313383
:104C4000305F686F6D655F6578697420746D63327D
:104C50003133305F73675F686F6D696E675F61786E
:104C600065735F6D61736B3D3078253032780A0073
:104C700020003E003E0020003E003E0054656D7066
:104C8000657261747572652063616C6962726174CA
:104C9000696F6E206661696C65642E20436F6E7467
:104CA000696E7565207769746820707265737369C1
:104CB0006E6720746865206B6E6F622E0054656DA0
:104CC00070657261747572652063616C696272618E
:104CD00074696F6E20646F6E652E20436F6E746909
:104CE0006E75652077697468207072657373696E7C
:104CF0006720746865206B6E6F622E005A30202822
:104D00004C4544206F6E2920005A3120284C4544E0
:104D1000206F66662900502E492E4E2E442E412EBD
:104D200020737461746500473830004D3435004D90
:104D30003435205A004737360054656D706572610E
:104D4000747572652063616C6962726174696F6EFB
:104D5000206661696C65640054656D70657261748C
:104D60007572652063616C6962726174696F6E202F
:104D700069732066696E697368656420616E64207A
:104D80006163746976652E2054656D702E206361B1
:104D90006C6962726174696F6E2063616E20626516
:104DA0002064697361626C656420696E206D656E54
:104DB000752053657474696E67732D3E54656D700C
:104DC0002E2063616C2E00457874727564657200E4
:104DD0004D6F7665205A004D6F76652059004D6FF6
:104DE00076652058001B5B324A4372617368206409
:104DF0006574656374696F6E2063616E1B5B313B24
:104E000030486265207475726E6564206F6E206F25
:104E10006E6C7920696E1B5B323B30484E6F726D51
:104E2000616C206D6F6465001B5B324A5741524EC6
:104E3000494E473A1B5B313B3048437261736820EF
:104E4000646574656374696F6E1B5B323B304864E4
:104E5000697361626C656420696E1B5B333B30482B
:104E6000537465616C7468206D6F6465004175747E
:104E70006F6C6F6164696E672066696C616D656EE9
:104E80007420617661696C61626C65206F6E6C790B
:104E9000207768656E2066696C616D656E7420733D
:104EA000656E736F72206973207475726E6564200D
:104EB0006F6E2E2E2E004552524F523A2046696C8C
:104EC000616D656E742073656E736F7220697320F7
:104ED0006E6F7420726573706F6E64696E672C20DC
:104EE000706C6561736520636865636B20636F6ECA
:104EF0006E656374696F6E2E0043616C69627261E6
:104F0000746500526573756D696E67207072696EA5
:104F10007400537570706F7274004661696C207311
:104F2000746174730053746174697374696373207A
:104F3000200043616C6962726174696F6E00417533
:104F4000746F4C6F61642066696C616D656E74008E
:104F5000556E6C6F61642066696C616D656E74007E
:104F6000456A6563742066696C616D656E74004C9A
:104F70006F616420746F206E6F7A7A6C65004C6F7D
:104F800061642066696C616D656E74004E6F2053BC
:104F9000442063617264005072696E742066726F9F
:104FA0006D20534400526573756D65207072696E93
:104FB00074005061757365207072696E7400507270
:104FC00065686561740054756E65004C697665208E
:104FD00061646A757374205A00496E666F2073634A
:104FE0007265656E0046696E697368696E67206DEB
:104FF0006F76656D656E747300536F756E642020F7
:10500000202020205B6C6F75645D00536F756E64AB
:105010002020202020205B6D7574655D00536F7526
:105020006E64202020205B73696C656E745D005394
:105030006F756E642020202020205B6F6E63655D9D
:1050400000536F756E642020202020205B6C6F75EC
:10505000645D004372617368206465742E20205B78
:105060004E2F415D004372617368206465742E2089
:1050700020205B6F6E5D004372617368206465740D
:105080002E20205B6F66665D004D6F6465202020DA
:10509000205B537465616C74685D004D6F646520BE
:1050A000202020205B4E6F726D616C5D0046696C44
:1050B0002E2073656E736F7220205B6F6E5D0046ED
:1050C000696C2E2073656E736F72205B6F66665D10
:1050D000004368616E67652066696C616D656E741A
:1050E00000466C6F770053706565640046616E2002
:1050F000737065656400426564004E6F7A7A6C6512
:105100000053657474696E6773005072696E742021
:1051100061626F7274656400596573004E6F00536D
:10512000746F70207072696E740046696C652069D6
:105130006E636F6D706C6574652E20436F6E74695D
:105140006E756520616E797761793F004D61696E9A
:10515000004D3730322043004661726D206E756D10
:10516000626572004D363030004D3234004D3233BE
:1051700020257300052E2E0043616E6E6F7420652E
:105180006E746572207375626469723A20005344CC
:105190002063617264206F6B006F70656E526F6F79
:1051A00074206661696C656400766F6C756D652E40
:1051B000696E6974206661696C6564005344206996
:1051C0006E6974206661696C0057726974696E67F4
:1051D00020746F2066696C653A200046696C652012
:1051E00073656C6563746564002053697A653A2061
:1051F0000046696C65206F70656E65643A20001F1B
:105200001F1F1F1F1F1F1F2E002E004E6F772066AF
:10521000726573682066696C653A20004E6F77206E
:10522000646F696E672066696C653A2000222070A1
:105230006F73002220706172656E743A22005355BC
:1052400042524F5554494E452043414C4C207461C5
:10525000726765743A2200747279696E6720746FA0
:105260002063616C6C207375622D67636F646520C9
:1052700066696C6573207769746820746F6F206D40
:10528000616E79206C6576656C732E204D415820D7
:105290006C6576656C2069733A00536F7274696E41
:1052A000672066696C657300536F6D652066696C75
:1052B00065732077696C6C206E6F74206265207353
:1052C0006F727465642E204D61782E204E6F2E20F3
:1052D0006F662066696C657320696E203120666F89
:1052E0006C64657220666F7220736F7274696E678A
:1052F000206973203130302E0046696C616D656E17
:10530000742073656E736F7200537761707065649B
:105310000046726F6E742F6C6566742066616E73E2
:1053200000417869730041786973206C656E677419
:1053300068004C6F6F73652070756C6C6579004503
:105340006E6473746F70206E6F74206869740045AA
:105350006E6473746F70004D6F746F7200456E648D
:1053600073746F707300576972696E67206572722B
:105370006F7200426564202F204865617465720079
:105380004E6F7420636F6E6E65637465640048656C
:10539000617465722F546865726D6973746F720001
:1053A000506C6561736520636865636B203A0053D8
:1053B000656C6674657374206572726F722021006B
:1053C00046696C616D656E742073656E736F723AB9
:1053D000005072696E742066616E3A00457874728E
:1053E000756465722066616E3A0053656C6674651B
:1053F0007374206661696C6564202000416C6C20C8
:10540000636F72726563742020202020200043683F
:1054100065636B696E672073656E736F72732000CE
:10542000436865636B696E67206265642020202095
:105430002000436865636B696E67205A2061786954
:1054400073202000436865636B696E672059206193
:10545000786973202000436865636B696E67205824
:105460002061786973202000436865636B696E670B
:1054700020686F74656E64202000436865636B6903
:105480006E6720656E6473746F7073004572726F1F
:1054900072202D20737461746963206D656D6F7265
:1054A0007920686173206265656E206F766572771A
:1054B00072697474656E00436172642072656D6F09
:1054C000766564004361726420696E736572746509
:1054D00064002D2D2D2D2D2D2D2D2D2D2D2D2D2DF2
:1054E0002D2D2D2D2D2D0043616C69627261746923
:1054F0006E6720686F6D65000000000000110A04EF
:10550000505255534133444657002079303D25646D
:105510000A002078303D25640A004F4B0A004552AE
:10552000524F522061643D25640A002020207A30C9
:105530003D25640A00207A303D25640A0020793038
:105540003D25640A002078303D25640A0078797A88
:1055500063616C5F66696E645F706F696E745F63D0
:10556000656E746572320A0020746F6F206C6F6E06
:105570006720657874727573696F6E2070726576D6
:10558000656E7465640020636F6C64206578747266
:105590007573696F6E2070726576656E74656400F0
:1055A000352E302E342D545A4200726300626574D9
:1055B0006100616C706861006465760078797A6377
:1055C000616C5F73706972616C322063783D256431
:1055D0002063793D2564207A303D256420647A3D3E
:1055E0002564207261646975733D25642061643DA2
:1055F00025640A0001021020200808102040102015
:105600004080020102010804020101020408102086
:105610004080804020100804020180040201804084
:1056200020100804020108040201010204081020ED
:1056300040800102040810204080100804088010F7
:1056400020400440801020400480000022002500FB
:1056500028002B002E00310034000201000005015B
:1056600008010B01050505050705080808080202E1
:1056700002020A0A080804040404010101010101EC
:1056800001010303030303030303040707070C0CCF
:105690000C0C0C0C0C0C0202020206060606060696
:1056A00006060B0B0B0B0B0B0B0B07070A0A0A0A60
:1056B0000A0A050505040404080802746D63323102
:1056C00033305F676F746F5F73746570202564207B
:1056D0002564202564202564200A002E006F706553
:1056E0006E206661696C65642C2046696C653A20A1
:1056F0000022206661696C65643A204275666665C1
:10570000722066756C6C21002200256920686F7517
:105710007273202569206D696E7574657300544934
:105720004D454F55543A004D3131300046756C6C43
:105730002052582042756666657200656E71756507
:10574000696E67202200446F6E65207072696E7406
:10575000696E672066696C65005072696E74657267
:105760002073746F707065642064756520746F2099
:105770006572726F72732E20466978207468652096
:105780006572726F7220616E6420757365204D3989
:10579000393920746F20726573746172742E2028F9
:1057A00054656D70657261747572652069732072DD
:1057B000657365742E205365742069742061667466
:1057C00065722072657374617274696E6729004E28
:1057D0006F204C696E65204E756D62657220776929
:1057E000746820636865636B73756D2C204C6173FE
:1057F00074204C696E653A20004E6F2043686563E3
:105800006B73756D2077697468206C696E65206EA6
:10581000756D6265722C204C617374204C696E65E5
:105820003A2000636865636B73756D206D69736DF5
:10583000617463682C204C617374204C696E653A06
:1058400020004C696E65204E756D6265722069732B
:10585000206E6F74204C617374204C696E65204E0D
:10586000756D6265722B312C204C617374204C690C
:105870006E653A200053544F505045442E2000008E
:1058800000A0400000A040000000402533642073C9
:105890007465703D253264206D73636E743D2534EC
:1058A000640A0000007F43008058439AD95143FFA7
:1058B000FFFF46696C616D656E74206F7574206FB3
:1058C000662072616E6765202564200A0067636F39
:1058D00064655F4D37303120626567696E0A006626
:1058E00073656E736F725F73746F705F616E645F08
:1058F000736176655F7072696E740A006673656EB7
:10590000736F725F726573746F72655F7072696EC8
:10591000745F616E645F636F6E74696E75650A00B3
:1059200044495341424C45440A00454E41424C458E
:1059300044004653656E736F722025530A00504130
:1059400054393132355F696E69743A256868750A71
:1059500000504154393132355F696E69743A2568B7
:1059600068750A00504154393132355F696E697487
:105970003A256868750A0050415439313235206E35
:105980006F7420726573706F6E64696E672028256E
:105990006429210A006673656E736F725F617574A6
:1059A0006F6C6F61645F636865636B5F7374617272
:1059B00074202D206175746F6C6F616420454E41B9
:1059C000424C45440A006673656E736F725F617581
:1059D000746F6C6F61645F636865636B5F73746F32
:1059E00070202D206175746F6C6F61642044495381
:1059F00041424C45440A00545249474745524544A8
:105A00000057616974696E6720666F72206E6F7AE5
:105A10007A6C6520616E642062656420636F6F6CD0
:105A2000696E670053656C662074657374204F4B14
:105A30000053656C662074657374207374617274AE
:105A40002020006C63645F73656C66636865636BDC
:105A50005F617869732025642C2025640A004D3825
:105A600034004731205A313520463130303000473C
:105A7000323820570025632041584953205347317D
:105A80003D25640A0041786973206C656E6774680F
:105A900020646966666572656E63653A252E3366B5
:105AA0000A004D65617375726564206178697320C1
:105AB0006C656E6774683A252E33660A004D323481
:105AC000004D3233202573006175746F25692E6790
:105AD0000022206661696C65643A204275666665DD
