:100000000C94CF2D0C94002E0C94002E0C94002EEA
:100010000C94002E0C94E1C20C94002E0C94002E33
:100020000C9472C60C94002E0C9415830C94002E24
:100030000C94002E0D9430300C94002E0C94002E55
:100040000C94002E0C948D970C94002E0C94002E82
:100050000C94002E0C94002E0D94CF0B0D94717DFA
:100060000C94002E0C94B4930C94002E0C94002E3F
:100070000C94002E0C94002E0C94002E0C94002E48
:100080000C94002E0C94002E0C94002E0C94002E38
:100090000C9470930C94002E0C94002E0C94002E53
:1000A0000C94002E0C94002E0C94002E0C94002E18
:1000B0000C94002E0C94002E0C94002E0C94002E08
:1000C0000C94002E0C94002E0C94002E0C94E0AA9C
:1000D0000C94002E0C94002E0C94002E0C94002EE8
:1000E0000C94002EBB81BF81C581CE81E781048243
:1000F0004182788287DB9DDBB0DBBDDBC7DBF5DBD4
:1001000007DC0DDC1BDC1FDC21DC2BDC3CDC4CDCED
:10011000A201E001BE016801DE01DC01D801D401C9
:10012000B201320138017E0178019E018201D201C3
:10013000C4015E012C0148012001A801DA01A601D9
:100140007201C401580186019601A0013C0194018D
:10015000BA01540184017A016001CE01B0016C0141
:1001600056012201CA01840142015A01B601084A1E
:10017000D73B3BCE016E84BCBFFDC12F3D6C7431BB
:100180009ABD56833DDA3D00C77F11BED9E4BB4C12
:100190003E916BAAAABE000000803F05A84CCDB2DC
:1001A000D44EB93836A9020C50B9918688083CA6BD
:1001B000AAAA2ABE000000803F07634236B79BD838
:1001C000A71A39685618AEBAAB558C1D3CB7CC5738
:1001D00063BD6DEDFD753EF6177231BF0000008006
:1001E0003F08000000BE922449123EABAAAA2ABED4
:1001F000CDCCCC4C3E00000080BEABAAAAAA3E00EB
:10020000000000BF000000803F0000000000084127
:1002100078D3BB4387D1133D190E3CC3BD4282AD99
:100220002B3E68EC8276BED98FE1A93E4C80EFFF71
:10023000BE01C4FF7F3F0000000000000D94BB7DA5
:100240000D94B7780D945F7B0D94D3800D94662C3C
:100250000D9457130D94ED2E0D94AD780D948419D3
:100260000D942F800D941A380D94DC2C0D94551399
:100270000D9431380D94BC050D94FF7A0D94692CC2
:100280000D9448810D94737B0D94DA2C0D94F180BC
:100290000D94B3780D949B240D94CC160D94EC7FA3
:1002A0000D9497340D949F810D94187B0D94507B81
:1002B0000D94CF780D947D7B0D9473240D94A978C3
:1002C0000D942A7B0D9482810D94E32E0D944E7F24
:1002D0000D94C8370D946F2C0D94467B0D94231705
:1002E0000D94B3800D94C9780D94A17F0D942B814A
:1002F0000D94A5780D94227B0D940E810D94A27817
:100300000D9491240D9498780D94917B0D94D3784D
:100310000D946B2F0D94DE2C0D94E22C0D94C48063
:100320000D94A0240D9465810D94047B0D94D778D1
:100330000D94EF7E0D94737F0D94E1160D949478D7
:100340000D94FA7A0D94A2370D94E72E0D94C5788A
:100350000D94BB780D94792F0D9435180D94441A93
:100360000D943C7B0D940C380D9484130D94877B75
:100370000D94F22E0D940E7B0D9496240D94B637A9
:100380000D94D29C0D9463050D94DC780D941B9212
:100390000D943D7E0D94697B0D94722C0D94327BEF
:1003A0000D94E02C0D949E780D94FE370D946C2CDA
:1003B0000D94F0370D94C1780D94EA370D94E4371D
:1003C0000D94B0376E616E00696E66004E414E4905
:1003D0004E495459494E46CDCCCC3D0AD7233C1703
:1003E000B7D13877CC2B329595E6241FB14F0A0050
:1003F0000020410000C84200401C4620BCBE4CCA40
:100400001B0E5AAEC59D7400407A10F35A00A072BC
:100410004E18090010A5D4E80000E876481700003F
:10042000E40B54020000CA9A3B000000E1F505000D
:100430000080969800000040420F000000A0860156
:10044000000000102700000000E803000000006426
:1004500000000000000A0000000000010000000091
:10046000002C76D888DC674F0823DFC1DFAE59E166
:10047000B1B796E5E3E453C63AE651997696E8E6D5
:10048000C28426EB898C9B62ED407C6FFCEFBC9CA8
:100490009F40F2BAA56FA5F490055A2AF75C936BBA
:1004A0006CF9676DC11BFCE0E40D47FEF520E6B575
:1004B00000D0ED902E0300943577050080841E084F
:1004C0000000204E0A000000C80C333333330F986D
:1004D0006E12831141EF8D2114893BE65516CFFE34
:1004E000E6DB18D1844B381BF77C1D901DA4BBE4C0
:1004F00024203284725E228100C9F124ECA1E53D02
:10050000276364696E6F70737578585B002564208B
:100510006279746573207772697474656E20746F84
:1005200020454550524F4D206174206164647265CE
:10053000737320307825303478004433202D2052D6
:100540006561642F577269746520454550524F4D5F
:100550000A0020436F756E7420583A2000534420DF
:100560007072696E74696E67206279746520004EDE
:100570006F7420696E206661726D206D6F64652EE8
:10058000004163746976652045787472756465729C
:100590003A2000496E76616C6964206578747275E2
:1005A000646572005A204F666673657400556E6B01
:1005B0006E6F776E20636F6D6D616E643A202200FE
:1005C0007A5F6D61783A20007A5F6D696E3A20003B
:1005D000795F6D61783A2000795F6D696E3A20002D
:1005E000785F6D61783A20006F70656E00545249F3
:1005F00047474552454400785F6D696E3A20005286
:1006000065706F7274696E6720656E6473746F7065
:1006100020737461747573000053494C454E540047
:100620004E4F524D414C002553204D4F44453A20EA
:1006300050657263656E7420646F6E653A20256440
:100640003B207072696E742074696D652072656DEF
:1006500061696E696E6720696E206D696E733A20FC
:1006600025640A00456E642066696C65206C6973B8
:100670007400426567696E2066696C65206C6973F9
:10068000740025643A2025640A000A50494E44410A
:100690002074656D70657261747572653A20252EDF
:1006A0003166205A20736869667420286D6D293A76
:1006B00020252E3366000A537465703A2025642F76
:1006C000360A000A537465703A2025642F362028B4
:1006D000736B6970706564290A50494E44412074F7
:1006E000656D70657261747572653A202564205A73
:1006F00020736869667420286D6D293A300A000AF3
:100700005A45524F3A20252E33660A00737461729F
:10071000742074656D70657261747572653A202518
:100720002E31660A0025642020252E3266002553CE
:1007300020583A20252E356620593A20252E356638
:10074000205A3A20252E35660A004E6F7420696EB5
:10075000206661726D206D6F64652E002564004512
:10076000303A25642052504D0A50524E303A25649A
:100770002052504D0A002564004175746F002045D9
:100780002F443D00416476616E6365204B3D004D12
:100790003232302053256900255346696C616D65FE
:1007A0006E742073657474696E67733A204469735C
:1007B00061626C65640A00255346696C616D656E03
:1007C000742073657474696E67733A0A2553202028
:1007D000204D3230302044252E32660A00255352F7
:1007E0006574726163743A20533D4C656E6774683A
:1007F00020286D6D2920463A537065656420286D68
:100800006D2F6D29205A3A205A4C69667420286D44
:100810006D290A25532020204D3230372053252EB4
:1008200032662046252E3266205A252E32660A254B
:10083000535265636F7665723A20533D4578747202
:1008400061206C656E67746820286D6D2920463ABA
:10085000537065656420286D6D2F6D290A2553201E
:1008600020204D3230382053252E32662046252E4A
:1008700032660A25534175746F2D52657472616337
:10088000743A20533D3020746F2064697361626C48
:10089000652C203120746F20696E746572707265EA
:1008A0007420657874727564652D6F6E6C79206D37
:1008B0006F766573206173207265747261637473FF
:1008C000206F72207265636F7665726965730A25A1
:1008D000532020204D323039205325640A002553FF
:1008E000504944206865617462656420736574745E
:1008F000696E67733A0A25532020204D3330342027
:1009000050252E32662049252E32662044252E326F
:10091000660A0025535049442073657474696E67F4
:10092000733A0A25532020204D3330312050252E94
:1009300032662049252E32662044252E32660A0072
:10094000255353746570732070657220756E6974D9
:100950003A0A255320204D39322058252E32662060
:1009600059252E3266205A252E32662045252E32F4
:10097000660A25534D6178696D756D2066656564FD
:100980007261746573202D206E6F726D616C20280A
:100990006D6D2F73293A0A255320204D32303320B4
:1009A00058252E32662059252E3266205A252E32A1
:1009B000662045252E32660A25534D6178696D758E
:1009C0006D20666565647261746573202D20737493
:1009D00065616C746820286D6D2F73293A0A255360
:1009E00020204D3230332058252E32662059252EB6
:1009F0003266205A252E32662045252E32660A257B
:100A0000534D6178696D756D20616363656C6572C6
:100A10006174696F6E202D206E6F726D616C20287D
:100A20006D6D2F7332293A0A255320204D32303113
:100A30002058256C752059256C75205A256C752019
:100A400045256C750A25534D6178696D756D20617A
:100A50006363656C65726174696F6E202D207374B9
:100A600065616C746820286D6D2F7332293A0A25F0
:100A70005320204D3230312058256C752059256C7B
:100A800075205A256C752045256C750A25534163E0
:100A900063656C65726174696F6E3A20533D616382
:100AA00063656C65726174696F6E2C20543D72656C
:100AB000747261637420616363656C6572617469EB
:100AC0006F6E0A255320204D3230342053252E32AC
:100AD000662054252E32660A2553416476616E6382
:100AE0006564207661726961626C65733A20533D7A
:100AF0004D696E20666565647261746520286D6D50
:100B00002F73292C20543D4D696E207472617665D7
:100B10006C20666565647261746520286D6D2F7345
:100B2000292C20423D6D696E696D756D2073656776
:100B30006D656E742074696D6520286D73292C2095
:100B4000583D6D6178696D756D205859206A6572E0
:100B50006B20286D6D2F73292C20205A3D6D6178F4
:100B6000696D756D205A206A65726B20286D6D2F36
:100B700073292C2020453D6D6178696D756D204588
:100B8000206A65726B20286D6D2F73290A2553200A
:100B9000204D3230352053252E32662054252E32FA
:100BA000662042252E32662058252E326620592591
:100BB0002E3266205A252E32662045252E32660AB0
:100BC0002553486F6D65206F666673657420286DC8
:100BD0006D293A0A255320204D3230362058252ED3
:100BE00032662059252E3266205A252E32660A009A
:100BF000504944204175746F74756E652066696E46
:100C00006973686564212050757420746865206C70
:100C1000617374204B702C204B6920616E64204BF3
:100C20006420636F6E7374616E74732066726F6D8F
:100C30002061626F766520696E746F20436F6E6607
:100C4000696775726174696F6E2E6800504944203F
:100C50004175746F74756E65206661696C65642199
:100C60002074696D656F75740020403A00543A0035
:100C7000423A00504944204175746F74756E652086
:100C80006661696C6564212054656D70657261747C
:100C900075726520746F6F206869676800204B6407
:100CA0003A2000204B693A2000204B703A20002067
:100CB000436C61737369632050494420002054756C
:100CC0003A2000204B753A2000206D61783A2000D0
:100CD000206D696E3A200020643A2000206269612C
:100CE000733A200020453A00205A3A0020593A0031
:100CF00020453A00205A3A0020593A00583A00005C
:100D00005A30005A310059300059310058300058DB
:100D10003100456E642073746F707320646961677D
:100D2000002E0044656C6574696F6E206661696CA5
:100D300065642C2046696C653A200046696C652024
:100D400064656C657465643A004E6F74205344208A
:100D50007072696E74696E67005072696E74207388
:100D600061766564005344207072696E742070610E
:100D700075736564000A002F000A002F2F2061633D
:100D800074696F6E3A63616E63656C0043524153E0
:100D9000485F43414E43454C0043524153485F52E4
:100DA00045434F5645520043524153485F524543D5
:100DB0004F5645520022283229005400496E766170
:100DC0006C6964205420636F64652E00556E6B6EF1
:100DD0006F776E204D20636F64653A202573200A7B
:100DE000006E6F2076616C696420636F6D6D616E5B
:100DF00064002C20002C20002C20006E2F61002C81
:100E000020002C20002C20006E2F61002F00503A73
:100E1000005761697420666F722050494E4441202A
:100E20007461726765742074656D70657261747544
:100E300072653A004C414E472053454C20464F5274
:100E400043454400222831290030303030303030E2
:100E5000302D303030302D303030302D303030309B
:100E60002D303030303030303030303030002055A0
:100E70005549443A00310020455854525544455292
:100E80005F434F554E543A00507275736120693379
:100E9000204D4B3300204D414348494E455F545946
:100EA00050453A00312E3000206261736564206F36
:100EB0006E204D61726C696E204649524D57415209
:100EC000455F55524C3A68747470733A2F2F6769B6
:100ED000746875622E636F6D2F7072757361336401
:100EE0002F50727573612D4669726D77617265203E
:100EF00050524F544F434F4C5F56455253494F4EFB
:100F00003A004649524D574152455F4E414D453A90
:100F100050727573612D4669726D7761726520003C
:100F20004D31313320530020423A0020453A0054DD
:100F30003A0020413A0020503A002042403A002036
:100F4000403A00202F003A00205400202F00204279
:100F50003A00202F006F6B20543A002569206D69FC
:100F60006E2C2025692073656300496E76616C697B
:100F700064204D20636F64653A202573200A005574
:100F80006E6B6E6F776E204720636F64653A202525
:100F900073200A004D65736820626564206C657675
:100FA000656C696E67206E6F742061637469766525
:100FB0002E000A002020000A4D6561737572656479
:100FC00020706F696E74733A000A5A2073656172FB
:100FD0006368206865696768743A20002C004E7564
:100FE0006D20582C593A2000206D6963726F6E7322
:100FF0000045786365737369766520626564206C6B
:101000006576656C696E6720636F7272656374697B
:101010006F6E3A20004732382057300050494E4416
:10102000412070726F62652063616C6962726174E5
:10103000696F6E20737461727400473238205730C4
:10104000004D3234005345545F43484F505F0053C6
:1010500045545F535445505F005345545F574156C4
:10106000455F00544D435F0043524153485F005079
:1010700072657373206B6E6F6220746F207072657F
:1010800068656174206E6F7A7A6C6520616E642089
:10109000636F6E74696E75652E00506C6561736563
:1010A00020707265737320746865206B6E6F6220A8
:1010B000746F20756E6C6F61642066696C616D651C
:1010C0006E7400616E64207072657373207468655D
:1010D000206B6E6F6200496E736572742066696C76
:1010E000616D656E7400436F6C6F72206E6F74205B
:1010F000636F72726563740046696C616D656E74CE
:10110000206E6F74206C6F61646564004368616E6B
:1011100067656420636F72726563746C793F004C1D
:101120006F6164696E6720636F6C6F720043686102
:101130006E676520737563636573732100506C651A
:10114000617365206F70656E2069646C65722061E3
:101150006E642072656D6F76652066696C616D6581
:101160006E74206D616E75616C6C792E00576173C1
:101170002066696C616D656E7420756E6C6F61645C
:10118000207375636365737366756C3F00506C659F
:1011900061736520757067726164652E004E6577B6
:1011A000206669726D776172652076657273696F0A
:1011B0006E20617661696C61626C653A00576169A5
:1011C00074696E6720666F722050494E44412070EA
:1011D000726F626520636F6F6C696E670043726146
:1011E00073682064657465637465642E205265734A
:1011F000756D65207072696E743F0043726173682B
:101200002064657465637465642E00457874727536
:101210006465720043686F6F7365206578747275DA
:101220006465723A004D32303020496E76616C69E7
:101230006420657874727564657220004E6F206D4D
:101240006F76652E005761697420666F7220757322
:1012500065722E2E2E00536F6D652070726F626C5A
:10126000656D20656E636F756E74657265642C20A4
:101270005A2D6C6576656C6C696E6720656E666F5D
:1012800072636564202E2E2E00537461626C65209B
:10129000616D6269656E742074656D7065726174EC
:1012A0007572652032312D323643206973206E65A8
:1012B0006564656420612072696769642073746184
:1012C0006E642069732072657175697265642E00A1
:1012D000506C656173652072756E2058595A206391
:1012E000616C6962726174696F6E20666972737491
:1012F0002E00536C6565702E2E2E0073746172740F
:101300000A006164635F696E69740A001B5B324A9C
:101310001B5B313B31484F726967696E616C2050CD
:10132000727573612069331B5B323B3348507275B1
:10133000736120526573656172636800466163740E
:101340006F72792052455345540044656320203222
:10135000203230313800436F6D70696C65643A201B
:1013600000286E6F6E652C2064656661756C742054
:10137000636F6E66696729004465632020322032FE
:101380003031382031353A34363A33310020352E79
:10139000302E342D545A422D393939390A0020550E
:1013A000706C6F616420696E2070726F6772657314
:1013B0007300205A3A0020593A0020583A0043520C
:1013C0004153485F444554454354454458590043AC
:1013D000524153485F4445544543544544590043A2
:1013E000524153485F444554454354454458004D89
:1013F0003239005072757361206933204D4B3320B0
:1014000072656164792E00426C61636B6F75742044
:101410006F636375727265642E205265636F7665C3
:1014200072207072696E743F0053656C66746573E8
:10143000742077696C6C2062652072756E20746F01
:101440002063616C696272617465206163637572A7
:101450006174652073656E736F726C65737320724F
:1014600065686F6D696E672E0054686572652069E6
:1014700073207374696C6C2061206E6565642074E0
:101480006F206D616B65205A2063616C69627261C7
:1014900074696F6E2E20506C6561736520666F6C89
:1014A0006C6F7720746865206D616E75616C2C209F
:1014B0006368617074657220466972737420737416
:1014C0006570732C2073656374696F6E2043616C63
:1014D0006962726174696F6E20666C6F772E00505E
:1014E00072696E74657220686173206E6F74206219
:1014F00065656E2063616C696272617465642079F0
:1015000065742E20506C6561736520666F6C6C6F1E
:101510007720746865206D616E75616C2C2063683E
:10152000617074657220466972737420737465709B
:10153000732C2073656374696F6E2043616C6962FC
:10154000726174696F6E20666C6F772E004F6C64E9
:101550002073657474696E677320666F756E642E90
:101560002044656661756C74205049442C20457395
:1015700074657073206574632E2077696C6C2062CB
:1015800065207365742E005761726E696E673A202C
:10159000626F7468207072696E74657220747970FD
:1015A0006520616E64206D6F74686572626F617230
:1015B000642074797065206368616E6765642E00CD
:1015C0005761726E696E673A207072696E746572E7
:1015D0002074797065206368616E6765642E0057BA
:1015E00061726E696E673A206D6F74686572626FC2
:1015F0006172642074797065206368616E676564E8
:101600002E002020506C616E6E65724275666665B4
:101610007242797465733A20002046726565204DE8
:10162000656D6F72793A2000204C6173742055709B
:1016300064617465643A200045787465726E616C0B
:101640002053504920666C617368205732355832F8
:1016500030434C206E6F7420726573706F6E6469D6
:101660006E672E004372617368446574656374200D
:1016700044495341424C4544004372617368446598
:101680007465637420454E41424C45442100207CE2
:1016900020417574686F723A200020536F6674772A
:1016A00061726520526573657400205761746368C8
:1016B000646F67205265736574002042726F776EA5
:1016C000206F7574205265736574002045787465C9
:1016D000726E616C20526573657400506F7765722D
:1016E0005570006572726F722077726974696E67E7
:1016F00020746F2066696C6500656E6473746F702A
:1017000073206869743A2000446F6E6520736176B7
:10171000696E672066696C652E006F6B0058595AB8
:101720002063616C6962726174696F6E20616C6CB8
:101730002072696768742E20536B65772077696C17
:101740006C20626520636F727265637465642061EA
:1017500075746F6D61746963616C6C792E00585992
:101760005A2063616C6962726174696F6E20616C8A
:101770006C2072696768742E20582F592061786533
:10178000732061726520736C696768746C7920736B
:101790006B657765642E20476F6F64206A6F6221E6
:1017A0000058595A2063616C6962726174696F6E86
:1017B000206F6B2E20582F5920617865732061723D
:1017C000652070657270656E646963756C61722EF8
:1017D00020436F6E67726174756C6174696F6E73AC
:1017E000210058595A2063616C6962726174696F93
:1017F0006E206661696C65642E205269676874208A
:1018000066726F6E742063616C6962726174696F75
:101810006E20706F696E74206E6F742072656163E4
:101820006861626C652E0058595A2063616C696268
:10183000726174696F6E206661696C65642E204602
:10184000726F6E742063616C6962726174696F6E2D
:1018500020706F696E7473206E6F7420726561639F
:101860006861626C652E0058595A2063616C696228
:10187000726174696F6E206661696C65642E2050B8
:101880006C6561736520636F6E73756C742074682A
:1018900065206D616E75616C2E0058595A20636128
:1018A0006C6962726174696F6E20636F6D70726FC4
:1018B0006D697365642E2052696768742066726F63
:1018C0006E742063616C6962726174696F6E2070FE
:1018D0006F696E74206E6F742072656163686162F7
:1018E0006C652E0058595A2063616C69627261748C
:1018F000696F6E20636F6D70726F6D697365642EB2
:101900002046726F6E742063616C696272617469E3
:101910006F6E20706F696E7473206E6F74207265C5
:1019200061636861626C652E0058595A2063616C6E
:101930006962726174696F6E206661696C65642E9C
:10194000204265642063616C6962726174696F6EC4
:1019500020706F696E7420776173206E6F742066DB
:101960006F756E642E00506C6561736520706C61DC
:10197000636520737465656C207368656574206F9A
:101980006E20686561746265642E004469737461D9
:101990006E6365206265747765656E20746970207A
:1019A0006F6620746865206E6F7A7A6C6520616E50
:1019B0006420746865206265642073757266616373
:1019C0006520686173206E6F74206265656E207398
:1019D0006574207965742E20506C6561736520668E
:1019E0006F6C6C6F7720746865206D616E75616CCB
:1019F0002C2063686170746572204669727374206C
:101A000073746570732C2073656374696F6E204600
:101A100069727374206C617965722063616C6962AC
:101A2000726174696F6E2E00506C61636520612075
:101A30007368656574206F662070617065722075CB
:101A40006E64657220746865206E6F7A7A6C6520AA
:101A5000647572696E67207468652063616C696281
:101A6000726174696F6E206F66206669727374208C
:101A70003420706F696E74732E2049662074686517
:101A8000206E6F7A7A6C6520636174636865732079
:101A90007468652070617065722C20706F77657254
:101AA000206F666620746865207072696E74657256
:101AB00020696D6D6564696174656C792E00506C88
:101AC000656173652072656D6F76652073746565F9
:101AD0006C2073686565742066726F6D206865613F
:101AE000746265642E00497320737465656C20739D
:101AF00068656574206F6E20686561746265643F17
:101B000000206F66203400536561726368696E67F8
:101B1000206265642063616C6962726174696F6ED2
:101B200020706F696E7400206F662039004D65610A
:101B3000737572696E67207265666572656E63653E
:101B400020686569676874206F662063616C6962EC
:101B5000726174696F6E20706F696E7400506C658D
:101B600061736520636C65616E20746865206E6FBB
:101B70007A7A6C6520666F722063616C696272614B
:101B800074696F6E2E20436C69636B207768656E95
:101B900020646F6E652E004175746F20686F6D65EF
:101BA0000078797A63616C5F6D65617373757265D6
:101BB0005F656E7465720A0078797A63616C5F7331
:101BC000706972616C382063783D25642063793DCB
:101BD0002564207A303D256420647A3D2564207296
:101BE00061646975733D25642061643D25640A0064
:101BF00078797A63616C5F7365617263685A206E8D
:101C00006F207369676E616C0A20783D256C6420D3
:101C1000793D256C64207A3D256C640A00204F4E86
:101C20002D5349474E414C20617420783D25642056
:101C3000793D2564207A3D25642061643D25640A50
:101C40000078797A63616C5F7365617263685A20AA
:101C5000783D256C6420793D256C64207A3D256CA7
:101C6000640A000A00253032780078797A63616C62
:101C70005F7363616E5F706978656C735F33327830
:101C800033322063783D25642063793D2564206DDF
:101C9000696E5F7A3D2564206D61785F7A3D2564C9
:101CA0000A00202532642025640A000A002530320B
:101CB0007800206D696E3D2564206D61783D256456
:101CC000206469663D25640A006D61785F633D2587
:101CD0003264206D61785F6C3D25640A006D617827
:101CE0005F633D2564206D61785F723D2564206DE2
:101CF00061785F6D617463683D25640A0020783DFA
:101D0000256420793D2564207A3D25640A002070F1
:101D100061747465726E20666F756E6420617420E4
:101D200025642025640A000000F000F801FC03FE91
:101D300007FE07FE07FE07FC03F801F00000007332
:101D4000697A656F6628746F74616C293D25640A31
:101D50000073697A656F6628626C6F636B5F62758A
:101D600066666572293D25640A0078797A63616C3C
:101D70005F6D656173737572655F6C656176650A29
:101D800000706F696E743D256420783D256420796C
:101D90003D2564207A3D25640A0058025802584DBA
:101DA000584DB004F055F055B00478797A63616C01
:101DB0005F66696E645F6265645F696E64756374B3
:101DC000696F6E5F73656E736F725F706F696E744B
:101DD0005F787920783D256C6420793D256C6420FE
:101DE0007A3D256C640A00203C20005741524E4940
:101DF0004E473A2046726F6E7420706F696E742081
:101E00006E6F7420726561636861626C652E205923
:101E100020636F6F7264696E6174653A0000000040
:101E200040410000C04000005C430000C040000092
:101E30005C430000464300004041000046434974B3
:101E400065726174696F6E3A200043616C696272F9
:101E50006174696F6E206661696C656421204368F6
:101E600065636B20746865206178657320616E64BA
:101E70002072756E20616761696E2E002569206889
:101E80006F757273202569206D696E7574657300B6
:101E900054494D454F55543A004D31313000467547
:101EA0006C6C2052582042756666657200667365D8
:101EB0006E736F725F726573746F72655F70726953
:101EC0006E745F616E645F636F6E74696E75650AD0
:101ED0000044495341424C45440A00454E41424C5E
:101EE0004544004653656E736F722025530A0050B7
:101EF0004154393132355F696E69743A25686875C5
:101F00000A00504154393132355F696E69743A259F
:101F10006868750A0050415439313235206E6F744B
:101F200020726573706F6E64696E6720282564295E
:101F3000210A00446F6E65207072696E74696E6765
:101F40002066696C65005072696E746572207374E6
:101F50006F707065642064756520746F206572729F
:101F60006F72732E204669782074686520657272DE
:101F70006F7220616E6420757365204D3939392088
:101F8000746F20726573746172742E202854656DAD
:101F9000706572617475726520697320726573650E
:101FA000742E2053657420697420616674657220F4
:101FB00072657374617274696E6729004E6F204C8C
:101FC000696E65204E756D62657220776974682050
:101FD000636865636B73756D2C204C617374204C62
:101FE000696E653A20004E6F20436865636B7375B8
:101FF0006D2077697468206C696E65206E756D62FE
:1020000065722C204C617374204C696E653A200017
:10201000636865636B73756D206D69736D6174635F
:10202000682C204C617374204C696E653A20004C1A
:10203000696E65204E756D626572206973206E6FE2
:1020400074204C617374204C696E65204E756D620E
:1020500065722B312C204C617374204C696E653A8B
:1020600020006673656E736F725F6175746F6C6F5D
:1020700061645F636865636B5F7374617274202D64
:10208000206175746F6C6F616420454E41424C4510
:10209000440A006673656E736F725F6175746F6C6E
:1020A0006F61645F636865636B5F73746F70202D2D
:1020B000206175746F6C6F61642044495341424CD8
:1020C00045440A0053544F505045442E2000536558
:1020D0007474696E67732053746F7265640053740F
:1020E0006F7265642073657474696E6773207265BE
:1020F000747269657665640048617264636F6465D3
:10210000642044656661756C742053657474696EEF
:102110006773204C6F6164656400563200000000F4
:10212000C8420000C8420000C84300008C430000C1
:10213000484300004843000040410000F042E803EB
:102140000000E8030000C800000088130000004001
:102150009C4400409C440000000000000000204E11
:1021600000000000204100002041CDCCCC3E00000A
:102170002040000000000000000000000000CDCC66
:10218000CC3E3D0A8141FF08433EB099AB438F42AC
:10219000FC42E65A343F4C62B0450000000000406B
:1021A0004000003442000000000000000000000079
:1021B00041000000E03F0000C8420000C8420000AB
:1021C00040410000F042C0030000C0030000C8000E
:1021D000000088130000454550524F4D2045727253
:1021E0006F7200436F6E74696E75652077697468ED
:1021F00020616E6F7468657220626F7764656E3FF0
:102200000025002020202020200020202020202029
:102210000045524153494E4720616C6C2064617403
:102220006100466163746F727920524553455400D2
:1022300000007F4300805443000052430000000030
:10224000000080C09A99193E00000000000080C084
:102250009A99193E24F4D43050C38E20C2A240175C
:10226000828B7011127A910D816CD90AA861E108F4
:10227000C7586607615143061E4B5D05C145A7045B
:102280001A411104093D9803713931034036DB02CC
:1022900065339102D4305402802E1D02632CEE016E
:1022A000752AC501B028A001102781018F2564017E
:1022B0002B244B01E0223401AC211F018D200D01A4
:1022C000801FFC00841EED00971DDF00B81CD200AB
:1022D000E61BC600201BBC00641AB200B219A8009D
:1022E0000A19A0006A189900D117910040178B00B5
:1022F000B516840031167E00B31579003A157300C7
:10230000C7146F0058146A00EE1366008813630048
:1023100025135E00C7125B006C12570015125400A3
:10232000C111510070114F0021114B00D61049000E
:102330008D1047004610440002104200C00F4000BC
:10234000800F3E00420F3C00060F3B00CB0E3800D2
:10235000930E37005C0E3500270E3400F30D32006B
:10236000C10D3100900D3000600D2E00320D2D009A
:10237000050D2C00D90C2B00AE0C2900850C290072
:102380005C0C2700350C27000E0C2600E80B2400FF
:10239000C40B2400A00B23007D0B23005A0B21004B
:1023A000390B2100180B2000F80A1F00D90A1E0063
:1023B000BB0A1E009D0A1D00800A1D00630A1C0046
:1023C000470A1B002C0A1B00110A1A00F7091A0001
:1023D000DD091900C4091900AB0919009209170099
:1023E0007B091800630917004C091600360916000E
:1023F000200916000A091500F5081500E008140068
:10240000CC081400B8081400A408140090081300A5
:102410007D0812006B0813005808120046081200CD
:1024200034081100230811001208110001081100DE
:10243000F0071000E0071000D0071000C0071000E0
:10244000B0070F00A107100091070E0083070F00CF
:1024500074070F0065070E0057070E0049070E00AE
:102460003B070D002E070E0020070D0013070D007F
:1024700006070D00F9060C00ED060D00E0060C0045
:10248000D4060C00C8060C00BC060C00B0060C00FC
:10249000A4060B0099060C008D060B0082060B00AB
:1024A00077060B006C060B0061060A0057060B004E
:1024B0004C060A0042060A0038060A002E060A00E8
:1024C00024060A001A060A001006090007060A0078
:1024D000FD050900F4050900EB050900E205090006
:1024E000D9050900D0050900C7050900BE05090086
:1024F000B5050800AD050800A50509009C05080004
:10250000940508008C050800840508007C05080077
:10251000740508006C050700650508005D050700E7
:10252000560508004E05070047050700400508004E
:1025300038050700310507002A05070023050700B5
:102540001C050600160507000F0507000805060014
:1025500002050700FB040600F5040700EE04060070
:10256000E8040600E2040700DB040600D5040600C8
:10257000CF040600C9040600C3040600BD0406001B
:10258000B7040600B1040500AC040600A60406006A
:10259000A00405009B0406009504050090040600B5
:1025A0008A04050085040500800406007A040500FD
:1025B00075040500700405006B0405006604050041
:1025C000610405005C040500570405005204050081
:1025D0004D04050048040500430405003E040400C2
:1025E0003A04050035040500300404002C040500FD
:1025F00027040400230405001E0404001A04040038
:1026000016040500110404000D040400090405006B
:102610000404040000040400FC030400F8030400A4
:10262000F4030400F0030400EC030400E8030400D6
:10263000E4030400E0030400DC030400D803040006
:10264000D4030400D0030400CC030400C803030037
:10265000C503030024F404D9201BC40C5C0E9804A9
:10266000C4095F0265077101F405F900FB04B300BA
:1026700048048700C103690058035500030345005F
:10268000BE023A008402310053022A0029022500CA
:1026900004022000E4011C00C8011900AF0117006A
:1026A00098011400840113007101100061011000F1
:1026B00051010E0043010D0036010B002B010B00F0
:1026C00020010B00150109000C010900030108009D
:1026D000FB000800F3000800EB000700E400060020
:1026E000DE000600D8000600D2000600CC0005007F
:1026F000C7000500C2000500BD000400B9000400C9
:10270000B5000400B1000400AD000400A9000400FD
:10271000A5000300A20003009F0004009B0003002B
:10272000980003009500020093000300900003004E
:102730008D0002008B00030088000200860002006A
:1027400084000300810002007F0002007D0002007F
:102750007B00020079000200770001007600020091
:102760007400020072000100710002006F0002009C
:102770006D0001006C0002006A00010069000200A7
:1027800067000100660001006500010064000200AE
:102790006200010061000100600001005F000200B2
:1027A0005D0001005C0001005B0001005A000100B7
:1027B00059000100580001005700010056000100B7
:1027C00055000100540001005300000053000100B7
:1027D0005200010051000100500001004F000100B3
:1027E0004E0000004E0001004D0001004C000100B1
:1027F0004B0000004B0001004A00010049000100AD
:1028000048000000480001004700010046000000A9
:1028100046000100450000004500010044000100A1
:10282000430000004300010042000000420001009C
:102830004100000041000100400001003F00000095
:102840003F0001003E0000003E0001003D0000008E
:102850003D0001003C0000003C0000003C00010085
:102860003B0000003B0001003A0000003A0001007C
:102870003900000039000100380000003800000075
:10288000380001003700000037000100360000006A
:102890003600000036000100350000003500000061
:1028A0003500010034000000340000003400010055
:1028B000330000003300000033000100320000004C
:1028C0003200000032000100310000003100000041
:1028D0003100010030000000300000003000010035
:1028E0002F0000002F0000002F0000002F0001002B
:1028F0002E0000002E0000002E0001002D00000020
:102900002D0000002D0000002D0001002C00000013
:102910002C0000002C0000002C0001002B00000007
:102920002B0000002B0000002B0001002A000000FB
:102930002A0000002A0000002A00010029000000EF
:1029400029000000290000002900000029000100E2
:1029500028000000280000002800000028000000D7
:1029600028000100270000002700000027000000C9
:1029700027000000270001002600000026000000BC
:1029800026000000260000002600010025000000AF
:1029900025000000250000002500000025000000A3
:1029A0002500010024000000240000002400000095
:1029B0002400000024000100230000002300000088
:1029C000230000002300000023000000230000007B
:1029D000230001002200000022000000220000006D
:1029E000220000002200000022000100210000005F
:1029F0002100000021000000210000002100000053
:102A00002100000021000100200000002000000043
:102A10002000000020000000200000002000000036
:102A200020000000200001001F0000001F00000027
:102A30001F0000001F0000001F0000001F0000001A
:102A40001F0001001E0000001E0000001E0000000C
:102A50001E000000544D4320445249564552204F19
:102A600056455254454D500025632533642F256447
:102A70002563005A25362E326620005A2020202D4C
:102A80002D2D200025632533642525002D2D2D00B7
:102A900025336868640025335325337325250020CA
:102AA000534400202020005553420020463020206F
:102AB0000025632D2D3A2D2D20200025632533750B
:102AC000682025632563002563253032753A25305B
:102AD00032752563256300726573756C74207661A9
:102AE0006C75653A2025640A0020693D2532642012
:102AF000636E743D2532642076616C3D2532640A34
:102B000000636C7573746572733A0A0020693D2521
:102B1000326420737465703D2532640A00736F72ED
:102B20007465642073616D706C65733A0A000A55B0
:102B3000415254322052582030782532580A003AF7
:102B400020002020202020202020202020202020A5
:102B5000202020202000203A20002020202020209B
:102B60002020202020202020202020202020002085
:102B7000202020202020202020202020002573003D
:102B800050494E44412048656174696E6700546540
:102B90006D702E2063616C2E2020202020202020AC
:102BA00020200043616C6962726174696F6E2064F9
:102BB0006F6E650043616C6962726174696E672053
:102BC0005A0042656420646F6E6500426564204867
:102BD000656174696E670048656174696E67206439
:102BE0006F6E652E0048656174696E670000002194
:102BF00010422063308440A550C660E770088129E8
:102C0000914AA16BB18CC1ADD1CEE1EFF13112107F
:102C10000273325222B5529442F772D66239931837
:102C2000837BB35AA3BDD39CC3FFF3DEE36224438B
:102C30003420040114E664C774A44485546AA54B87
:102C4000B528850995EEE5CFF5ACC58DD55336721F
:102C50002611163006D776F6669556B4465BB77AD7
:102C6000A719973887DFF7FEE79DD7BCC7C448E5AB
:102C7000588668A7784008611802282338CCC9ED27
:102C8000D98EE9AFF9488969990AA92BB9F55AD4BF
:102C90004AB77A966A711A500A333A122AFDDBDC77
:102CA000CBBFFB9EEB799B588B3BBB1AABA66C87CB
:102CB0007CE44CC55C222C033C600C411CAEED8FC7
:102CC000FDECCDCDDD2AAD0BBD688D499D977EB65F
:102CD0006ED55EF44E133E322E511E700E9FFFBE17
:102CE000EFDDDFFCCF1BBF3AAF599F788F8891A9EA
:102CF00081CAB1EBA10CD12DC14EF16FE18010A1C1
:102D000000C230E3200450254046706760B98398C4
:102D100093FBA3DAB33DC31CD37FE35EF3B1029010
:102D200012F322D2323542145277625672EAB5CB90
:102D3000A5A89589856EF54FE52CD50DC5E234C360
:102D400024A01481046674476424540544DBA7FA64
:102D5000B79987B8975FE77EF71DC73CD7D326F2B0
:102D6000369106B01657667676154634564CD96DB0
:102D7000C90EF92FE9C899E9898AB9ABA944586500
:102D80004806782768C018E1088238A3287DCB5C04
:102D9000DB3FEB1EFBF98BD89BBBAB9ABB754A5450
:102DA0005A376A167AF10AD01AB32A923A2EFD0FD0
:102DB000ED6CDD4DCDAABD8BADE89DC98D267C07A0
:102DC0006C645C454CA23C832CE01CC10C1FEF3EA4
:102DD000FF5DCF7CDF9BAFBABFD98FF89F176E36F0
:102DE0007E554E745E932EB23ED10EF01E7C3C3E5C
:102DF0005E2B3D3F2F5B5D3B2C2A225C0022206630
:102E000061696C65643A2042756666657220667514
:102E10006C6C21002200656E717565696E672022F9
:102E20000020423A0020453A00543A00494E5434BA
:102E3000007265636F7665725F6D616368696E6568
:102E40005F73746174655F61667465725F706F77DC
:102E500065725F70616E69632C20696E6974696167
:102E60006C20007265636F7665725F6D616368697F
:102E70006E655F73746174655F61667465725F70BF
:102E80006F7765725F70616E69632C20696E69741B
:102E900069616C200047393220450050525553413A
:102EA0002075766C6F004734205330004D32362049
:102EB00053256C75004D3130362053004D383200AB
:102EC0004731204625640047312045322A64656633
:102ED00061756C745F72657472616374696F6E2082
:102EE00046343830004731205A00204632303030E6
:102EF0000020590047312058004D383300506F737F
:102F00006974696F6E20726561642066726F6D20EE
:102F1000656570726F6D3A004D3233202573002E57
:102F200067636F0046656564726174653A00473196
:102F300020452D64656661756C745F72657472619D
:102F40006374696F6E204634383000473120453550
:102F50002046313230004D3833004D313930205366
:102F60002564004D31303920532564004732382024
:102F7000582059004731205A323520463830300029
:102F8000627573793A2070617573656420666F723B
:102F900020696E70757400627573793A207061757E
:102FA00073656420666F7220757365720062757355
:102FB000793A2070726F63657373696E670020469B
:102FC000004731205A0020460047312045004D3847
:102FD00033006F6B0A0055564C4F202D20656E64F0
:102FE0002025640A007374707325640A00776F7279
:102FF0006C6420636F6F7264696E617465733A20EC
:1030000028252E33662C20252E33662C20252E33A2
:1030100066290A00706879736963616C20636F6F59
:103020007264696E617465733A2028252E33662CAC
:1030300020252E33662C20252E3366290A00437561
:103040007272656E7420706F73205A5F41584953D5
:103050003A252E33660A43757272656E7420706F5E
:103060007320455F415849533A252E33660A004183
:10307000667465722077616974696E6720666F7225
:103080002074656D703A0A43757272656E742070B3
:103090006F7320585F415849533A252E33660A43CF
:1030A000757272656E7420706F7320595F41584954
:1030B000533A252E33660A005265636F766572694E
:1030C0006E67207072696E742020202000566F6C2D
:1030D00074616765730054656D70657261747572B3
:1030E00065730042656C7420737461747573004578
:1030F0007874727564657220696E666F0058595AEB
:103100002063616C2E2064657461696C730046698C
:103110006C616D656E7420657874727564696E6734
:103120002026207769746820636F7272656374204B
:10313000636F6C6F723F00507265686561742074D4
:103140006865206E6F7A7A6C6521004552524F5245
:103150003A004175746F6C6F6164696E67206669CF
:103160006C616D656E742069732061637469766546
:103170002C206A757374207072657373207468658F
:10318000206B6E6F6220616E6420696E736572746D
:103190002066696C616D656E742E2E2E00546F74FE
:1031A000616C207072696E742074696D6500546F73
:1031B00074616C2066696C616D656E740050726933
:1031C0006E742074696D650046696C616D656E741E
:1031D0002075736564005269676874004C65667495
:1031E00000592064697374616E63652066726F6D47
:1031F000206D696E0053657665726520736B657727
:1032000000536C6967687420736B6577004D656166
:10321000737572656420736B6577005B303B305D5E
:1032200020706F696E74206F666673657400416408
:103230006A757374696E67205A005265736574000D
:10324000526561722073696465205B756D5D00462F
:10325000726F6E7420736964655B756D5D00526991
:1032600067687420736964655B756D5D004C6566A5
:10327000742073696465205B756D5D00536574200F
:1032800074656D70657261747572653A00466C6143
:10329000736841697220495020416464723A004D5C
:1032A0004D5532202020202020204E2F41004D4D12
:1032B0005532202020202020204E2F41002D2D2D62
:1032C0002D2D2D2D2D2D2D2D2D00207265706F2073
:1032D000556E6B6E6F776E0020352E302E342D5468
:1032E0005A422D39393939004669726D77617265F4
:1032F0003A0025642E25642E25642E2564004D3762
:103300003032004D37303100457874727564657223
:10331000006D6D000059005800580059005A0025F2
:1033200063252E3132533A2573252B30362E3366E2
:10333000001B5B324A2553203A1B5B313B39482541
:10334000382E3266206D0A2553203A0A25376C64E0
:1033500064203A253268686468203A25303268680B
:1033600064206D001B5B324A25533A1B5B313B36B0
:103370004825382E32666D200A2553203A1B5B33D0
:103380003B38482532646820253032646D20253072
:103390003264730025362E32666D6D004E2F41006B
:1033A0001B5B303B304825533A0A25530A25533AD4
:1033B0000A25533A001B5B303B3135484E2F410004
:1033C0001B5B303B31354825342E326601001B5BD8
:1033D000303B304825533A0A25530A25533A2020DA
:1033E00025352E3266010A25533A202025352E3206
:1033F00066010052756E6E696E672057697A617258
:10340000642077696C6C2064656C657465206375F5
:103410007272656E742063616C6962726174696F47
:103420006E20726573756C747320616E64207374A2
:103430006172742066726F6D2074686520626567C2
:10344000696E6E696E672E20436F6E74696E756566
:103450003F0050726568656174696E67206E6F7AAF
:103460007A6C652E20506C65617365207761697494
:103470002E004C6F6164696E672066696C616D65D2
:103480006E7400506C6561736520696E736572744B
:1034900020504C412066696C616D656E7420746FBC
:1034A000207468652065787472756465722C207468
:1034B00068656E207072657373206B6E6F62207426
:1034C0006F206C6F61642069742E00596F752063E2
:1034D000616E20616C7761797320726573756D65BB
:1034E000207468652057697A6172642066726F6D16
:1034F0002043616C6962726174696F6E202D3E2099
:1035000057697A6172642E00506C6561736520633F
:103510006865636B206F75722068616E64626F6F9F
:103520006B20616E64206669782074686520707213
:103530006F626C656D2E205468656E2072657375C0
:103540006D65207468652057697A617264206279BC
:10355000207265626F6F74696E6720746865207091
:1035600072696E7465722E00416C6C206973206400
:103570006F6E652E204861707079207072696E746C
:10358000696E672100506C6561736520636C6561CD
:103590006E206865617462656420616E6420746881
:1035A000656E20707265737320746865206B6E6F32
:1035B000622E00446F20796F752077616E742074DD
:1035C0006F20726570656174206C61737420737410
:1035D000657020746F20726561646A75737420640D
:1035E000697374616E6365206265747765656E20CA
:1035F0006E6F7A7A6C6520616E64206865617462B2
:1036000065643F00492077696C6C20737461727443
:1036100020746F207072696E74206C696E65206111
:103620006E6420796F752077696C6C2067726164B5
:1036300075616C6C79206C6F776572207468652099
:103640006E6F7A7A6C6520627920726F746174692A
:103650006E6720746865206B6E6F622C20756E74C7
:10366000696C20796F75207265616368206F707472
:10367000696D616C206865696768742E20436865B0
:10368000636B20746865207069637475726573205C
:10369000696E206F75722068616E64626F6F6B2057
:1036A000696E20636861707465722043616C696241
:1036B000726174696F6E2E004E6F772049207769B2
:1036C0006C6C2063616C69627261746520646973FB
:1036D00074616E6365206265747765656E207469D8
:1036E00070206F6620746865206E6F7A7A6C652032
:1036F000616E6420686561746265642073757266CA
:103700006163652E00497320697420504C41206626
:10371000696C616D656E743F0053656C6563742000
:103720006E6F7A7A6C65207072656865617420745A
:10373000656D70657261747572652077686963681C
:10374000206D61746368657320796F7572206D6197
:1037500074657269616C2E004E6F7720492077691D
:103760006C6C2070726568656174206E6F7A7A6C1B
:103770006520666F7220504C412E004973206669A7
:103780006C616D656E74206C6F616465643F004EA2
:103790006F7720492077696C6C207072656865616D
:1037A00074206E6F7A7A6C6520666F7220504C417F
:1037B0002E00492077696C6C2072756E207A206328
:1037C000616C6962726174696F6E206E6F772E0032
:1037D0004E6F772072656D6F766520746865207412
:1037E000657374207072696E742066726F6D2073D9
:1037F0007465656C2073686565742E00506C656136
:1038000073652072656D6F76652073686970706985
:103810006E672068656C7065727320666972737478
:103820002E00492077696C6C2072756E2078797A49
:103830002063616C6962726174696F6E206E6F776C
:103840002E2049742077696C6C2074616B6520614F
:103850007070726F782E203132206D696E732E0079
:1038600046697273742C20492077696C6C207275DC
:103870006E207468652073656C667465737420745B
:103880006F20636865636B206D6F737420636F6D69
:103890006D6F6E20617373656D626C792070726FED
:1038A000626C656D732E0048692C204920616D2083
:1038B000796F7572204F726967696E616C20507202
:1038C000757361206933207072696E7465722E2081
:1038D000576F756C6420796F75206C696B65206D0E
:1038E0006520746F20677569646520796F75207431
:1038F00068726F7567682074686520736574757089
:103900002070726F636573733F00452D636F727231
:10391000656374005A2D636F727265637400592D6C
:10392000636F727265637400582D636F72726563A2
:103930007400536F756E642020202020205B6C6F14
:1039400075645D00536F756E642020202020205B1D
:103950006D7574655D00536F756E64202020205B6B
:1039600073696C656E745D00536F756E6420202002
:103970002020205B6F6E63655D00536F756E642061
:1039800020202020205B6C6F75645D00536F727483
:103990003A2020202020205B6E6F6E655D00536F03
:1039A00072743A20205B616C7068616265745D00BE
:1039B000536F72743A2020202020205B74696D655B
:1039C0005D005344206361726420205B6E6F726DF2
:1039D000616C5D0053442063617264205B666C73AC
:1039E000684169725D0052506920706F72742020C6
:1039F0002020205B6F6E5D0052506920706F7274E2
:103A0000202020205B6F66665D0054656D702E205F
:103A100063616C2E2020205B6F6E5D0054656D70BD
:103A20002E2063616C2E20205B6F66665D004C6902
:103A30006E2E20636F7272656374696F6E004661EB
:103A40006E7320636865636B20205B6F66665D0044
:103A500046616E7320636865636B2020205B6F6E28
:103A60005D00462E206175746F6C6F6164205B6F22
:103A700066665D00462E206175746F6C6F61642010
:103A8000205B6F6E5D00462E206175746F6C6F61F8
:103A900064205B4E2F415D0046696C2E2073656E7D
:103AA000736F72205B4E2F415D0044697361626CDD
:103AB00065207374657070657273004D6F76652054
:103AC000617869730054656D7065726174757265B3
:103AD0000054656D702E2063616C69627261746957
:103AE0006F6E0052657365742058595A2063616C7B
:103AF0006962722E0053686F772070696E6461206E
:103B00007374617465005049442063616C6962722A
:103B10006174696F6E00426564206C6576656C2027
:103B2000636F7272656374004D65736820426564EB
:103B3000204C6576656C696E670043616C696272E2
:103B4000617465205A0043616C696272617465201A
:103B500058595A0053656C66746573742020202090
:103B60002020202020004669727374206C617965E2
:103B7000722063616C2E0057697A617264004C6F29
:103B800061642066696C616D656E742034004C6FF1
:103B900061642066696C616D656E742033004C6FE2
:103BA00061642066696C616D656E742032004C6FD3
:103BB00061642066696C616D656E742031004C6FC4
:103BC000616420616C6C004C6F61642066696C619B
:103BD0006D656E742035004C6F61642066696C61A0
:103BE0006D656E742034004C6F61642066696C6191
:103BF0006D656E742033004C6F61642066696C6182
:103C00006D656E742032004C6F61642066696C6172
:103C10006D656E74203100456A6563742066696C59
:103C2000616D656E74203500456A65637420666950
:103C30006C616D656E74203400456A65637420663E
:103C4000696C616D656E74203300456A656374202C
:103C500066696C616D656E74203200456A656374D7
:103C60002066696C616D656E74203100506C656111
:103C700073652070756C6C206F75742066696C615B
:103C80006D656E7420696D6D6564696174656C79CC
:103C900000556E6C6F6164696E672066696C616D5A
:103CA000656E740057697A61726420656E64207372
:103CB000746174653A2025640A0057697A617264F8
:103CC0002073746174653A202564004469736162ED
:103CD0006C65206661726D206D6F6465004661726F
:103CE0006D206E756D626572004D3834004D343450
:103CF0000047323820570047393900446973616200
:103D00006C65206661726D206D6F64653F0043686D
:103D10006F6F736520636F6C6F723A0052657365E5
:103D20006E640048656174696E67206469736162DE
:103D30006C656420627920736166657479207469AA
:103D40006D65722E004B494C4C45442E200050723C
:103D5000696E7465722068616C7465642E206B698D
:103D60006C6C28292063616C6C656421004D3130D6
:103D70003420496E76616C6964206578747275646C
:103D8000657220004D31303520496E76616C696472
:103D900020657874727564657220004D3130392069
:103DA000496E76616C6964206578747275646572B9
:103DB00020004D32313820496E76616C696420658F
:103DC0007874727564657220004D32323120496E0C
:103DD00076616C6964206578747275646572200020
:103DE00025533A20256C640A25530A002079645F24
:103DF0006D696E3D25752079645F6D61783D25752F
:103E00002079645F6176673D25752073685F617610
:103E1000673D25750A002073745F73756D3D2575C8
:103E20002079645F73756D3D25752065725F7375CC
:103E30006D3D25752065725F6D61783D25686875FB
:103E40000A00004B494C4C3A2025640A0066736511
:103E50006E736F725F6F715F6D656173737572659D
:103E60005F73746F702C20256868752073616D70A6
:103E70006C65730A006673656E736F725F6F715F56
:103E80006D656173737572655F73746172740A0036
:103E90006673656E736F725F73746F705F616E646B
:103EA0005F736176655F7072696E740A004D3630BB
:103EB00030004653454E534F525F5245434F56458F
:103EC00052006673656E736F725F757064617465BE
:103ED000202D204D3630300A006673656E736F7288
:103EE0005F6572725F636E74203D20300A00473157
:103EF000204533204632303000473120452D3320D5
:103F000046323030004D3730310020573A002045DE
:103F10003A00543A005A206C6976652061646A75EB
:103F20007374206F7574206F662072616E67652EE2
:103F30002053657474696E6720746F20302E20439F
:103F40006C69636B20746F20636F6E74696E756546
:103F50002E005A206C6976652061646A757374203E
:103F60006F7574206F662072616E67652E205365D1
:103F70007474696E6720746F2030004375727265C7
:103F80006E74005573656420647572696E67207085
:103F900072696E74005049442063616C2E2066691A
:103FA0006E6973686564005049442063616C2E201B
:103FB0002020202020202020202000506C656173CC
:103FC000652077616974004D31313720466972731D
:103FD00074206C617965722063616C2E0050726987
:103FE0006E742070617573656400496E76616C69EA
:103FF00064205049442063616C2E20726573756C97
:1040000074732E204E6F742073746F726564207405
:104010006F20454550524F4D2E004D3530300047F2
:1040200031205A31352046313530300047393100A2
:10403000473120583530205931393020453020461D
:104040003730303000473930004D373032004D378F
:1040500030322043004D3730322055004D3730325A
:10406000004731205A31352046313530300047394C
:104070003100473120583530205931393020453012
:10408000204637303030004D383300473930004D4E
:104090003834004D313034205330004D383400472F
:1040A00031205831302059313830204634303030CA
:1040B000004731205A31302046313330302E3030F5
:1040C00030004D313430205330004D3130342053E6
:1040D0003000473120452D302E30373530302046E6
:1040E000323130302E3030303030004D313037000A
:1040F000473120583530205935352045332E36325A
:104100003737330047312058323030205935352089
:1041100045302E343933383600473120583230306C
:10412000205937352045332E363237373300473163
:1041300020583530205937352045302E3439333822
:104140003600473120583530205939352045332E37
:104150003632373733004731205832303020593922
:10416000352045302E343933383600473120583227
:10417000303020593131352045332E363237373300
:104180000047312058353020593131352045302E07
:1041900034393338360047312058353020593133DF
:1041A000352045332E3632373733004731205832E9
:1041B000303020593133352045302E3636313734C2
:1041C00000473120583230302059313535204532C2
:1041D0002E363237373300473120583130302059AE
:1041E0003135352045320047312058373520593197
:1041F00035352045322E35004731204631303830B4
:10420000004731205A302E31353020463732303099
:104210002E30303000473120583530205931353577
:10422000004731204634303030004D323034205396
:1042300031303030004731205A3520463732303067
:104240002E30303000473120452D312E3530303082
:10425000302046323130302E3030303030004D3862
:10426000330047393000473231004739322045307A
:104270002E3000473120583130302E302045313239
:104280002E352046313030302E3000473120583620
:10429000302E302045392E302046313030302E300F
:1042A000004739322045302E3000473238004D313A
:1042B00030392053323135004D31393020533630CA
:1042C000004D31343020533630004D3130342053DE
:1042D000323135004D3130370020003E003E0020A5
:1042E000003E003E0054656D7065726174757265C4
:1042F0002063616C6962726174696F6E20666169C6
:104300006C65642E20436F6E74696E7565207769E5
:104310007468207072657373696E672074686520B5
:104320006B6E6F622E0054656D706572617475728C
:10433000652063616C6962726174696F6E20646F7D
:104340006E652E20436F6E74696E75652077697493
:1043500068207072657373696E6720746865206B7E
:104360006E6F622E005A3020284C4544206F6E2913
:1043700020005A3120284C4544206F6666290050A1
:104380002E492E4E2E442E412E20737461746500EA
:10439000473830004D3435004D3435205A0047370A
:1043A000360054656D706572617475726520636165
:1043B0006C6962726174696F6E206661696C6564B4
:1043C0000054656D70657261747572652063616C0F
:1043D0006962726174696F6E2069732066696E69C3
:1043E0007368656420616E64206163746976652E0C
:1043F0002054656D702E2063616C6962726174690E
:104400006F6E2063616E2062652064697361626C07
:10441000656420696E206D656E75205365747469DE
:104420006E67732D3E54656D702E2063616C2E0097
:104430004578747275646572004D6F7665205A0018
:104440004D6F76652059004D6F76652058001B5BD7
:10445000324A437261736820646574656374696F7E
:104460006E2063616E1B5B313B3048626520747562
:10447000726E6564206F6E206F6E6C7920696E1BA2
:104480005B323B30484E6F726D616C206D6F6465BE
:10449000001B5B324A5741524E494E473A1B5B3133
:1044A0003B30484372617368206465746563746966
:1044B0006F6E1B5B323B304864697361626C65648C
:1044C00020696E1B5B333B3048537465616C7468C4
:1044D000206D6F6465004175746F6C6F6164696E07
:1044E000672066696C616D656E7420617661696CC8
:1044F00061626C65206F6E6C79207768656E2066EE
:10450000696C616D656E742073656E736F7220697E
:1045100073207475726E6564206F6E2E2E2E0045AA
:1045200052524F523A2046696C616D656E74207329
:10453000656E736F72206973206E6F74207265737D
:10454000706F6E64696E672C20706C656173652096
:10455000636865636B20636F6E6E656374696F6E0D
:104560002E0043616C69627261746500506C656114
:104570007365206C6F616420504C412066696C61EA
:104580006D656E742066697273742E0049732050D5
:104590004C412066696C616D656E74206C6F61645E
:1045A00065643F0046696C616D656E7400000E13B2
:1045B00015110E00000004120912040000001C1F57
:1045C00011111F00000006191803130C00040E1F20
:1045D000041C000000040A0A0A0A11110E001F152B
:1045E00011151F0000000103161C08000000001137
:1045F0000A04110A040C12120C00000000256325A5
:104600002D3138532563002563252E3135533A2546
:1046100073253364002563252E3132533A257325E3
:1046200000457872656D65207370616E206F66203D
:10463000746865205A2076616C75657321000000EE
:104640004041000000400000E44200000040000043
:10465000574300000040000057430000C4420000E0
:10466000E4420000C442000040410000C442000097
:104670004041000042430000E44200004243000089
:10468000574300004243205B6F66665D00426564ED
:10469000206C6576656C696E67206661696C65641F
:1046A0002E2053656E736F72206469646E7420747B
:1046B0007269676765722E20446562726973206F44
:1046C0006E206E6F7A7A6C653F2057616974696EEF
:1046D0006720666F722072657365742E001000C9C2
:1046E0000210012C014001220170011801B0010EDD
:1046F00001F00104015002FA00B002F0003003E6BC
:1047000000D003DC009004D2007005C800A006BEF3
:10471000000008B400B009AA00D00BA000600E96FB
:104720000060118C000015820020197800C01D6EF9
:1047300000A0226400B0275A00902C50000031469F
:1047400000E0343C0010383200903A2800603C1EF3
:1047500000A03D1400803E0A00203F000070012CA4
:104760000190012701B0012201C0011D01F00118D3
:10477000011002130130020E0160020901900204CF
:1047800001C002FF000003FA004003F5008003F0BF
:1047900000D003EB002004E6007004E100E004DC3C
:1047A000004005D700C005D2004006CD00D006C8A5
:1047B000008007C3003008BE00F008B900C009B48B
:1047C00000B00AAF00B00BAA00D00CA500000EA0EC
:1047D00000500F9B00C01096005012910000148CE6
:1047E00000C0158700B0178200B0197D00D01B787B
:1047F00000001E730040206E0090226900F02464C7
:104800000040275F0090295A00E02B5500102E50E1
:104810000020304B0010324600E033410090353C20
:10482000001037370070383200A0392D00B03A2818
:1048300000A03B2300603C1E00103D1900903D1479
:1048400000103E0F00703E0A00C03E0500003F0011
:104850000090137D00B0157800F0177300601A6E99
:1048600000F01C6900A01F640050225F0020255A40
:1048700000E0275500902A5000202D4B00A02F4625
:1048800000F031410010343C00F0353700A03732E1
:104890000020392D00603A2800703B2300603C1E48
:1048A00000203D1900C03D1400403E0F00A03E0A0C
:1048B00000F03E0500403F0000703FFBFF903FF6D8
:1048C000FFB03FF1FFC03FECFFD03FE7FFE03FE22A
:1048D000FFF03FDDFFF03FD8FF20484F54454E44E6
:1048E00020544845524D414C2052554E4157415954
:1048F00000204845415442454420544845524D41CA
:104900004C2052554E4157415900544845524D4153
:104910004C2052554E41574159004245442054487D
:1049200045524D414C2052554E415741590020545B
:104930004845524D414C2052554E4157415920282F
:10494000205052454845415420484F54454E442933
:104950000020544845524D414C2052554E4157413C
:10496000592028205052454845415420484541543B
:104970004245442900505245484541542045525231
:104980004F5200424544205052454845415420452D
:1049900052524F52004572723A204D415854454D83
:1049A00050003A2045787472756465722073776997
:1049B0007463686564206F66662E204D41585445C7
:1049C0004D502074726967676572656420210045E7
:1049D00072723A204D415854454D50204245440092
:1049E00054656D7065726174757265206865617477
:1049F0006564206265642073776974636865642008
:104A00006F66662E204D415854454D502074726992
:104A10006767657265642021004572723A204D49CE
:104A20004E54454D50204245440054656D706572AA
:104A3000617475726520686561746564206265647F
:104A4000207377697463686564206F66662E204DF5
:104A5000494E54454D5020747269676765726564AC
:104A60002021004572723A204D494E54454D500068
:104A70003A2045787472756465722073776974633F
:104A8000686564206F66662E204D494E54454D5032
:104A900020747269676765726564202100746D63B4
:104AA000323133305F686F6D655F656E7465722893
:104AB000617865735F6D61736B3D30782530327856
:104AC000290A00746D63323133305F686F6D655F42
:104AD0006578697420746D63323133305F73675F5A
:104AE000686F6D696E675F617865735F6D61736B29
:104AF0003D3078253032780A00526573756D696EE5
:104B000067207072696E7400537570706F727400F4
:104B10004661696C207374617473005374617469C5
:104B2000737469637320200043616C6962726174FD
:104B3000696F6E004175746F4C6F61642066696CBB
:104B4000616D656E7400556E6C6F61642066696C92
:104B5000616D656E74004C6F61642066696C616D97
:104B6000656E74004E6F2053442063617264005080
:104B700072696E742066726F6D20534400526573C3
:104B8000756D65207072696E740050617573652073
:104B90007072696E74005072656865617400547556
:104BA0006E65004C6976652061646A757374205A7D
:104BB00000496E666F2073637265656E0046696EAC
:104BC000697368696E67206D6F76656D656E747365
:104BD00000536F756E642020202020205B6C6F7561
:104BE000645D00536F756E642020202020205B6D73
:104BF0007574655D00536F756E64202020205B73B3
:104C0000696C656E745D00536F756E6420202020A2
:104C100020205B6F6E63655D00536F756E642020AE
:104C2000202020205B6C6F75645D004372617368A7
:104C3000206465742E20205B4E2F415D004372611D
:104C40007368206465742E2020205B6F6E5D0043C6
:104C500072617368206465742E20205B6F66665DE8
:104C6000004D6F6465202020205B537465616C7477
:104C7000685D004D6F646520202020205B4E6F72C0
:104C80006D616C5D0046696C2E2073656E736F728A
:104C900020205B6F6E5D0046696C2E2073656E731D
:104CA0006F72205B6F66665D004368616E676520AA
:104CB00066696C616D656E7400466C6F7700537049
:104CC0006565640046616E207370656564004265C9
:104CD00064004E6F7A7A6C650053657474696E6710
:104CE00073005072696E742061626F727465640043
:104CF000596573004E6F0053746F70207072696E47
:104D0000740046696C6520696E636F6D706C6574C4
:104D1000652E20436F6E74696E756520616E7977BC
:104D200061793F004D61696E004661726D206E755C
:104D30006D626572004D363030004D3234004D32B8
:104D40003320257300052E2E0043616E6E6F742094
:104D5000656E746572207375626469723A200053DF
:104D6000442063617264206F6B006F70656E526FD8
:104D70006F74206661696C656400766F6C756D6533
:104D80002E696E6974206661696C65640053442005
:104D9000696E6974206661696C0057726974696E26
:104DA0006720746F2066696C653A200046696C65FF
:104DB0002073656C6563746564002053697A653A95
:104DC000200046696C65206F70656E65643A20004E
:104DD0001F1F1F1F1F1F1F1F2E002E004E6F77202B
:104DE00066726573682066696C653A20004E6F775D
:104DF00020646F696E672066696C653A2000222026
:104E0000706F73002220706172656E743A220053D5
:104E10005542524F5554494E452043414C4C207405
:104E200061726765743A2200747279696E672074E2
:104E30006F2063616C6C207375622D67636F6465AE
:104E40002066696C6573207769746820746F6F20C1
:104E50006D616E79206C6576656C732E204D4158BE
:104E6000206C6576656C2069733A00536F727469C3
:104E70006E672066696C657300536F6D65206669A7
:104E80006C65732077696C6C206E6F74206265208E
:104E9000736F727465642E204D61782E204E6F2ED4
:104EA000206F662066696C657320696E203120660C
:104EB0006F6C64657220666F7220736F7274696EB6
:104EC00067206973203130302E004D4B33203D3E3A
:104ED000204D4D552027533227004D4D55203D3E46
:104EE000204D4B33202725646F6B270A004D4D550D
:104EF000206E6F7420726573706F6E64696E6720C8
:104F00002D2044495341424C4544004D4B33203DF4
:104F10003E204D4D552027533127004D4D55203D06
:104F20003E204D4B332027737461727427004D4D22
:104F300055206C6F6F702C2073746174653D25640F
:104F40002043504C3D25640A004D4D55207374613B
:104F500072747320726573706F6E64696E670A0095
:104F60004D4D55206E6F7420726573706F6E64695D
:104F70006E670A002F2F20616374696F6E3A6D6D42
:104F800075417474656E74696F6E0A000000803F2D
:104F9000555585410000803F0000C8410000004099
:104FA000555505420000C03F000048420000204027
:104FB00055558542000070C1ABAAA642000060C1F1
:104FC0000000A0410000C0C00000204100002041BE
:104FD000ABAA3A41000020C15555D540000048C257
:104FE000555505424D373031204530004D37303171
:104FF000204531004D373031204532004D373031BA
:10500000204533004D373031204534004D373031A5
:10501000204534004D373031204533004D37303195
:10502000204532004D373031204531004D37303189
:105030002045300046696C616D656E74206E72208B
:105040006F7574206F662072616E6765210077321C
:1050500035783230636C5F63666D0A00773235787D
:105060003230636C5F656E7465720A00504154396A
:105070003132355F5245535F593D256868750A00E6
:10508000504154393132355F5245535F583D2568A0
:1050900068750A00062833D036C23E013F154132FA
:1050A000423B43F2443B45F24622473B48F2493BF0
:1050B0004AF05898590C5A085B0C5C086110679BC1
:1050C0006E2271077208FF095A0D000EF019045E76
:1050D0000820642B6D322FFF4D4D55204F4B2E2055
:1050E000526573756D696E672E2E2E004D4D5520DD
:1050F0004F4B2E20526573756D696E6720706F730C
:105100006974696F6E2E2E2E004D4D55204F4B2E1B
:1051100020526573756D696E672074656D70657278
:1051200061747572652E2E2E00466978207468654C
:1051300020697373756520616E64207468656E20E4
:10514000707265737320627574746F6E206F6E2059
:105150004D4D5520756E69742E0050726573732025
:10516000746865206B6E6F6220746F207265737552
:105170006D65206E6F7A7A6C652074656D706572EE
:1051800061747572652E004D4D55206E65656473B2
:10519000207573657220617474656E74696F6E2E0C
:1051A00000506C656173652072656D6F7665206671
:1051B000696C616D656E7420616E64207468656EE3
:1051C00020707265737320746865206B6E6F622E39
:1051D00000456A656374696E672066696C616D6518
:1051E0006E740025632533642F25642563004669AA
:1051F0006C616D656E742073656E736F72005377AA
:1052000061707065640046726F6E742F6C656674B1
:105210002066616E7300417869730041786973207C
:105220006C656E677468004C6F6F73652070756C89
:105230006C657900456E6473746F70206E6F7420B6
:1052400068697400456E6473746F70004D6F746F9D
:105250007200456E6473746F707300576972696E83
:1052600067206572726F7200426564202F20486566
:1052700061746572004E6F7420636F6E6E65637447
:105280006564004865617465722F546865726D6964
:1052900073746F7200506C65617365206368656339
:1052A0006B203A0053656C66746573742065727286
:1052B0006F7220210046696C616D656E74207365A4
:1052C0006E736F723A005072696E742066616E3A46
:1052D0000045787472756465722066616E3A005399
:1052E000656C6674657374206661696C6564202002
:1052F00000416C6C20636F72726563742020202003
:10530000202000436865636B696E672073656E7368
:105310006F72732000436865636B696E6720626516
:1053200064202020202000436865636B696E67203D
:105330005A2061786973202000436865636B696E49
:105340006720592061786973202000436865636B8A
:10535000696E672058206178697320200043686572
:10536000636B696E6720686F74656E64202000430C
:105370006865636B696E6720656E6473746F7073C4
:10538000004572726F72202D2073746174696320FE
:105390006D656D6F727920686173206265656E203E
:1053A0006F7665727772697474656E0043617264BA
:1053B0002072656D6F766564004361726420696E6A
:1053C000736572746564002D2D2D2D2D2D2D2D2DC1
:1053D0002D2D2D2D2D2D2D2D2D2D2D0043616C6965
:1053E00062726174696E6720686F6D65000000000D
:1053F0000000110A045052555341334446570020CF
:1054000079303D25640A002078303D25640A004F3C
:105410004B0A004552524F522061643D25640A00F8
:105420002020207A303D25640A00207A303D256412
:105430000A002079303D25640A002078303D25643B
:105440000A0078797A63616C5F66696E645F706F79
:10545000696E745F63656E746572320A0020746FE2
:105460006F206C6F6E6720657874727573696F6EEC
:105470002070726576656E7465640020636F6C647D
:1054800020657874727573696F6E207072657665C9
:105490006E7465640022206661696C65643A20421E
:1054A00075666665722066756C6C2100456E717557
:1054B00065696E6720746F207468652066726F6E10
:1054C000743A2022004572726F723A002200456ED3
:1054D000717565696E6720746F20746865206672E7
:1054E0006F6E743A2022006563686F3A002E004D9B
:1054F0003234004D3233202573006175746F256995
:105500002E67006F70656E206661696C65642C2083
:1055100046696C653A20000000A0400000A04000F1
:1055200000004025336420737465703D253264208B
:105530006D73636E743D2534640A0000007F430080
:105540008058439AD95143FFFFFF67636F64655FDB
:105550004D37303120626567696E0A00352E302E76
:10556000342D545A42007263006265746100616CAC
:10557000706861006465760078797A63616C5F7346
:10558000706972616C322063783D25642063793DD7
:105590002564207A303D256420647A3D256420729C
:1055A00061646975733D25642061643D25640A006A
:1055B0000102102020080810204010204080020125
:1055C000020108040201010204081020408080400A
:1055D0002010080402018004020180402010080409
:1055E00002010804020101020408102040800102A7
:1055F0000408102040801008040880102040044057
:1056000080102040048000002200250028002B008C
:105610002E003100340002010000050108010B01D9
:1056200005050505070508080808020202020A0A1E
:10563000080804040404010101010101010103033C
:10564000030303030303040707070C0C0C0C0C0CE7
:105650000C0C0202020206060606060606060B0BE4
:105660000B0B0B0B0B0B07070A0A0A0A0A0A0505A4
:1056700005040404080802746D63323133305F6737
:105680006F746F5F73746570202564202564202516
:1056900064202564200A0057616974696E6720667A
:1056A0006F72206E6F7A7A6C6520616E642062651D
:1056B0006420636F6F6C696E670053656C6620745D
:1056C000657374204F4B0053656C6620746573746A
:1056D0002073746172742020006C63645F73656C66
:1056E00066636865636B5F617869732025642C204D
:1056F00025640A004D3834004731205A31352046A0
:10570000313030300047323820570025632041586F
:105710004953205347313D25640A0041786973207D
:105720006C656E67746820646966666572656E6331
:10573000653A252E33660A004D656173757265649E
:105740002061786973206C656E6774683A252E3322
:10575000660A004572723A205052494E5420464122
:105760004E204552524F52005072696E742066614D
:105770006E207370656564206973206C6F77657245
:10578000207468656E206578706563746564004593
:1057900072723A20455854522E2046414E204552AE
:1057A000524F520045787472756465722066616E5E
:1057B000207370656564206973206C6F7765722053
:1057C0007468656E206578706563746564002F2F5A
:1057D00020616374696F6E3A7061757365000000D3
:1057E0002100240027002A002D0030003300010191
:1057F0000000040107010A01000020002300260028
:1058000029002C002F0032000001000003010601D6
:10581000090100000A0B02090C0D0E080703040120
:105820000000000000000000000000000000000078
:105830000000000000000000000000000000121145
:105840001000000000000000000000000000000048
:105850000000000000000000000000000000000048
:1058600000000000000000002563252E3132533A6D
:105870002573252B30362E31660020202020202055
:105880002020202020202020202020202020003E1A
:10589000003E0020003E003E0020004E6F7420734A
:1058A00070696E6E696E67005370696E6E696E67BF
:1058B000004C65667420686F74656E642066616E66
:1058C0003F0046726F6E74207072696E742066615C
:1058D0006E3F0046616E20746573740046696C2EDD
:1058E0002058643A2533642059643A2533640A49C0
:1058F0006E743A202533642020536875743A20254D
:1059000033640046696C616D656E742073656E73F7
:105910006F720A69732064697361626C65642E003A
:105920001B5B303B304825533A20253464205250CD
:105930004D0A25533A20202534642052504D0A0048
:105940005072696E742046414E004E6F7A7A6C65D3
:105950002046414E0043726173680046696C616D78
:105960002E2072756E6F75747300506F776572209C
:105970006661696C7572657300546F74616C206642
:1059800061696C7572657300437261736800466982
:105990006C616D2E2072756E6F75747300506F7729
:1059A0006572206661696C75726573004C61737411
:1059B000207072696E74206661696C75726573001F
:1059C000546F74616C004C617374207072696E74F2
:1059D00000416D6269656E7400426564004E6F7AC5
:1059E0007A6C650042656C74207374617475730021
:1059F000436F6F6C646F776E001B5B303B304825E4
:105A0000531B5B313B314825532020252D33641B2C
:105A10005B323B314825532020252D33641B5B33FB
:105A20003B3148255320205820252D336420205910
:105A300020252D3364001B5B303B304825531B5B16
:105A4000313B314825532020252D33641B5B323BED
:105A5000314825532020252D33641B5B333B3148CF
:105A6000255320205820252D336420205920252D12
:105A70003364001B5B323B314825533A20202564B8
:105A800025631B5B333B314850494E44413A20204B
:105A9000202025642563001B5B303B314825533AA9
:105AA000202020256425631B5B313B314825533A78
:105AB00020202020202025642563001B5B313B3102
:105AC000485057523A20202020202025642E25308F
:105AD0003164561B5B323B31484245443A2020201A
