:100000000C941E300C944F300C944F300C944F30A5
:100010000C944F300C9405E80C944F300C944F30F6
:100020000C9496EB0C944F300C94FE990C944F303A
:100030000C944F300D943C410C944F300C944F3045
:100040000C944F300C94C6BD0C944F300C944F3030
:100050000C944F300C944F300D942E1F0D94DD8571
:100060000C944F300C94EDB90C944F300C944F30ED
:100070000C944F300C944F300C944F300C944F3004
:100080000C944F300C944F300C944F300C944F30F4
:100090000C94A9B90C944F300C944F300C944F3001
:1000A0000C944F300C944F300C944F300C944F30D4
:1000B0000C944F300C944F300C944F300C944F30C4
:1000C0000C944F300C944F300C944F300C9448D11A
:1000D0000C944F300C944F300C944F300C944F30A4
:1000E0000C944F3074DE8ADE9DDEAADEB4DEE2DEE2
:1000F00003DF09DF17DF1ADF1CDF26DF37DF48DF0A
:100100007E01F2012A013601EC017801B801680193
:100110003C01CC014201F8019A017201A401BE0127
:100120005601CA01EA01E8017401DA016401E4013F
:100130006C0192018E012E014601DC01D4018C017B
:10014000A6016C016001E601D601B60184018801B7
:100150002401C001380150014E01FA017601D2019B
:1001600070018A012C013801AC014C014A01084A96
:10017000D73B3BCE016E84BCBFFDC12F3D6C7431BB
:100180009ABD56833DDA3D00C77F11BED9E4BB4C12
:100190003E916BAAAABE000000803F05A84CCDB2DC
:1001A000D44EB93836A9020C50B9918688083CA6BD
:1001B000AAAA2ABE000000803F07634236B79BD838
:1001C000A71A39685618AEBAAB558C1D3CB7CC5738
:1001D00063BD6DEDFD753EF6177231BF0000008006
:1001E0003F08000000BE922449123EABAAAA2ABED4
:1001F000CDCCCC4C3E00000080BEABAAAAAA3E00EB
:10020000000000BF000000803F0000000000084127
:1002100078D3BB4387D1133D190E3CC3BD4282AD99
:100220002B3E68EC8276BED98FE1A93E4C80EFFF71
:10023000BE01C4FF7F3F0000000000000D94852731
:100240000D947E890D94E2260D947A830D945E2898
:100250000D946A1B0D94F3190D94D5830D941F8191
:100260000D9423890D9443890D94FE3F0D94FC1940
:100270000D94FD830D94B8890D94AE480D940D88AE
:100280000D94B0260D94C2480D9485400D942381A1
:100290000D94F7260D94F3830D94E9830D949683C2
:1002A0000D948E830D9471A50D94F33F0D94184910
:1002B0000D9415270D94F93F0D9438320D94C035E7
:1002C0000D943B810D94DF870D9404810D949B89DF
:1002D0000D94A51A0D940F8A0D9448810D948C33BA
:1002E0000D94BC830D94F6480D9411810D94A88350
:1002F0000D94311A0D9477400D94AF2E0D94E91999
:100300000D9400350D9422280D946B830D9458881C
:100310000D9470830D94CB830D9431810D941981CC
:100320000D94FE280D9415810D9427860D94E627D3
:100330000D94A9860D94F0480D94AA270D94F026EB
:100340000D943B270D947A320D94FC480D94358121
:100350000D94AD2E0D94BB9A0D94DF830D94092757
:100360000D94DC2E0D94A3450D94DB260D9466832D
:100370000D946E1A0D94BA870D949B880D940A49BA
:100380000D9484830D94EF3F0D94F2890D942332E4
:100390000D9434890D9426490D94BC480D946189BF
:1003A0000D94CC280D94B2830D942D810D9443812E
:1003B0000D94D5890D9400810D9427810D94E92623
:1003C0000D94B9290D94F9160D940A810D943F816D
:1003D0000D940E810D943D490D94141A0D945217ED
:1003E0000D945B870D94ED190D94BA260D949A28FF
:1003F0000D94D4480D949E836E616E00696E660004
:100400004E414E494E495459494E46CDCCCC3D0AF9
:10041000D7233C17B7D13877CC2B329595E6241FDC
:10042000B14F0A000020410000C84200401C462095
:10043000BCBE4CCA1B0E5AAEC59D7400407A10F368
:100440005A00A0724E18090010A5D4E80000E87602
:1004500048170000E40B54020000CA9A3B00000059
:10046000E1F505000080969800000040420F000072
:1004700000A08601000000102700000000E8030033
:100480000000006400000000000A000000000001FD
:1004900000000000002C76D888DC674F0823DFC1FD
:1004A000DFAE59E1B1B796E5E3E453C63AE65199B8
:1004B0007696E8E6C28426EB898C9B62ED407C6FE1
:1004C000FCEFBC9C9F40F2BAA56FA5F490055A2A98
:1004D000F75C936B6CF9676DC11BFCE0E40D47FEA4
:1004E000F520E6B500D0ED902E0300943577050099
:1004F00080841E080000204E0A000000C80C333320
:1005000033330F986E12831141EF8D2114893BE62E
:100510005516CFFEE6DB18D1844B381BF77C1D90B7
:100520001DA4BBE424203284725E228100C9F12420
:10053000ECA1E53D2725642062797465732077720C
:10054000697474656E20746F20454550524F4D207C
:10055000617420616464726573732030782530346F
:1005600078004433202D20526561642F57726974DE
:100570006520454550524F4D0A0020436F756E74FB
:1005800020583A20005344207072696E74696E6777
:10059000206279746520004E6F7420696E20666158
:1005A000726D206D6F64652E0041637469766520FD
:1005B00045787472756465723A2000496E76616C94
:1005C0006964206578747275646572005A204F669C
:1005D0006673657400556E6B6E6F776E20636F6D1A
:1005E0006D616E643A2022004D32303020496E76C3
:1005F000616C696420657874727564657220007A34
:100600005F6D61783A20007A5F6D696E3A200079FB
:100610005F6D61783A2000795F6D696E3A200078ED
:100620005F6D61783A20006F70656E00785F6D696C
:100630006E3A20005265706F7274696E6720656E45
:100640006473746F70207374617475730000534920
:100650004C454E54004E4F524D414C002553204DB9
:100660004F44453A2050657263656E7420646F6E26
:10067000653A2025643B207072696E742074696D40
:10068000652072656D61696E696E6720696E206DA7
:10069000696E733A2025640A00456E642066696CB1
:1006A00065206C69737400426567696E2066696CC9
:1006B00065206C6973740025643A2025640A000A79
:1006C00050494E44412074656D7065726174757255
:1006D000653A20252E3166205A2073686966742099
:1006E000286D6D293A20252E3366000A53746570F3
:1006F0003A2025642F360A000A537465703A202583
:10070000642F362028736B6970706564290A50491C
:100710004E44412074656D70657261747572653AFE
:10072000202564205A20736869667420286D6D291D
:100730003A300A000A5A45524F3A20252E33660AAB
:100740000073746172742074656D70657261747584
:1007500072653A20252E31660A0025642020252E58
:10076000326600255320583A20252E356620593A06
:1007700020252E3566205A3A20252E35660A00534C
:100780006C6565702E2E2E004E6F7420696E20668B
:1007900061726D206D6F64652E0025640045303AEE
:1007A00025642052504D0A50524E303A2564205252
:1007B000504D0A002564004175746F0020452F4498
:1007C0003D00416476616E6365204B3D004D3232E1
:1007D000302053256900255346696C616D656E7440
:1007E0002073657474696E67733A2044697361623B
:1007F0006C65640A00255346696C616D656E7420F2
:1008000073657474696E67733A0A25532020204D0E
:100810003230302044252E32660A0025535265744A
:10082000726163743A20533D4C656E67746820288A
:100830006D6D2920463A537065656420286D6D2FD3
:100840006D29205A3A205A4C69667420286D6D290A
:100850000A25532020204D3230372053252E326672
:100860002046252E3266205A252E32660A255352FE
:1008700065636F7665723A20533D457874726120E6
:100880006C656E67746820286D6D2920463A537038
:1008900065656420286D6D2F6D290A255320202061
:1008A0004D3230382053252E32662046252E3266B2
:1008B0000A25534175746F2D526574726163743AE1
:1008C00020533D3020746F2064697361626C652C25
:1008D000203120746F20696E7465727072657420A7
:1008E000657874727564652D6F6E6C79206D6F76A6
:1008F0006573206173207265747261637473206F15
:1009000072207265636F7665726965730A2553207C
:1009100020204D323039205325640A002553504998
:100920004420686561746265642073657474696EDF
:1009300067733A0A25532020204D33303420502548
:100940002E32662049252E32662044252E32660A34
:100950000025535049442073657474696E67733A77
:100960000A25532020204D3330312050252E326669
:100970002049252E32662044252E32660A00255352
:1009800053746570732070657220756E69743A0ACD
:10099000255320204D39322058252E3266205925E6
:1009A0002E3266205A252E32662045252E32660AC2
:1009B00025534D6178696D756D206665656472615A
:1009C000746573202D206E6F726D616C20286D6DC3
:1009D0002F73293A0A255320204D323033205825D1
:1009E0002E32662059252E3266205A252E32662058
:1009F00045252E32660A25534D6178696D756D2047
:100A0000666565647261746573202D207374656119
:100A10006C746820286D6D2F73293A0A25532020A5
:100A20004D3230332058252E32662059252E32661D
:100A3000205A252E32662045252E32660A25534D32
:100A40006178696D756D20616363656C6572617451
:100A5000696F6E202D206E6F726D616C20286D6D38
:100A60002F7332293A0A255320204D323031205835
:100A7000256C752059256C75205A256C75204525E7
:100A80006C750A25534D6178696D756D20616363DE
:100A9000656C65726174696F6E202D207374656179
:100AA0006C746820286D6D2F7332293A0A25532003
:100AB000204D3230312058256C752059256C752019
:100AC0005A256C752045256C750A2553416363656D
:100AD0006C65726174696F6E3A20533D6163636542
:100AE0006C65726174696F6E2C20543D726574720E
:100AF00061637420616363656C65726174696F6EB4
:100B00000A255320204D3230342053252E326620C2
:100B100054252E32660A2553416476616E636564FE
:100B2000207661726961626C65733A20533D4D694C
:100B30006E20666565647261746520286D6D2F7323
:100B4000292C20543D4D696E2074726176656C20AD
:100B5000666565647261746520286D6D2F73292C3C
:100B600020423D6D696E696D756D207365676D65B9
:100B70006E742074696D6520286D73292C20583D92
:100B80006D6178696D756D205859206A65726B20AA
:100B9000286D6D2F73292C20205A3D6D6178696D69
:100BA000756D205A206A65726B20286D6D2F732930
:100BB0002C2020453D6D6178696D756D2045206A5A
:100BC00065726B20286D6D2F73290A255320204DE7
:100BD0003230352053252E32662054252E326620A1
:100BE00042252E32662058252E32662059252E3277
:100BF00066205A252E32662045252E32660A255358
:100C0000486F6D65206F666673657420286D6D2969
:100C10003A0A255320204D3230362058252E326690
:100C20002059252E3266205A252E32660A004D4D57
:100C300055203C3D2027462564202564270A005086
:100C40004944204175746F74756E652066696E69DC
:100C500073686564212050757420746865206C6128
:100C60007374204B702C204B6920616E64204B64A0
:100C700020636F6E7374616E74732066726F6D2083
:100C800061626F766520696E746F20436F6E66696E
:100C90006775726174696F6E2E6800504944204117
:100CA00075746F74756E65206661696C656421206A
:100CB00074696D656F75740020403A00543A0042C3
:100CC0003A00504944204175746F74756E65206612
:100CD00061696C6564212054656D7065726174751D
:100CE000726520746F6F206869676800204B643AF2
:100CF0002000204B693A2000204B703A200020430E
:100D00006C61737369632050494420002054753A24
:100D10002000204B753A2000206D61783A20002099
:100D20006D696E3A200020643A2000206269617388
:100D30003A200020453A00205A3A0020593A002033
:100D4000453A00205A3A0020593A00583A00005AD1
:100D500030005A31005930005931005830005831B4
:100D600000456E642073746F70732064696167005E
:100D70002E0044656C6574696F6E206661696C65F0
:100D8000642C2046696C653A200046696C652064D5
:100D9000656C657465643A004E6F7420534420702E
:100DA00072696E74696E67005072696E7420736147
:100DB000766564005344207072696E7420706175AA
:100DC000736564000A002F000A002F2F20616374EE
:100DD000696F6E3A63616E63656C004352415348BC
:100DE0005F43414E43454C0043524153485F524597
:100DF000434F5645520043524153485F5245434F7B
:100E00005645520022283229005400496E76616C02
:100E10006964205420636F64652E00556E6B6E6F9D
:100E2000776E204D20636F64653A202573200A0099
:100E30006E6F2076616C696420636F6D6D616E64A6
:100E4000002C20002C20002C20006E2F61002C2074
:100E5000002C20002C20006E2F61002F00503A0043
:100E60005761697420666F722050494E4441207466
:100E700061726765742074656D70657261747572F6
:100E8000653A004C414E472053454C20464F524353
:100E900045440022283129003030303030303030A5
:100EA0002D303030302D303030302D303030302D4E
:100EB0003030303030303030303030300020555528
:100EC00049443A0031002045585452554445525F38
:100ED000434F554E543A0050727573612069332068
:100EE0004D4B3300204D414348494E455F545950C6
:100EF000453A00312E3000206261736564206F6EC8
:100F0000204D61726C696E204649524D57415245E1
:100F10005F55524C3A68747470733A2F2F67697436
:100F20006875622E636F6D2F707275736133642FF5
:100F300050727573612D4669726D776172652050CC
:100F4000524F544F434F4C5F56455253494F4E3AC0
:100F5000004649524D574152455F4E414D453A502A
:100F6000727573612D4669726D7761726520004DEF
:100F700031313320530020423A0020453A00543AA0
:100F80000020413A0020503A002042403A002040E0
:100F90003A00202F003A00205400202F0020423A2F
:100FA00000202F006F6B20543A002569206D696E78
:100FB0002C2025692073656300496E76616C696435
:100FC000204D20636F64653A202573200A00556E1A
:100FD0006B6E6F776E204720636F64653A202573D0
:100FE000200A004D65736820626564206C65766533
:100FF0006C696E67206E6F74206163746976652E0C
:10100000000A002020000A4D656173757265642036
:10101000706F696E74733A000A5A20736561726367
:1010200068206865696768743A20002C004E756D09
:1010300020582C593A2000206D6963726F6E73003E
:1010400045786365737369766520626564206C65B5
:1010500076656C696E6720636F7272656374696F21
:101060006E3A20004732382057300050494E4441F4
:101070002070726F62652063616C6962726174696D
:101080006F6E2073746172740047323820573000DD
:101090004D3234005345545F43484F505F00534531
:1010A000545F535445505F005345545F5741564574
:1010B0005F00544D435F0043524153485F005072FC
:1010C000657373206B6E6F6220746F207072656839
:1010D000656174206E6F7A7A6C6520616E6420633E
:1010E0006F6E74696E75652E00506C656173652056
:1010F000707265737320746865206B6E6F62207404
:101100006F20756E6C6F61642066696C616D656ED1
:10111000740052656D6F7665206F6C642066696C33
:10112000616D656E7420616E6420707265737320EA
:10113000746865206B6E6F6220746F2073746172C7
:1011400074206C6F6164696E67206E6577206669D4
:101150006C616D656E742E00616E642070726573D3
:101160007320746865206B6E6F6200496E736572E0
:10117000742066696C616D656E7400436F6C6F728C
:10118000206E6F7420636F72726563740046696CC1
:10119000616D656E74206E6F74206C6F6164656440
:1011A000004368616E67656420636F727265637483
:1011B0006C793F004C6F6164696E6720636F6C6F80
:1011C00072004368616E676520737563636573734E
:1011D0002100506C65617365206F70656E206964D5
:1011E0006C657220616E642072656D6F7665206635
:1011F000696C616D656E74206D616E75616C6C7982
:101200002E005761732066696C616D656E74207580
:101210006E6C6F6164207375636365737366756C60
:101220003F00506C6561736520757067726164651D
:101230002E004E6577206669726D77617265207643
:10124000657273696F6E20617661696C61626C654D
:101250003A0057616974696E6720666F7220504961
:101260004E44412070726F626520636F6F6C696ECF
:1012700067004372617368206465746563746564B4
:101280002E20526573756D65207072696E743F0013
:1012900043726173682064657465637465642E00CD
:1012A00045787472756465720043686F6F7365206A
:1012B00065787472756465723A0043686F6F736520
:1012C0002066696C616D656E743A004E6F206D6FBB
:1012D00076652E005761697420666F72207573659C
:1012E000722E2E2E00536F6D652070726F626C65CA
:1012F0006D20656E636F756E74657265642C205A1F
:101300002D6C6576656C696E6720656E666F7263BD
:101310006564202E2E2E00537461626C6520616D11
:101320006269656E742074656D7065726174757242
:10133000652032312D323643206973206E65656435
:1013400065642061207269676964207374616E64EA
:101350002069732072657175697265642E00506C26
:10136000656173652072756E2058595A2063616CEF
:101370006962726174696F6E2066697273742E009F
:1013800073746172740A006164635F696E69740AE0
:10139000001B5B324A1B5B313B31484F7269676906
:1013A0006E616C2050727573612069331B5B323B38
:1013B000334850727573612052657365617263685A
:1013C00000466163746F727920524553455400445E
:1013D0006563203136203230313800436F6D7069DB
:1013E0006C65643A2000286E6F6E652C206465661B
:1013F00061756C7420636F6E66696729004465636C
:1014000020313620323031382031363A35363A30D4
:10141000340020352E302E342D545A422D323332A2
:10142000380A002055706C6F616420696E207072FC
:101430006F677265737300205A3A0020593A002092
:10144000583A0043524153485F444554454354453C
:101450004458590043524153485F4445544543540E
:101460004544590043524153485F44455445435411
:10147000454458004D32390050727573612069330C
:10148000204D4B332072656164792E00426C61639C
:101490006B6F7574206F636375727265642E205272
:1014A00065636F766572207072696E743F00536574
:1014B0006C66746573742077696C6C206265207249
:1014C000756E20746F2063616C696272617465204F
:1014D00061636375726174652073656E736F726C9E
:1014E000657373207265686F6D696E672E0054684E
:1014F000657265206973207374696C6C2061206E5D
:1015000065656420746F206D616B65205A2063618E
:101510006C6962726174696F6E2E20506C656173C4
:101520006520666F6C6C6F7720746865206D616EE6
:1015300075616C2C206368617074657220466972F5
:1015400073742073746570732C2073656374696F92
:101550006E2043616C6962726174696F6E20666CA3
:101560006F772E005072696E746572206861732007
:101570006E6F74206265656E2063616C6962726172
:10158000746564207965742E20506C6561736520E4
:10159000666F6C6C6F7720746865206D616E756125
:1015A0006C2C206368617074657220466972737474
:1015B0002073746570732C2073656374696F6E207B
:1015C00043616C6962726174696F6E20666C6F77DB
:1015D0002E004F6C642073657474696E67732066A7
:1015E0006F756E642E2044656661756C7420504979
:1015F000442C20457374657073206574632E2077C6
:10160000696C6C206265207365742E005761726E80
:10161000696E673A20626F7468207072696E7465D3
:1016200072207479706520616E64206D6F746865D6
:1016300072626F6172642074797065206368616E94
:101640006765642E005761726E696E673A2070722A
:10165000696E7465722074797065206368616E6765
:1016600065642E005761726E696E673A206D6F7403
:10167000686572626F617264207479706520636856
:10168000616E6765642E0045787465726E616C20CA
:1016900053504920666C6173682057323558323098
:1016A000434C206E6F7420726573706F6E64696E48
:1016B000672E0043726173684465746563742044E7
:1016C000495341424C454400437261736844657418
:1016D00065637420454E41424C4544210020205012
:1016E0006C616E6E6572427566666572427974658C
:1016F000733A20002046726565204D656D6F7279E2
:101700003A2000207C20417574686F723A200020D6
:101710004C61737420557064617465643A200020D4
:10172000536F66747761726520526573657400202B
:101730005761746368646F67205265736574002035
:1017400042726F776E206F757420526573657400F6
:101750002045787465726E616C2052657365740003
:10176000506F7765725570006572726F7220777274
:101770006974696E6720746F2066696C6500656EB8
:101780006473746F7073206869743A2000446F6EDC
:101790006520736176696E672066696C652E006FDF
:1017A0006B0058595A2063616C6962726174696F89
:1017B0006E20616C6C2072696768742E20536B65B3
:1017C000772077696C6C20626520636F7272656345
:1017D000746564206175746F6D61746963616C6CAC
:1017E000792E0058595A2063616C6962726174697C
:1017F0006F6E20616C6C2072696768742E20582FA0
:101800005920617865732061726520736C6967681F
:10181000746C7920736B657765642E20476F6F64F5
:10182000206A6F62210058595A2063616C696272A4
:101830006174696F6E206F6B2E20582F592061786C
:101840006573206172652070657270656E6469638E
:10185000756C61722E20436F6E67726174756C6176
:1018600074696F6E73210058595A2063616C696204
:10187000726174696F6E206661696C65642E2052B6
:10188000696768742066726F6E742063616C696248
:10189000726174696F6E20706F696E74206E6F7400
:1018A00020726561636861626C652E0058595A2028
:1018B00063616C6962726174696F6E206661696CE4
:1018C00065642E2046726F6E742063616C6962726B
:1018D0006174696F6E20706F696E7473206E6F74BF
:1018E00020726561636861626C652E0058595A20E8
:1018F00063616C6962726174696F6E206661696CA4
:1019000065642E20506C6561736520636F6E73751E
:101910006C7420746865206D616E75616C2E005862
:10192000595A2063616C6962726174696F6E2063D9
:101930006F6D70726F6D697365642E205269676890
:10194000742066726F6E742063616C696272617478
:10195000696F6E20706F696E74206E6F742072658F
:1019600061636861626C652E0058595A2063616C2E
:101970006962726174696F6E20636F6D70726F6DF2
:10198000697365642E2046726F6E742063616C69A2
:1019900062726174696F6E20706F696E7473206E0D
:1019A0006F7420726561636861626C652E005859BE
:1019B0005A2063616C6962726174696F6E2066613E
:1019C000696C65642E204265642063616C69627293
:1019D0006174696F6E20706F696E74207761732017
:1019E0006E6F7420666F756E642E00506C65617347
:1019F0006520706C61636520737465656C20736825
:101A0000656574206F6E20686561746265642E0080
:101A100044697374616E6365206265747765656E91
:101A200020746970206F6620746865206E6F7A7A02
:101A30006C6520616E642074686520626564207343
:101A400075726661636520686173206E6F742062D1
:101A500065656E20736574207965742E20506C6501
:101A600061736520666F6C6C6F7720746865206D9C
:101A7000616E75616C2C20636861707465722046BC
:101A8000697273742073746570732C20736563744A
:101A9000696F6E204669727374206C61796572207B
:101AA00063616C6962726174696F6E2E00506C6163
:101AB00063652061207368656574206F66207061BE
:101AC00070657220756E64657220746865206E6F33
:101AD0007A7A6C6520647572696E67207468652017
:101AE00063616C6962726174696F6E206F662066F3
:101AF00069727374203420706F696E74732E20497C
:101B00006620746865206E6F7A7A6C6520636174F4
:101B100063686573207468652070617065722C203D
:101B2000706F776572206F666620746865207072CA
:101B3000696E74657220696D6D6564696174656C48
:101B4000792E00506C656173652072656D6F7665E6
:101B500020737465656C2073686565742066726FA8
:101B60006D20686561746265642E0049732073742A
:101B700065656C207368656574206F6E20686561AB
:101B8000746265643F00206F6620340053656172A3
:101B90006368696E67206265642063616C69627264
:101BA0006174696F6E20706F696E7400206F6620BB
:101BB00039004D6561737572696E6720726566657F
:101BC00072656E636520686569676874206F66205A
:101BD00063616C6962726174696F6E20706F696EA7
:101BE0007400506C6561736520636C65616E207470
:101BF0006865206E6F7A7A6C6520666F722063610B
:101C00006C6962726174696F6E2E20436C69636BDC
:101C1000207768656E20646F6E652E004175746F65
:101C200020686F6D650078797A63616C5F6D6561BE
:101C300073737572655F656E7465720A0078797A80
:101C400063616C5F73706972616C382063783D25E5
:101C5000642063793D2564207A303D256420647AD0
:101C60003D2564207261646975733D25642061645B
:101C70003D25640A0078797A63616C5F73656172EF
:101C800063685A206E6F207369676E616C0A2078F2
:101C90003D256C6420793D256C64207A3D256C647B
:101CA0000A00204F4E2D5349474E414C206174206D
:101CB000783D256420793D2564207A3D25642061A6
:101CC000643D25640A0078797A63616C5F736561AD
:101CD0007263685A20783D256C6420793D256C64D8
:101CE000207A3D256C640A000A002530327800789D
:101CF000797A63616C5F7363616E5F706978656C3C
:101D0000735F33327833322063783D256420637902
:101D10003D2564206D696E5F7A3D2564206D617894
:101D20005F7A3D25640A00202532642025640A007C
:101D30000A002530327800206D696E3D2564206DE3
:101D400061783D2564206469663D25640A006D6103
:101D5000785F633D253264206D61785F6C3D25645A
:101D60000A006D61785F633D2564206D61785F7264
:101D70003D2564206D61785F6D617463683D256405
:101D80000A0020783D256420793D2564207A3D2590
:101D9000640A00207061747465726E20666F756EDF
:101DA000642061742025642025640A000000F0008E
:101DB000F801FC03FE07FE07FE07FE07FC03F8011F
:101DC000F000000073697A656F6628746F74616C47
:101DD000293D25640A0073697A656F6628626C6F15
:101DE000636B5F627566666572293D25640A0078DB
:101DF000797A63616C5F6D656173737572655F6C31
:101E0000656176650A00706F696E743D256420789F
:101E10003D256420793D2564207A3D25640A0058DB
:101E2000025802584D584DB004F055F055B00478A2
:101E3000797A63616C5F66696E645F6265645F692D
:101E40006E64756374696F6E5F73656E736F725FD6
:101E5000706F696E745F787920783D256C642079A5
:101E60003D256C64207A3D256C640A00203C2000EE
:101E70005741524E494E473A2046726F6E74207059
:101E80006F696E74206E6F74207265616368616241
:101E90006C652E205920636F6F7264696E61746582
:101EA0003A0000000040410000C04000005C4300D8
:101EB00000C04000005C4300004643000040410079
:101EC000004643497465726174696F6E3A2000433D
:101ED000616C6962726174696F6E206661696C65BC
:101EE000642120436865636B2074686520617865B0
:101EF0007320616E642072756E20616761696E2E59
:101F000000773235783230636C5F63666D0A007734
:101F10003235783230636C5F656E7465720A0050DA
:101F20004154393132355F5245535F593D25686818
:101F3000750A00504154393132355F5245535F586C
:101F40003D256868750A0020746F6F206C6F6E679E
:101F500020657874727573696F6E2070726576652E
:101F60006E7465640020636F6C64206578747275AC
:101F700073696F6E2070726576656E746564002299
:101F8000206661696C65643A2042756666657220F8
:101F900066756C6C21002200256920686F7572736C
:101FA000202569206D696E757465730054494D452F
:101FB0004F55543A004D3131300046756C6C20520B
:101FC0005820427566666572006673656E736F723F
:101FD0005F73746F705F616E645F736176655F706D
:101FE00072696E740A006673656E736F725F7265F4
:101FF00073746F72655F7072696E745F616E645F37
:10200000636F6E74696E75650A0044495341424CB2
:1020100045440A00454E41424C4544004653656ED6
:10202000736F722025530A00504154393132355FA5
:10203000696E69743A256868750A005041543931EF
:1020400032355F696E69743A256868750A005041D7
:1020500054393132355F696E69743A256868750A9A
:102060000050415439313235206E6F7420726573DF
:10207000706F6E64696E672028256429210A0065E7
:102080006E717565696E67202200446F6E65207001
:1020900072696E74696E672066696C65005072695A
:1020A0006E7465722073746F7070656420647565FA
:1020B00020746F206572726F72732E2046697820CB
:1020C000746865206572726F7220616E642075732A
:1020D00065204D39393920746F20726573746172CF
:1020E000742E202854656D70657261747572652058
:1020F00069732072657365742E205365742069744A
:102100002061667465722072657374617274696EA1
:102110006729004E6F204C696E65204E756D6265B3
:1021200072207769746820636865636B73756D2CC2
:10213000204C617374204C696E653A20004E6F200C
:10214000436865636B73756D2077697468206C698B
:102150006E65206E756D6265722C204C6173742003
:102160004C696E653A2000636865636B73756D201A
:102170006D69736D617463682C204C617374204CBD
:10218000696E653A20004C696E65204E756D62651A
:1021900072206973206E6F74204C617374204C69D7
:1021A0006E65204E756D6265722B312C204C61730B
:1021B00074204C696E653A20006673656E736F72A9
:1021C0005F6175746F6C6F61645F636865636B5F9B
:1021D0007374617274202D206175746F6C6F61640B
:1021E00020454E41424C45440A006673656E736F4C
:1021F000725F6175746F6C6F61645F636865636B58
:102200005F73746F70202D206175746F6C6F6164E3
:102210002044495341424C45440A005452494747DF
:10222000455245440053544F505045442E200045DC
:102230007872656D65207370616E206F66207468BA
:1022400065205A2076616C7565732100000040415D
:10225000000000400000E44200000040000057433E
:1022600000000040000057430000C4420000E44268
:102270000000C442000040410000C4420000404150
:10228000000042430000E442000042430000574384
:10229000000042434D4D5532206669726D77617280
:1022A000652076657273696F6E20696E76616C6900
:1022B000642E20526571756972656420766572734B
:1022C000696F6E3A206275696C64206E756D626527
:1022D00072202564206F72206869676865722E001D
:1022E0004D4B33203D3E204D4D55202746696C61B6
:1022F0006D656E74207365656E20617420657874F9
:102300007275646572270A004D4B33203D3E204DA7
:102310004D5520275230270A004D4B33203D3E209B
:102320004D4D552027452564270A004D4B33203D50
:102330003E204D4D5520275530270A004D4B332068
:102340003D3E204D4D5520274330270A004D4B334D
:10235000203D3E204D4D5520274C2564270A004D39
:102360004B33203D3E204D4D5520275425642040C1
:10237000746F6F6C4368616E67653A2564270A0065
:102380004D4D55203D3E204D4B3320276F6B270A86
:10239000004D4D55203D3E204D4B33202777616940
:1023A00074696E6720666F722066696C616D656E18
:1023B000742040204D4B332053656E736F72270A93
:1023C000004D363030004D363030204155544F00EE
:1023D0004653454E534F525F5245434F5645520068
:1023E0004D4D55202D20454E41424C4544004D4D0C
:1023F000552076657273696F6E2076616C69640032
:102400004D4D55203D3E204D4B3320272564270A56
:10241000004D4D55203D3E204D4B33202725642750
:102420000A004D4D55206E6F7420726573706F6E8B
:1024300064696E67202D2044495341424C45440055
:102440004D4D552073746172747320726573706F93
:102450006E64696E670A004D4D55206E6F74207270
:102460006573706F6E64696E670A000000803F5587
:102470005585410000803F0000C8410000004055E4
:102480005505420000C03F00004842000020405572
:10249000558542000070C1ABAAA642000060C10091
:1024A00000A0410000C0C00000204100002041AB5E
:1024B000AA3A41000020C15555D540000048C255F8
:1024C0005505424D373031204530004D37303120F1
:1024D0004531004D373031204532004D3730312005
:1024E0004533004D373031204534004D37303120F1
:1024F0004534004D373031204533004D37303120E1
:102500004532004D373031204531004D37303120D4
:1025100045300046696C616D656E74206E72206F87
:102520007574206F662072616E6765210042656474
:10253000206C6576656C696E67206661696C6564A0
:102540002E2053656E736F72206469646E742074FC
:102550007269676765722E20446562726973206FC5
:102560006E206E6F7A7A6C653F2057616974696E70
:102570006720666F722072657365742E00506C65FB
:1025800061736520757064617465206669726D772A
:1025900061726520696E20796F7572204D4D5532DC
:1025A0002E2057616974696E6720666F72207265AC
:1025B0007365742E004D4D55204F4B2E2052657380
:1025C000756D696E672E2E2E004D4D55204F4B2E8A
:1025D00020526573756D696E6720706F73697469D9
:1025E0006F6E2E2E2E004D4D55204F4B2E205265D6
:1025F00073756D696E672074656D70657261747551
:1026000072652E2E2E0046697820746865206973E5
:1026100073756520616E64207468656E20707265E4
:10262000737320627574746F6E206F6E204D4D55FC
:1026300020756E69742E005072657373207468651E
:10264000206B6E6F6220746F20726573756D6520EC
:102650006E6F7A7A6C652074656D706572617475E1
:1026600072652E004D4D55206E656564732075733F
:10267000657220617474656E74696F6E2E00506CA3
:10268000656173652072656D6F76652066696C6142
:102690006D656E7420616E64207468656E20707262
:1026A00065737320746865206B6E6F622E00456AD7
:1026B000656374696E672066696C616D656E740030
:1026C00025632533642F256425630053657474697D
:1026D0006E67732053746F7265640053746F726514
:1026E000642073657474696E6773207265747269AF
:1026F000657665640048617264636F646564204454
:10270000656661756C742053657474696E677320B7
:102710004C6F6164656400563200000000C84200DE
:1027200000C8420000C84300008C4300004843003A
:10273000004843000040410000F042E8030000E888
:10274000030000C80000008813000000409C440003
:10275000409C440000000000000000204E000000EB
:1027600000204100002041CDCCCC3E0000204000A4
:102770000000000000000000000000CDCCCC3E3D79
:102780000A8141FF08433EB099AB438F42FC42E6C9
:102790005A343F4C62B04500000000004040000049
:1027A0003442000000000000000000000041000072
:1027B00000E03F0000C8420000C842000040410065
:1027C00000F042C0030000C0030000C80000008801
:1027D000130000454550524F4D204572726F7200F4
:1027E000436F6E74696E7565207769746820616ED9
:1027F0006F7468657220626F7764656E3F002500B4
:1028000020202020202000202020202020004552B1
:102810004153494E4720616C6C20646174610046ED
:102820006163746F72792052455345540000007FF4
:102830004300805443000052430000000000008029
:10284000C09A99193E00000000000080C09A9919B2
:102850003E24F4D43050C38E20C2A24017828B7025
:1028600011127A910D816CD90AA861E108C75866E6
:1028700007615143061E4B5D05C145A7041A41116E
:1028800004093D9803713931034036DB0265339109
:1028900002D4305402802E1D02632CEE01752AC52D
:1028A00001B028A001102781018F2564012B244B42
:1028B00001E0223401AC211F018D200D01801FFC9D
:1028C00000841EED00971DDF00B81CD200E61BC679
:1028D00000201BBC00641AB200B219A8000A19A09B
:1028E000006A189900D117910040178B00B5168423
:1028F0000031167E00B31579003A157300C7146FC6
:102900000058146A00EE1366008813630025135EF6
:1029100000C7125B006C12570015125400C1115110
:102920000070114F0021114B00D61049008D104747
:10293000004610440002104200C00F4000800F3ECD
:1029400000420F3C00060F3B00CB0E3800930E37C1
:10295000005C0E3500270E3400F30D3200C10D313E
:1029600000900D3000600D2E00320D2D00050D2C55
:1029700000D90C2B00AE0C2900850C29005C0C271B
:1029800000350C27000E0C2600E80B2400C40B2495
:1029900000A00B23007D0B23005A0B2100390B21D3
:1029A00000180B2000F80A1F00D90A1E00BB0A1EDF
:1029B000009D0A1D00800A1D00630A1C00470A1BB7
:1029C000002C0A1B00110A1A00F7091A00DD091968
:1029D00000C4091900AB091900920917007B0918F6
:1029E00000630917004C0916003609160020091665
:1029F000000A091500F5081500E0081400CC0814B9
:102A000000B8081400A4081400900813007D0812F0
:102A1000006B081300580812004608120034081111
:102A200000230811001208110001081100F007101E
:102A300000E0071000D0071000C0071000B0070F1B
:102A400000A107100091070E0083070F0074070F05
:102A50000065070E0057070E0049070E003B070DE3
:102A6000002E070E0020070D0013070D0006070DAE
:102A700000F9060C00ED060D00E0060C00D4060C73
:102A800000C8060C00BC060C00B0060C00A4060B27
:102A90000099060C008D060B0082060B0077060BD2
:102AA000006C060B0061060A0057060B004C060A74
:102AB0000042060A0038060A002E060A0024060A0A
:102AC000001A060A001006090007060A00FD05099B
:102AD00000F4050900EB050900E2050900D9050924
:102AE00000D0050900C7050900BE050900B50508A5
:102AF00000AD050800A50509009C0508009405081F
:102B0000008C050800840508007C05080074050891
:102B1000006C050700650508005D050700560508FF
:102B2000004E050700470507004005080038050767
:102B300000310507002A050700230507001C0506CC
:102B400000160507000F0507000805060002050727
:102B500000FB040600F5040700EE040600E8040686
:102B600000E2040700DB040600D5040600CF0406DB
:102B700000C9040600C3040600BD040600B704062D
:102B800000B1040500AC040600A6040600A004057C
:102B9000009B04060095040500900406008A0405C5
:102BA0000085040500800406007A0405007504050C
:102BB00000700405006B040500660405006104054F
:102BC000005C04050057040500520405004D04058F
:102BD0000048040500430405003E0404003A0405CF
:102BE0000035040500300404002C0405002704040B
:102BF00000230405001E0404001A04040016040542
:102C000000110404000D0404000904050004040478
:102C10000000040400FC030400F8030400F40304AF
:102C200000F0030400EC030400E8030400E40304E0
:102C300000E0030400DC030400D8030400D4030410
:102C400000D0030400CC030400C8030300C5030341
:102C50000024F404D9201BC40C5C0E9804C4095F42
:102C60000265077101F405F900FB04B3004804870D
:102C700000C10369005803550003034500BE023A32
:102C8000008402310053022A002902250004022098
:102C900000E4011C00C8011900AF011700980114DD
:102CA0000084011300710110006101100051010E38
:102CB0000043010D0036010B002B010B0020010B1E
:102CC00000150109000C01090003010800FB0008C0
:102CD00000F3000800EB000700E4000600DE000639
:102CE00000D8000600D2000600CC000500C7000591
:102CF00000C2000500BD000400B9000400B50004D6
:102D000000B1000400AD000400A9000400A5000308
:102D100000A20003009F0004009B00030098000332
:102D2000009500020093000300900003008D000254
:102D3000008B00030088000200860002008400036C
:102D400000810002007F0002007D0002007B000283
:102D50000079000200770001007600020074000292
:102D60000072000100710002006F0002006D00019E
:102D7000006C0002006A00010069000200670001A7
:102D800000660001006500010064000200620001AD
:102D90000061000100600001005F0002005D0001B1
:102DA000005C0001005B0001005A000100590001B5
:102DB00000580001005700010056000100550001B5
:102DC00000540001005300000053000100520001B4
:102DD0000051000100500001004F0001004E0000B2
:102DE000004E0001004D0001004C0001004B0000AE
:102DF000004B0001004A00010049000100480000AA
:102E000000480001004700010046000000460001A4
:102E1000004500000045000100440001004300009F
:102E20000043000100420000004200010041000098
:102E30000041000100400001003F0000003F000190
:102E4000003E0000003E0001003D0000003D00018A
:102E5000003C0000003C0000003C0001003B000082
:102E6000003B0001003A0000003A00010039000078
:102E7000003900010038000000380000003800016F
:102E80000037000000370001003600000036000067
:102E9000003600010035000000350000003500015B
:102EA0000034000000340000003400010033000052
:102EB0000033000000330001003200000032000047
:102EC000003200010031000000310000003100013B
:102ED000003000000030000000300001002F000032
:102EE000002F0000002F0000002F0001002E000026
:102EF000002E0000002E0001002D0000002D00001B
:102F0000002D0000002D0001002C0000002C00000E
:102F1000002C0000002C0001002B0000002B000002
:102F2000002B0000002B0001002A0000002A0000F6
:102F3000002A0000002A00010029000000290000EA
:102F400000290000002900000029000100280000DD
:102F500000280000002800000028000000280001D0
:102F600000270000002700000027000000270000C5
:102F700000270001002600000026000000260000B7
:102F800000260000002600010025000000250000AA
:102F9000002500000025000000250000002500019C
:102FA0000024000000240000002400000024000091
:102FB0000024000100230000002300000023000083
:102FC0000023000000230000002300000023000174
:102FD0000022000000220000002200000022000069
:102FE000002200000022000100210000002100005A
:102FF000002100000021000000210000002100004D
:10300000002100010020000000200000002000003E
:103010000020000000200000002000000020000030
:1030200000200001001F0000001F0000001F000022
:10303000001F0000001F0000001F0000001F000113
:10304000001E0000001E0000001E0000001E000008
:1030500000544D4320445249564552204F56455244
:1030600054454D500025632533642F2564256300A6
:103070005A25362E326620005A2020202D2D2D2054
:103080000025632533642525002D2D2D002533686B
:1030900068640025335325337325250020534400ED
:1030A00020202000555342002025753E2575002024
:1030B0004625750020463020200025632D2D3A2D11
:1030C0002D202000256325337568202563256300A6
:1030D0002563253032753A25303275256325630026
:1030E000726573756C742076616C75653A20256421
:1030F0000A0020693D25326420636E743D253264E8
:103100002076616C3D2532640A00636C75737465CA
:1031100072733A0A0020693D253264207374657029
:103120003D2532640A00736F727465642073616DAB
:10313000706C65733A0A003A20002020202020207D
:103140002020202020202020202020202000203A85
:10315000200020202020202020202020202020208F
:10316000202020202020002020202020202020207F
:10317000202020200025730050494E4441204865FE
:103180006174696E670054656D702E2063616C2EEA
:10319000202020202020202020200043616C696214
:1031A000726174696F6E20646F6E650043616C6953
:1031B00062726174696E67205A0042656420646FB0
:1031C0006E65004265642048656174696E670048F9
:1031D000656174696E6720646F6E652E0048656175
:1031E00074696E6700506C65617365206C6F616413
:1031F00020504C412066696C616D656E7420666973
:103200007273742E00497320504C412066696C61C2
:103210006D656E74206C6F616465643F0043616E20
:1032200063656C0046696C616D656E740053656C16
:1032300065637420504C412066696C616D656E74E5
:103240003A0052756E6E696E672057697A617264D2
:103250002077696C6C2064656C6574652063757299
:1032600072656E742063616C6962726174696F6EFD
:1032700020726573756C747320616E642073746161
:1032800072742066726F6D2074686520626567696C
:103290006E6E696E672E20436F6E74696E75653F42
:1032A0000050726568656174696E67206E6F7A7A26
:1032B0006C652E20506C6561736520776169742E92
:1032C00000456A65637400556E6C6F6164005573E8
:1032D0006520756E6C6F616420746F2072656D6F10
:1032E00076652066696C616D656E74203120696653
:1032F0002069742070726F747275646573206F75C5
:103300007473696465206F662074686520726561F6
:1033100072204D4D5520747562652E2055736520C1
:10332000656A656374206966206974206973206822
:10333000696464656E20696E20747562652E004C48
:103340006F6164696E672066696C616D656E74009B
:10335000506C6561736520696E7365727420504CA2
:10336000412066696C616D656E7420746F207468AD
:10337000652065787472756465722C207468656E5A
:10338000207072657373206B6E6F6220746F206C97
:103390006F61642069742E00506C656173652069EB
:1033A0006E7365727420504C412066696C616D6566
:1033B0006E7420746F20746865206669727374205F
:1033C00074756265206F66204D4D552C20746865BC
:1033D0006E20707265737320746865206B6E6F6207
:1033E00020746F206C6F61642069742E00596F75B2
:1033F0002063616E20616C776179732072657375EB
:103400006D65207468652057697A61726420667200
:103410006F6D2043616C6962726174696F6E202DFB
:103420003E2057697A6172642E00506C6561736545
:1034300020636865636B206F75722068616E6462DB
:103440006F6F6B20616E64206669782074686520F8
:1034500070726F626C656D2E205468656E207265A7
:1034600073756D65207468652057697A6172642090
:103470006279207265626F6F74696E672074686527
:10348000207072696E7465722E00416C6C206973D5
:1034900020646F6E652E20486170707920707269AB
:1034A0006E74696E672100506C6561736520636C92
:1034B00065616E206865617462656420616E642078
:1034C0007468656E20707265737320746865206B14
:1034D0006E6F622E00446F20796F752077616E7475
:1034E00020746F20726570656174206C6173742044
:1034F0007374657020746F20726561646A7573748B
:103500002064697374616E636520626574776565B4
:103510006E206E6F7A7A6C6520616E6420686561DA
:10352000746265643F00492077696C6C2073746134
:10353000727420746F207072696E74206C696E658D
:1035400020616E6420796F752077696C6C206772DA
:10355000616475616C6C79206C6F7765722074683A
:1035600065206E6F7A7A6C6520627920726F746163
:1035700074696E6720746865206B6E6F622C2075AD
:103580006E74696C20796F75207265616368206F55
:103590007074696D616C206865696768742E20437A
:1035A0006865636B20746865207069637475726503
:1035B0007320696E206F75722068616E64626F6F30
:1035C0006B20696E20636861707465722043616C62
:1035D0006962726174696F6E2E004E6F77204920A8
:1035E00077696C6C2063616C6962726174652064D8
:1035F000697374616E6365206265747765656E20BA
:10360000746970206F6620746865206E6F7A7A6CBA
:103610006520616E642068656174626564207375FD
:1036200072666163652E00497320697420504C41B5
:103630002066696C616D656E743F0053656C6563EF
:1036400074206E6F7A7A6C6520707265686561743B
:103650002074656D70657261747572652077686934
:103660006368206D61746368657320796F7572207B
:103670006D6174657269616C2E004E6F7720492010
:1036800077696C6C2070726568656174206E6F7A02
:103690007A6C6520666F7220504C412E0049732071
:1036A00066696C616D656E74206C6F616465643F02
:1036B0000049732066696C616D656E742031206C01
:1036C0006F616465643F004E6F7720492077696CB5
:1036D0006C2070726568656174206E6F7A7A6C65B3
:1036E00020666F7220504C412E00492077696C6C27
:1036F0002072756E207A2063616C696272617469F0
:103700006F6E206E6F772E004E6F772072656D6F33
:103710007665207468652074657374207072696EB4
:10372000742066726F6D20737465656C20736865B4
:1037300065742E00506C656173652072656D6F76DF
:1037400065207368697070696E672068656C706564
:1037500072732066697273742E00492077696C6CED
:103760002072756E2078797A2063616C696272616B
:1037700074696F6E206E6F772E2049742077696CA4
:103780006C2074616B6520617070726F782E2031CF
:1037900032206D696E732E0046697273742C204955
:1037A0002077696C6C2072756E2074686520736573
:1037B0006C667465737420746F20636865636B2036
:1037C0006D6F737420636F6D6D6F6E2061737365C1
:1037D0006D626C792070726F626C656D732E00483B
:1037E000692C204920616D20796F7572204F7269B4
:1037F00067696E616C205072757361206933207047
:1038000072696E7465722E20576F756C6420796FC3
:1038100075206C696B65206D6520746F2067756914
:10382000646520796F75207468726F75676820749D
:1038300068652073657475702070726F636573734B
:103840003F00452D636F7272656374005A2D636F7C
:10385000727265637400592D636F727265637400D0
:10386000582D636F72726563740053706F6F6C4A8A
:103870006F696E2020205B4E2F415D0053706F6F8B
:103880006C4A6F696E2020205B6F66665D00537026
:103890006F6F6C4A6F696E202020205B6F6E5D0039
:1038A000536F756E642020202020205B6C6F756440
:1038B0005D00536F756E642020202020205B6D75A5
:1038C00074655D00536F756E64202020205B736902
:1038D0006C656E745D00536F756E6420202020202F
:1038E000205B6F6E63655D00536F756E64202020F2
:1038F0002020205B6C6F75645D00536F72743A20FA
:1039000020202020205B6E6F6E655D00536F727407
:103910003A20205B616C7068616265745D00536F72
:1039200072743A2020202020205B74696D655D0050
:103930005344206361726420205B6E6F726D616C12
:103940005D0053442063617264205B666C73684160
:1039500069725D0052506920706F727420202020BF
:10396000205B6F6E5D0052506920706F7274202072
:1039700020205B6F66665D0054656D702E2063616C
:103980006C2E2020205B6F6E5D0054656D702E20C4
:1039900063616C2E20205B6F66665D004C696E2E45
:1039A00020636F7272656374696F6E0046616E7337
:1039B00020636865636B20205B6F66665D0046610F
:1039C0006E7320636865636B2020205B6F6E5D0003
:1039D000462E206175746F6C6F6164205B6F666644
:1039E0005D00462E206175746F6C6F616420205BF2
:1039F0006F6E5D00462E206175746F6C6F61642080
:103A00005B4E2F415D0046696C2E2073656E736FAF
:103A100072205B4E2F415D0044697361626C6520CA
:103A20007374657070657273004D6F766520617890
:103A300069730054656D70657261747572650054C8
:103A4000656D702E2063616C6962726174696F6E5E
:103A50000052657365742058595A2063616C69621D
:103A6000722E0053686F772070696E6461207374E2
:103A7000617465005049442063616C6962726174CD
:103A8000696F6E00426564206C6576656C20636FBB
:103A90007272656374004D65736820426564204CE2
:103AA0006576656C696E670043616C69627261740A
:103AB00065205A0043616C696272617465205859CF
:103AC0005A0053656C667465737420202020202092
:103AD000202020004669727374206C617965722021
:103AE00063616C2E0057697A617264004C6F616487
:103AF0002066696C616D656E742035004C6F616481
:103B00002066696C616D656E742034004C6F616471
:103B10002066696C616D656E742033004C6F616462
:103B20002066696C616D656E742032004C6F616453
:103B30002066696C616D656E742031004C6F616444
:103B400020616C6C004C6F61642066696C616D650E
:103B50006E742035004C6F61642066696C616D6520
:103B60006E742034004C6F61642066696C616D6511
:103B70006E742033004C6F61642066696C616D6502
:103B80006E742032004C6F61642066696C616D65F3
:103B90006E74203100456A6563742066696C616DDE
:103BA000656E74203500456A6563742066696C61D2
:103BB0006D656E74203400456A6563742066696CB7
:103BC000616D656E74203300456A656374206669B3
:103BD0006C616D656E74203200456A6563742066A1
:103BE000696C616D656E74203100506C6561736540
:103BF0002070756C6C206F75742066696C616D65E2
:103C00006E7420696D6D6564696174656C790055C9
:103C10006E6C6F6164696E672066696C616D656E5C
:103C2000740057697A61726420656E6420737461F0
:103C300074653A2025640A0057697A6172642073BA
:103C4000746174653A2025640044697361626C652F
:103C5000206661726D206D6F6465004661726D2033
:103C60006E756D626572004D3834004D3434004716
:103C700032382057004739390044697361626C65F6
:103C8000206661726D206D6F64653F0043686F6FE1
:103C9000736520636F6C6F723A0020423A002045D2
:103CA0003A00543A00494E5434007265636F7665A9
:103CB000725F6D616368696E655F73746174655F7F
:103CC00061667465725F706F7765725F70616E694F
:103CD000632C20696E697469616C20007265636F82
:103CE0007665725F6D616368696E655F7374617438
:103CF000655F61667465725F706F7765725F706132
:103D00006E69632C20696E697469616C20004739A3
:103D10003220450050525553412075766C6F004754
:103D200034205330004D32362053256C75004D3110
:103D300030362053004D383200473120462564008C
:103D400047312045322A64656661756C745F72651F
:103D50007472616374696F6E204634383000473185
:103D6000205A0020463230303000205900473120A0
:103D700058004D383300506F736974696F6E20724C
:103D80006561642066726F6D20656570726F6D3A53
:103D9000004D3233202573002E67636F0046656542
:103DA00064726174653A00473120452D646566612F
:103DB000756C745F72657472616374696F6E2046AE
:103DC0003438300047312045352046313230004DFF
:103DD0003833004D31393020532564004D313039AE
:103DE000205325640047323820582059004731209D
:103DF0005A3235204638303000627573793A207077
:103E0000617573656420666F7220696E70757400E9
:103E1000627573793A2070617573656420666F729C
:103E2000207573657200627573793A2070726F63E2
:103E3000657373696E67002046004731205A002081
:103E4000460047312045004D3833006F6B0A00555E
:103E5000564C4F202D20656E642025640A00737433
:103E6000707325640A00776F726C6420636F6F72E1
:103E700064696E617465733A2028252E33662C20A0
:103E8000252E33662C20252E3366290A007068798A
:103E9000736963616C20636F6F7264696E617465CE
:103EA000733A2028252E33662C20252E33662C20AD
:103EB000252E3366290A0043757272656E74207070
:103EC0006F73205A5F415849533A252E33660A438F
:103ED000757272656E7420706F7320455F4158492A
:103EE000533A252E33660A00416674657220776165
:103EF0006974696E6720666F722074656D703A0A26
:103F000043757272656E7420706F7320585F4158EC
:103F100049533A252E33660A43757272656E7420D2
:103F2000706F7320595F415849533A252E33660A02
:103F3000005265636F766572696E67207072696E94
:103F4000742020202000566F6C74616765730054E4
:103F5000656D7065726174757265730042656C742D
:103F6000207374617475730045787472756465723A
:103F700020696E666F0058595A2063616C2E206468
:103F8000657461696C7300756E6B6E6F776E004D52
:103F90004D553220636F6E6E6563746564004461D5
:103FA00074653A00686F77746F2E70727573613341
:103FB000642E636F6D00666F72756D2E707275730F
:103FC0006133642E636F6D00707275736133642E9C
:103FD000636F6D0046696C616D656E742065787401
:103FE000727564696E672026207769746820636F34
:103FF000727265637420636F6C6F723F00507265FC
:104000006865617420746865206E6F7A7A6C6521CA
:10401000004552524F523A004175746F6C6F6164A3
:10402000696E672066696C616D656E7420697320C6
:104030006163746976652C206A757374207072658B
:10404000737320746865206B6E6F6220616E6420EC
:10405000696E736572742066696C616D656E742E2D
:104060002E2E00546F74616C207072696E7420740F
:10407000696D6500546F74616C2066696C616D6573
:104080006E74005072696E742074696D65004669C3
:104090006C616D656E742075736564005269676844
:1040A00074004C65667400592064697374616E63B2
:1040B000652066726F6D206D696E0053657665725E
:1040C0006520736B657700536C6967687420736B48
:1040D0006577004D6561737572656420736B6577F4
:1040E000005B303B305D20706F696E74206F6666D8
:1040F0007365740041646A757374696E67205A0051
:10410000526573657400526561722073696465203D
:104110005B756D5D0046726F6E7420736964655BDC
:10412000756D5D00526967687420736964655B75BD
:104130006D5D004C6566742073696465205B756D08
:104140005D005365742074656D706572617475727D
:10415000653A00466C61736841697220495020419C
:104160006464723A004D4D553220202020202020DA
:104170004E2F410025642E25642E25642D256400D4
:104180002046573A004465632031362032303138BA
:1041900000453344763666756C6C0045494E53795C
:1041A0005F31306100315F37356D6D5F4D4B3300EE
:1041B0002D2D2D2D2D2D2D2D2D2D2D2D00207265EC
:1041C000706F20556E6B6E6F776E0020352E302E1F
:1041D000342D545A422D32333238004669726D778D
:1041E0006172653A0025642E25642E25642E2564AF
:1041F000004D373032004D373031004578747275DC
:10420000646572006D6D0000590058005800590037
:104210005A002563252E3132533A2573252B30362B
:104220002E3366001B5B324A2553203A1B5B313B21
:10423000394825382E3266206D0A2553203A0A2542
:10424000376C6464203A253268686468203A253007
:1042500032686864206D001B5B324A25533A1B5B51
:10426000313B364825382E32666D200A2553203AD8
:104270001B5B333B38482532646820253032646D3F
:104280002025303264730025362E32666D6D004E67
:104290002F41001B5B303B304825533A0A25530A17
:1042A00025533A0A25533A001B5B303B3135484EC3
:1042B0002F41001B5B303B31354825342E326601DF
:1042C000001B5B303B304825533A0A25530A2553DF
:1042D0003A202025352E3266010A25533A20202522
:1042E000352E32660100526573656E640025533ABF
:1042F00020256C640A25530A002079645F6D696E7D
:104300003D25752079645F6D61783D257520796460
:104310005F6176673D25752073685F6176673D252F
:10432000750A002073745F73756D3D25752079647F
:104330005F73756D3D25752065725F73756D3D25E5
:10434000752065725F6D61783D256868750A0000AB
:104350004B494C4C45442E20005072696E74657276
:104360002068616C7465642E206B696C6C28292050
:1043700063616C6C656421004B494C4C3A202564A8
:104380000A004D31303420496E76616C69642065D5
:104390007874727564657220004D31303520496E35
:1043A00076616C696420657874727564657220004A
:1043B0004D31303920496E76616C696420657874BE
:1043C000727564657220004D32313820496E766115
:1043D0006C696420657874727564657220004D3272
:1043E000323120496E76616C69642065787472752B
:1043F00064657220006673656E736F725F6F715FC4
:104400006D656173737572655F73746F702C2025B1
:104410006868752073616D706C65730A00667365FA
:104420006E736F725F6F715F6D65617373757265C7
:104430005F73746172740A004D3630300046534524
:104440004E534F525F5245434F5645520066736577
:104450006E736F725F757064617465202D204D36C8
:1044600030300A006673656E736F725F6572725FDB
:10447000636E74203D20300A0047312045332046CA
:1044800032303000473120452D3320463230300065
:104490004D3730310020573A0020453A00543A0059
:1044A0005A206C6976652061646A757374206F7533
:1044B00074206F662072616E67652E205365747478
:1044C000696E6720746F20302E20436C69636B2007
:1044D000746F20636F6E74696E75652E005A206C60
:1044E0006976652061646A757374206F7574206FD6
:1044F000662072616E67652E2053657474696E67FD
:1045000020746F20300048656174696E67206469AB
:104510007361626C65642062792073616665747989
:104520002074696D65722E0043757272656E740039
:104530005573656420647572696E67207072696E68
:1045400074005049442063616C2E2066696E697363
:10455000686564005049442063616C2E202020204F
:104560002020202020202000506C6561736520777A
:10457000616974004D313137204669727374206C63
:10458000617965722063616C2E005072696E7420CF
:1045900070617573656400496E76616C6964205062
:1045A00049442063616C2E20726573756C74732EA0
:1045B000204E6F742073746F72656420746F204591
:1045C0004550524F4D2E004D353030004731205A66
:1045D0003135204631353030004739310047312000
:1045E0005835302059313930204530204637303069
:1045F0003000473930004D373032004D37303220EF
:1046000043004D3730322055004D373032004D37A2
:1046100030322043004731205A3135204631353081
:104620003000473931004731205835302059313971
:1046300030204530204637303030004D3833004789
:104640003930004D3834004D313034205330004D76
:104650003834004D37303220430047312058313054
:104660002059313830204634303030004731205A1C
:1046700031302046313330302E303030004D31343F
:1046800030205330004D313034205330004731203A
:10469000452D302E30373530302046323130302EF7
:1046A0003030303030004D31303700473120583510
:1046B00030205935352045332E36323737330047D1
:1046C000312058323030205935352045302E34399C
:1046D00033383600473120583230302059373520B2
:1046E00045332E36323737330047312058353020A6
:1046F0005937352045302E3439333836004731208C
:10470000583530205939352045332E363237373336
:104710000047312058323030205939352045302E6D
:10472000343933383600473120583230302059314F
:1047300031352045332E3632373733004731205854
:10474000353020593131352045302E343933383623
:104750000047312058353020593133352045332E2C
:104760003632373733004731205832303020593114
:1047700033352045302E3636313734004731205816
:1047800032303020593135352045322E36323737E8
:1047900033004731205831303020593135352045EC
:1047A00032004731205837352059313535204532D0
:1047B0002E35004731204631303830004731205AFD
:1047C000302E3135302046373230302E3030300008
:1047D0004731205835302059313535004731204692
:1047E00034303030004D32303420533130303000EE
:1047F0004731205A352046373230302E30303000A5
:10480000473120452D312E35303030302046323181
:1048100030302E3030303030004D383300473930B2
:1048200000473231004739322045302E30004731C1
:1048300020583130302E30204531322E352046314F
:104840003030302E30004731205836302E30204561
:10485000392E302046313030302E3000473120584C
:10486000352E302045342E302046313030302E3039
:10487000004731205A302E32302046313030302E31
:1048800030004731205835352E302045323520460E
:10489000313430302E3000473120592D322E302027
:1048A00046313030302E3000473120583234302EEF
:1048B00030204532352E30202046323230302E30F6
:1048C000004739322045302E30004731205A302EF3
:1048D000332046313030302E3000473120583535C6
:1048E0002E302045382E302046323030302E3000E9
:1048F00047312058352E30204533322E3020463176
:104900003830302E30004731205835352E30204594
:1049100033322E302046313037332E3000473120AD
:104920005A302E342046313030302E30004731207E
:10493000592D332E302046313030302E30004D3856
:1049400033004739322045302E3000473238004D91
:104950003130392053323135004D31393020533622
:1049600030004D31343020533630004D313034205A
:1049700053323135004D31303700000E1315110E12
:1049800000000004120912040000001C1F11111F76
:1049900000000006191803130C00040E1F041C006D
:1049A0000000040A0A0A0A11110E001F1511151F32
:1049B0000000000103161C0800000000110A041189
:1049C0000A040C12120C000000002563252D31385A
:1049D000532563002563252E3135533A257325333E
:1049E00064002563252E3132533A25732500205B60
:1049F0006F66665D001000C90210012C01400122A3
:104A00000170011801B0010E01F00104015002FA19
:104A100000B002F0003003E600D003DC009004D2C6
:104A2000007005C800A006BE000008B400B009AAC6
:104A300000D00BA000600E960060118C0000158263
:104A40000020197800C01D6E00A0226400B0275A13
:104A500000902C500000314600E0343C0010383209
:104A600000903A2800603C1E00A03D1400803E0AE1
:104A700000203F000070012C0190012701B00122AD
:104A800001C0011D01F00118011002130130020ED6
:104A9000016002090190020401C002FF000003FA54
:104AA000004003F5008003F000D003EB002004E693
:104AB000007004E100E004DC004005D700C005D22E
:104AC000004006CD00D006C8008007C3003008BEF5
:104AD00000F008B900C009B400B00AAF00B00BAADA
:104AE00000D00CA500000EA000500F9B00C0109637
:104AF000005012910000148C00C0158700B017827E
:104B000000B0197D00D01B7800001E730040206E9D
:104B10000090226900F024640040275F0090295A29
:104B200000E02B5500102E500020304B0010324674
:104B300000E033410090353C0010373700703832C8
:104B400000A0392D00B03A2800A03B2300603C1E95
:104B500000103D1900903D1400103E0F00703E0AF9
:104B600000C03E0500003F000090137D00B01578A6
:104B700000F0177300601A6E00F01C6900A01F643B
:104B80000050225F0020255A00E0275500902A504F
:104B900000202D4B00A02F4600F031410010343C86
:104BA00000F0353700A037320020392D00603A2858
:104BB00000703B2300603C1E00203D1900C03D14E6
:104BC00000403E0F00A03E0A00F03E0500403F00BE
:104BD00000703FFBFF903FF6FFB03FF1FFC03FEC9E
:104BE000FFD03FE7FFE03FE2FFF03FDDFFF03FD8BF
:104BF000FF20484F54454E4420544845524D414CA7
:104C00002052554E41574159002048454154424594
:104C10004420544845524D414C2052554E41574135
:104C20005900544845524D414C2052554E41574130
:104C3000590042454420544845524D414C2052555C
:104C40004E415741590020544845524D414C205245
:104C5000554E41574159202820505245484541540E
:104C600020484F54454E44290020544845524D4158
:104C70004C2052554E41574159202820505245480A
:104C8000454154204845415442454429005052452D
:104C900048454154204552524F520042454420500D
:104CA000524548454154204552524F520045727278
:104CB0003A204D415854454D50003A204578747281
:104CC00075646572207377697463686564206F66C4
:104CD000662E204D415854454D50207472696767C7
:104CE000657265642021004572723A204D41585426
:104CF000454D50204245440054656D7065726174A5
:104D000075726520686561746564206265642073EE
:104D100077697463686564206F66662E204D41581C
:104D200054454D502074726967676572656420212F
:104D3000004572723A204D494E54454D502042452F
:104D4000440054656D7065726174757265206865A4
:104D50006174656420626564207377697463686553
:104D600064206F66662E204D494E54454D50207488
:104D700072696767657265642021004572723A2026
:104D80004D494E54454D50003A2045787472756433
:104D90006572207377697463686564206F66662E38
:104DA000204D494E54454D502074726967676572B5
:104DB0006564202100746D63323133305F686F6D3C
:104DC000655F656E74657228617865735F6D617388
:104DD0006B3D307825303278290A00746D633231AA
:104DE00033305F686F6D655F6578697420746D63DB
:104DF000323133305F73675F686F6D696E675F6113
:104E00007865735F6D61736B3D3078253032780A59
:104E10000020003E003E0020003E003E0054656D34
:104E200070657261747572652063616C696272612C
:104E300074696F6E206661696C65642E20436F6EC5
:104E400074696E7565207769746820707265737314
:104E5000696E6720746865206B6E6F622E00546502
:104E60006D70657261747572652063616C696272E0
:104E70006174696F6E20646F6E652E20436F6E746F
:104E8000696E7565207769746820707265737369DF
:104E90006E6720746865206B6E6F622E005A30203A
:104EA000284C4544206F6E2920005A3120284C455B
:104EB00044206F66662900502E492E4E2E442E4106
:104EC0002E20737461746500473830004D3435000E
:104ED0004D3435205A004737360054656D70657281
:104EE00061747572652063616C6962726174696F67
:104EF0006E206661696C65640054656D70657261F1
:104F0000747572652063616C6962726174696F6E39
:104F10002069732066696E697368656420616E64D8
:104F2000206163746976652E2054656D702E206350
:104F3000616C6962726174696F6E2063616E206278
:104F4000652064697361626C656420696E206D65BB
:104F50006E752053657474696E67732D3E54656D6C
:104F6000702E2063616C2E004578747275646572D2
:104F7000004D6F7665205A004D6F76652059004DC3
:104F80006F76652058001B5B324A4372617368205C
:104F9000646574656374696F6E2063616E1B5B3159
:104FA0003B30486265207475726E6564206F6E20B8
:104FB0006F6E6C7920696E1B5B323B30484E6F72AE
:104FC0006D616C206D6F6465001B5B324A57415206
:104FD0004E494E473A1B5B313B3048437261736820
:104FE00020646574656374696F6E1B5B323B304887
:104FF00064697361626C656420696E1B5B333B306E
:1050000048537465616C7468206D6F646500417508
:10501000746F6C6F6164696E672066696C616D6541
:105020006E7420617661696C61626C65206F6E6C74
:1050300079207768656E2066696C616D656E742095
:1050400073656E736F72206973207475726E656418
:10505000206F6E2E2E2E004552524F523A20466936
:105060006C616D656E742073656E736F7220697309
:10507000206E6F7420726573706F6E64696E672C3A
:1050800020706C6561736520636865636B20636F76
:105090006E6E656374696F6E2E0043616C69627237
:1050A00061746500526573756D696E672070726911
:1050B0006E7400537570706F7274004661696C2075
:1050C0007374617473005374617469737469637386
:1050D00020200043616C6962726174696F6E0041E7
:1050E00075746F4C6F61642066696C616D656E7478
:1050F00000556E6C6F61642066696C616D656E74DD
:1051000000456A6563742066696C616D656E740044
:105110004C6F616420746F206E6F7A7A6C65004CFE
:105120006F61642066696C616D656E74004E6F20FE
:1051300053442063617264005072696E7420667219
:105140006F6D20534400526573756D6520707269F0
:105150006E74005061757365207072696E740050D2
:105160007265686561740054756E65004C6976659A
:105170002061646A757374205A00496E666F2073EB
:10518000637265656E0046696E697368696E672053
:105190006D6F76656D656E747300536F756E642008
:1051A00020202020205B6C6F75645D00536F756E4E
:1051B000642020202020205B6D7574655D00536F96
:1051C000756E64202020205B73696C656E745D00D1
:1051D000536F756E642020202020205B6F6E636506
:1051E0005D00536F756E642020202020205B6C6F63
:1051F00075645D004372617368206465742E2020BD
:105200005B4E2F415D004372617368206465742EAC
:105210002020205B6F6E5D004372617368206465BF
:10522000742E20205B6F66665D004D6F64652020E4
:1052300020205B537465616C74685D004D6F64651C
:1052400020202020205B4E6F726D616C5D004669EE
:105250006C2E2073656E736F7220205B6F6E5D0025
:1052600046696C2E2073656E736F72205B6F666685
:105270005D004368616E67652066696C616D656E8F
:105280007400466C6F770053706565640046616E0C
:1052900020737065656400426564004E6F7A7A6CB5
:1052A000650053657474696E6773005072696E743B
:1052B0002061626F7274656400596573004E6F00FF
:1052C00053746F70207072696E740046696C65204B
:1052D000696E636F6D706C6574652E20436F6E74BC
:1052E000696E756520616E797761793F004D6169FE
:1052F0006E004D3730322043004661726D206E756E
:105300006D626572004D363030004D3234004D32E2
:105310003320257300052E2E0043616E6E6F7420BE
:10532000656E746572207375626469723A20005309
:10533000442063617264206F6B006F70656E526F02
:105340006F74206661696C656400766F6C756D655D
:105350002E696E6974206661696C6564005344202F
:10536000696E6974206661696C0057726974696E50
:105370006720746F2066696C653A200046696C6529
:105380002073656C6563746564002053697A653ABF
:10539000200046696C65206F70656E65643A200078
:1053A0001F1F1F1F1F1F1F1F2E002E004E6F772055
:1053B00066726573682066696C653A20004E6F7787
:1053C00020646F696E672066696C653A2000222050
:1053D000706F73002220706172656E743A22005300
:1053E0005542524F5554494E452043414C4C207430
:1053F00061726765743A2200747279696E6720740D
:105400006F2063616C6C207375622D67636F6465D8
:105410002066696C6573207769746820746F6F20EB
:105420006D616E79206C6576656C732E204D4158E8
:10543000206C6576656C2069733A00536F727469ED
:105440006E672066696C657300536F6D65206669D1
:105450006C65732077696C6C206E6F7420626520B8
:10546000736F727465642E204D61782E204E6F2EFE
:10547000206F662066696C657320696E2031206636
:105480006F6C64657220666F7220736F7274696EE0
:1054900067206973203130302E0046696C616D657C
:1054A0006E742073656E736F7200537761707065F0
:1054B000640046726F6E742F6C6566742066616E50
:1054C0007300417869730041786973206C656E6779
:1054D0007468004C6F6F73652070756C6C65790033
:1054E000456E6473746F70206E6F74206869740009
:1054F000456E6473746F70004D6F746F7200456E0B
:105500006473746F707300576972696E6720657297
:10551000726F7200426564202F2048656174657265
:10552000004E6F7420636F6E6E656374656400482F
:1055300065617465722F546865726D6973746F72FA
:1055400000506C6561736520636865636B203A0089
:1055500053656C6674657374206572726F72202176
:105560000046696C616D656E742073656E736F7251
:105570003A005072696E742066616E3A0045787424
:1055800072756465722066616E3A0053656C66746C
:10559000657374206661696C6564202000416C6CE1
:1055A00020636F72726563742020202020200043E6
:1055B0006865636B696E672073656E736F727320C5
:1055C00000436865636B696E672062656420202014
:1055D000202000436865636B696E67205A206178FC
:1055E0006973202000436865636B696E67205920EA
:1055F00061786973202000436865636B696E67207A
:10560000582061786973202000436865636B696E78
:105610006720686F74656E64202000436865636B63
:10562000696E6720656E6473746F70730045727283
:105630006F72202D20737461746963206D656D6FC6
:10564000727920686173206265656E206F7665727D
:105650007772697474656E00436172642072656D5F
:105660006F766564004361726420696E736572745D
:105670006564002D2D2D2D2D2D2D2D2D2D2D2D2D18
:105680002D2D2D2D2D2D2D0043616C6962726174BD
:10569000696E6720686F6D65000000000000110AE8
:1056A00004505255534133444657002079303D252C
:1056B000640A002078303D25640A004F4B0A0045FB
:1056C00052524F522061643D25640A002020207A06
:1056D000303D25640A00207A303D25640A00207997
:1056E000303D25640A002078303D25640A00787931
:1056F0007A63616C5F66696E645F706F696E745F18
:1057000063656E746572320A00352E302E342D5466
:105710005A42007263006265746100616C70686176
:10572000006465760078797A63616C5F7370697282
:10573000616C322063783D25642063793D256420C7
:105740007A303D256420647A3D2564207261646965
:1057500075733D25642061643D25640A00010210D3
:10576000202008081020401020408002010201087B
:10577000040201010204081020408080402010082B
:105780000402018004020180402010080402010884
:1057900004020101020408102040800102040810E4
:1057A0002040801008040880102040044080102011
:1057B00040048000002200250028002B002E00312C
:1057C00000340002010000050108010B0105050578
:1057D00005070508080808020202020A0A08080468
:1057E0000404040101010101010101030303030396
:1057F000030303040707070C0C0C0C0C0C0C0C0225
:1058000002020206060606060606060B0B0B0B0B2B
:105810000B0B0B07070A0A0A0A0A0A050505040406
:1058200004080802746D63323133305F676F746F40
:105830005F7374657020256420256420256420250D
:1058400064200A002E006F70656E206661696C65C9
:10585000642C2046696C653A20000000211042202B
:1058600063308440A550C660E770088129914AA141
:105870006BB18CC1ADD1CEE1EFF1311210027332B8
:105880005222B5529442F772D662399318837BB391
:105890005AA3BDD39CC3FFF3DEE362244334200448
:1058A0000114E664C774A44485546AA54BB52885E1
:1058B0000995EEE5CFF5ACC58DD553367226111698
:1058C0003006D776F6669556B4465BB77AA7199731
:1058D0003887DFF7FEE79DD7BCC7C448E558866820
:1058E000A7784008611802282338CCC9EDD98EE981
:1058F000AFF9488969990AA92BB9F55AD44AB77AF8
:10590000966A711A500A333A122AFDDBDCCBBFFBD0
:105910009EEB799B588B3BBB1AABA66C877CE44C07
:10592000C55C222C033C600C411CAEED8FFDECCD20
:10593000CDDD2AAD0BBD688D499D977EB66ED55ED7
:10594000F44E133E322E511E700E9FFFBEEFDDDF70
:10595000FCCF1BBF3AAF599F788F8891A981CAB1FC
:10596000EBA10CD12DC14EF16FE18010A100C2302E
:10597000E3200450254046706760B9839893FBA3E9
:10598000DAB33DC31CD37FE35EF3B1029012F3227E
:10599000D2323542145277625672EAB5CBA5A89539
:1059A00089856EF54FE52CD50DC5E234C324A014CE
:1059B00081046674476424540544DBA7FAB79987C9
:1059C000B8975FE77EF71DC73CD7D326F23691061E
:1059D000B01657667676154634564CD96DC90EF911
:1059E0002FE9C899E9898AB9ABA94458654806786E
:1059F0002768C018E1088238A3287DCB5CDB3FEB29
:105A00001EFBF98BD89BBBAB9ABB754A545A376ABD
:105A1000167AF10AD01AB32A923A2EFD0FED6CDDF8
:105A20004DCDAABD8BADE89DC98D267C076C645C0D
:105A3000454CA23C832CE01CC10C1FEF3EFF5DCF08
:105A40007CDF9BAFBABFD98FF89F176E367E554E5D
:105A5000745E932EB23ED10EF01E7C3C3E5E2B3D1A
:105A60003F2F5B5D3B2C2A225C000000A040000021
:105A7000A0400000004025336420737465703D250C
:105A80003264206D73636E743D2534640A00000037
:105A90007F43008058439AD95143FFFFFF46696C0A
:105AA000616D656E74206F7574206F662072616E13
:105AB0006765202564200A0067636F64655F4D3762
:105AC000303120626567696E0A0057616974696EDA
:105AD0006720666F72206E6F7A7A6C6520616E64E3
